:10000000DCC200000BC3000009C3000007C30000EE
:1000100005C3000003C3000001C30000FFC20000CD
:10002000FDC20000FBC20000F9C20000F7C20000E0
:100030000C94B814F3C20000F1C20000EFC200003B
:10004000EDC20000EBC20000E9C20000E7C2000000
:10005000E5C20000E3C20000E1C200000C94210AE6
:10006000DDC200000C94940A0C946B0AD7C2000005
:10007000D5C20000D3C20000D1C20000CFC2000030
:10008000CDC20000CBC20000C9C20000C7C2000040
:10009000C5C20000C3C20000C1C20000BFC2000050
:1000A000BDC20000BBC20000B9C20000B7C2000060
:1000B000B5C20000B3C20000B1C20000AFC2000070
:1000C000ADC20000ABC20000A9C20000A7C2000080
:1000D000A5C20000A3C20000A1C200009FC2000090
:1000E0009DC2000000002100240027002A002D00EE
:1000F0003000330001010000040107010A01000083
:100100002200250028002B002E00310034000201BF
:100110000000050108010B01050505050705080894
:100120000808020202020A0A080804040404010181
:100130000101010101010303030303030303040796
:1001400007070C0C0C0C0C0C0C0C0202020206062D
:100150000606060606060B0B0B0B0B0B0B0B010220
:1001600010202008081020401020408002010201C9
:100170000804020101020408102040808040201081
:1001800008040201800402018040201008040201DA
:100190000804020101020408102040800102040842
:1001A0001020408000000A0B02090C0D0E08070306
:1001B000040100000000000000000000000000003A
:1001C000000000000000000000000000000000002F
:1001D00012111000000000000000000000000000EC
:1001E00000000000000000000000CF93DF9300D06B
:1001F00000D000D01F92CDB7DEB7E0910C1BF0917C
:100200000D1BF08010E000E0FF2029F00580F68152
:10021000E02D008111810E94070B0E94FD0A6C01F4
:100220008091C81A9091C91AC816D90608F07EC0E4
:100230000E94900FD092C91AC092C81A0E94620DF3
:100240000091301B1091311B1A86198680E06801DD
:10025000B1E1CB0ED11C0FB6F8940F92F801F28CDD
:10026000FF2009F41AC1448D4423C1F050E0868177
:100270009781840F951F9783868324813581821708
:10028000930720F08081918197838683D801169609
:100290006D917C91CE0101960E946C18FA94F80140
:1002A000F28E8085882339F0C80108960E945C0B85
:1002B00081110E949C0C0F900FBED980D7FCC0CF3B
:1002C0000C811D81D8011A968D919C91892B21F06A
:1002D000C80102960E94380B0E94FD0A7C018091A1
:1002E000C81A9091C91AE816F90610F40E94900FE6
:1002F000F092C91AE092C81AB9E0BD1508F4A0CF6F
:10030000ED2DDD0CFF0BD80153969C918827E45707
:10031000FE4F8F4F0C9488171002100210024802F3
:10032000330242021002100248023302D092C91A6C
:10033000C092C81AFF2099F1C016D106C0F10E94E0
:10034000620DE0910C1BF0910D1B0580F681E02DF4
:10035000E680F780C70102960E94380BD7015396BA
:100360008C91539782FF17C01C966D917C91600F02
:10037000711F9801A601C7010E940E0C882321F06D
:10038000B801C7010E946A0FD7015096ED91FC9108
:10039000C701199555CF8E7FF701838BF5CFE0917B
:1003A0000A1BF0910B1B8081BB24B3948111B12CEB
:1003B000E090301BF090311B0FB6F8940F92F701CC
:1003C000858D8F3F09F4158ED7015E968C915E97CF
:1003D0008F3F11F45E961C920F900FBEF701828D35
:1003E000811114C06091B0047091B104645F7F4FBB
:1003F000C70141960E94180BC8018C199D09BB20AA
:1004000011F08FEF9FEF6B2D0E94370CC7010E94F8
:10041000980B0E94620D811113CF0E949C0C10CF8B
:100420009160F801938BCA80DB80648575856C0DC3
:100430007D1D9601A701C8010E940E0C882309F4B6
:10044000FFCED8015096ED91FC91C8011995F801A5
:10045000838982FFF5CE648575856C0D7D1DC8018D
:100460000E946A0FEDCE9160F801938B6A817B81C7
:10047000758764876E0D7F1D9701A701C8010E94D3
:100480000E0CDECE91FD04C0C8010E949710D8CE9C
:100490009E7FD80153969C93D3CE29853A85232BF2
:1004A00019F40F900FBEA9CE811109C08091341BA1
:1004B0008E838091321B9091331B98878F830F908E
:1004C0000FBE0E94070B0FB6F8940F92D8015D96ED
:1004D0008C915D978F3F11F45D961C92F801868D8B
:1004E0008F3F09F4168E0F900FBEBE01675F7F4FDE
:1004F000CE0106960E94CA0A811125C0C8010E9439
:100500000D0B8823D1F0E984FA846091B0047091D6
:10051000B104645F7F4FC6010E94D80B61E0C70140
:100520000E94370CC8010E94980B0E94620D811135
:1005300002C00E949C0C81E08ECEC8010E94980BE4
:100540000E94620DF8CFC8010E94980B0E94620DB4
:10055000C8010E940D0B882371F34FCE8091C41AFD
:10056000811108C08091671B823010F00E949C0CA2
:10057000F9D1F4CF0FB6F8940F92E091481BF091A7
:10058000491BC681D781CE0102960E94380B80910B
:100590008E1B815080938E1B8091C41A8150809352
:1005A000C41A0F900FBE8F89988D0E949710CE01AC
:1005B0000E949710D3CFBA145B1611241FBECFEF41
:1005C000D1E2DEBFCDBF00E00CBF14E0A0E0B2E09E
:1005D000E0EEF6E300E00BBF02C007900D92A03BF7
:1005E000B107D9F72CE1A0EBB4E001C01D92AC3308
:1005F000B207E1F712E0CCEDD2E000E006C02197AF
:100600000109802FFE010E948817CB3DD10780E0B1
:100610000807A9F70E94EE140C945F1BF1CC382F49
:10062000E1EBF1E08491EBE6F1E02491E5E2F1E029
:100630009491992309F435C0882311F181508231B6
:10064000F8F4E82FF0E08827E75DFC4F8F4F0C941B
:1006500088175A035E033B035203560340036103AA
:1006600067036B037103750379037F0383034003FF
:1006700087038D039103809180008F7780938000A2
:10068000E92FF0E0EE0FFF1FE250FF4FA591B4916C
:100690008FB7F894EC91311148C020952E232C93FC
:1006A0008FBF0895809180008F7DE8CF809180007A
:1006B000877FE4CF84B58F7784BDE2CF84B58F7D0B
:1006C000FBCF8091B0008F778093B000D9CF80911D
:1006D000B0008F7DF9CF809190008F77809390004C
:1006E000CFCF809190008F7DF9CF80919000877F50
:1006F000F5CF8091A0008F778093A000C1CF80912B
:10070000A0008F7DF9CF8091A000877FF5CF8091E9
:1007100020018F7780932001B3CF809120018F7DBE
:10072000F9CF80912001877FF5CF2E2BB8CF209174
:10073000361C3091371C8217930738F42091321CF5
:100740003091331C2115310529F41092351B85E3B6
:100750009BE10895820F931F08950895AF92BF9271
:10076000CF92DF92EF92FF920F931F93CF93DF937D
:100770006C017B018B01040F151FEB015E01AE18AC
:10078000BF08C017D10759F06991D601ED91FC91CE
:100790000190F081E02DC6011995892B79F7C501EB
:1007A000DF91CF911F910F91FF90EF90DF90CF904D
:1007B000BF90AF900895FC01538D448D252F30E0FC
:1007C000842F90E0821B930B541710F0CF9608955E
:1007D00001970895FC01918D828D981761F0A28D8B
:1007E000AE0FBF2FB11D5D968C91928D9F5F9F7351
:1007F000928F90E008958FEF9FEF0895FC01918D07
:10080000828D981731F0828DE80FF11D858D90E073
:1008100008958FEF9FEF0895FC01918D228D892F10
:1008200090E0805C9F4F821B91098F7399270895F8
:100830008FE89BE1F1DF21E0892B09F420E0822F92
:100840000895FC01A48DA80FB92FB11DA35ABF4F65
:100850002C91848D90E001968F739927848FA689BF
:10086000B7892C93A089B1898C91837080648C9313
:10087000938D848D981306C00288F389E02D8081C2
:100880008F7D80830895EF92FF920F931F93CF93F4
:10089000DF93EC0181E0888F9B8D8C8D98131AC0BB
:1008A000E889F989808185FF15C09FB7F894EE89A2
:1008B000FF896083E889F9898081837080648083FF
:1008C0009FBF81E090E0DF91CF911F910F91FF904A
:1008D000EF900895F62E0B8D10E00F5F1F4F0F73F2
:1008E0001127E02E8C8D8E110BC00FB607FCFACFAE
:1008F000E889F989808185FFF5CFCE01A2DFF2CFAB
:10090000EB8DEC0FFD2FF11DE35AFF4FF0829FB7E7
:10091000F8940B8FEA89FB8980818062D0CF682FA1
:100920008FE89BE1B0CFCF93DF93EC01888D8823D4
:10093000B1F0AA89BB89E889F9898C9185FD03C04A
:10094000808186FD0CC00FB607FCF7CF8C9185FF28
:10095000F2CF808185FFEDCFCE0173DFEACFDF914B
:10096000CF91089580E090E0892B21F061DF811123
:100970000E94000080E090E0892B49F080E090E048
:10098000892B29F00E94000081110E94000080E064
:1009900090E0892B49F080E090E0892B29F00E94BB
:1009A000000081110E94000080E090E0892B49F056
:1009B00080E090E0892B29F00E94000081110C94C6
:1009C00000000895E091381BF091391B808181115E
:1009D00007C08FEF9FEF9093231B8093221B0895F6
:1009E000E091381BF091391B0580F681E02D0680DF
:1009F000F781E02D82819381EECFCF93DF93FC01CD
:100A0000A0ECBAE1CD91DC911197CE17DF07A0F1F0
:100A100012962D913C911397CD01820F931FE817E9
:100A2000F90749F482819381820F931F13969C9357
:100A30008E931297FD0122813381CF01820F931F84
:100A4000C817D907D9F48091BE1A9091BF1AC81758
:100A5000D907A1F08A819B81820F931F93838283A0
:100A60008881998191838083EA17FB0711F0ED93C8
:100A7000FC93DF91CF910895DE01C4CFD183C08371
:100A8000F3CFFC0101900020E9F73197AF01481B3B
:100A9000590BBC018FE89BE161CECF93DF93F1DF6F
:100AA000EC0180E893E0EDDF8C0F9D1FDF91CF918B
:100AB00008958DE192E0E5CFCF93DF93EC018DE0D7
:100AC00090E02DDFCE01E9DFDF91CF91F2CF2091D1
:100AD000361C3091371C8217930758F4E091321C72
:100AE000F091331CE80FF91F9093371C8093361C4C
:100AF00010820895FC0180819181009711F00C947F
:100B0000FF160895FC0124813581232B39F421E05F
:100B1000FB018081882349F020E007C0808191811A
:100B20000E94871821E0892BB9F7822F08950F932F
:100B30001F93CF93DF938C01EB01FC0180819181A6
:100B40000097E1F06881798161157105A9F0428112
:100B500053812C813D814217530770F00E949018F9
:100B60008C819D81F801958384831D821C82DF9195
:100B7000CF911F910F9108950E94FF16888199814E
:100B8000F801918380838A819B81938382838C8106
:100B90009D8195838483198218821B821A82E5CFF6
:100BA0000F931F93CF93DF93EC0188819981009776
:100BB00059F02A813B812617370730F081E0DF9119
:100BC000CF911F910F9108958B016F5F7F4F0E940E
:100BD0009017009759F0998388831B830A832C818F
:100BE0003D81232B59F7FC011082E8CF80E0E7CF4D
:100BF000EF92FF920F931F93CF93DF93EC017B0152
:100C00008A01BA01CDDF28813981811114C02115F3
:100C1000310519F0C9010E94FF16198218821D8240
:100C20001C821B821A82CE01DF91CF911F910F91FE
:100C3000FF90EF9008951D830C83B701C9010E94B6
:100C40009018F1CFFC01118210821382128215825A
:100C5000148250E040E062E873E0CACFFB010190EB
:100C60000020E9F73197AF01461B570BC1CFCF9258
:100C7000DF92EF92FF920F931F93CF93DF93EC01DC
:100C80006B017A014617570720F48D2D6A01E62E75
:100C9000F82ECE01D7DF0091361C1091371CC016FC
:100CA000D106F8F4E016F10608F48701E091321C51
:100CB000F091331CE00FF11FF08010826091321C24
:100CC0007091331C6C0D7D1D61157105A1F0CE0175
:100CD000C5DF8091321C9091331C080F191FF80159
:100CE000F082CE01DF91CF911F910F91FF90EF9095
:100CF000DF90CF90089588819981009711F00E942C
:100D0000FF16198218821D821C821B821A82E1CF73
:100D1000EBE6F1E02491E5E2F1E08491882399F09B
:100D200090E0880F991FFC01EC51FF4FA591B49101
:100D3000FC01E250FF4F859194918FB7F894EC91AC
:100D4000E22BEC938FBF81E06ADC8FE090E00E94A1
:100D5000C81080E064DC8FE090E00E94C81081E061
:100D60005EDC8FE090E00E94C81080E058DC8FE1EC
:100D700090E00E94C810E7CF0F931F93EFE8FBE1CC
:100D8000A089B18982E08C93A485B5851C92A68543
:100D9000B78580E18C93108EA489B58986E08C9309
:100DA000A289B3898C9180618C93A289B3898C913B
:100DB00088608C93A289B3898C9180688C93028817
:100DC000F389E02D80818F7D808310E000E021E0B9
:100DD00040EA50E063E472E087E597E00E94B413D4
:100DE0001F910F9108950F931F9310E000E021E0F1
:100DF00040E850E06BE472E088E896E00E94B413AB
:100E00001F910F9108950F931F938091B4049091B7
:100E1000B504009711F00E94D9108FE190E00E9474
:100E2000C81004EB14E021E040EA50E063E572E012
:100E300082E297E00E94B41386E090E01F910F9148
:100E40000C94C8100F931F938091B2049091B30437
:100E5000009711F00E94D9108FE190E00E94C81015
:100E600002EB14E021E040EA50E069E572E083E043
:100E700097E00E94B41386E090E00E94C810809131
:100E8000B4049091B5041F910F910C94D9100F9355
:100E90001F9304EB14E022E040EA50E063E572E0C7
:100EA00082E297E00E94B4131F910F910895CF93AF
:100EB000DF93CDB7DEB768970FB6F894DEBF0FBEED
:100EC000CDBF8FE592E0E9DDF4DD8FE89BE12BDD1E
:100ED0004BE4642E44E0742E8FE89BE19DDC892B6B
:100EE00009F4ADC2E090B606F090B706E11484E0D4
:100EF000F8060CF054C08FE89BE16CDC89831A8201
:100F00000091361C1091371C0F5F1F4FB80182E310
:100F10009CE146DE882399F02091321C3091331CED
:100F20008091361C9091371CBE016F5F7F4F820FFE
:100F3000931F0E9490181093371C0093361CC70112
:100F400001969093B7068093B606C701F0DBFC01CB
:100F50008081082E000C990BE2DCE090B606F09040
:100F6000B706870101501109C801E1DBFC0180814E
:100F70008A3009F580E893E084DD65E872E082E379
:100F80009CE1C0DD882389F162E873E082E39CE1A3
:100F900065DE8FDD1092B7061092B6069DCF1092D7
:100FA000B7061092B6068FE89BE1BDDC80E893E0BF
:100FB00068DD7FDDD2CFC801BADBFC0180818D30D6
:100FC000C9F2C801B4DBFC0180818F3709F084CFFE
:100FD000F2E0EF16F1040CF0F8C18FE89BE1A3DC1E
:100FE0008DE090E09CDC65DD77CF61E873E082E323
:100FF0009CE188DD8111C8CF66E872E082E39CE164
:1010000081DD8111C1CF8091361C9091371C892BD5
:1010100009F484C0C090321CD090331C60E270E0B0
:10102000C6010E947C187C01EC18FD08892B19F47C
:10103000EE24EA94FE2C6DE070E0C6010E947C185C
:10104000009729F08C010C191D0917FF0CC06AE0EC
:1010500070E0C6010E947C188C010C191D09892BB7
:1010600011F40FEF1FEFCE014396ECDDCE010D968C
:10107000E9DDF7FC57C0A70170E060E0CE01019602
:10108000F6DDBE016F5F7F4FCE01439650DDCE018E
:10109000019630DDB7016F5F7F4FA801CE01019649
:1010A000E6DDBE016F5F7F4FCE010D9640DDCE01C4
:1010B000019620DD62E873E082E39CE1CFDD1092CF
:1010C000B7061092B60618861F821A8619861C86E5
:1010D0001B866D857E856115710529F049895A89C0
:1010E000CE01079685DD1A8219821C821B821E8220
:1010F0001D826B897C896115710529F04F89588D96
:10110000CE01019675DD68E872E0CE010196FADC49
:101110008823A1F08EE892E0CFDC3AC0EE24EA9476
:10112000FE2C9FCFA80170E060E0CE0101969FDD0C
:10113000BE016F5F7F4FCE014396B8CF60EB72E088
:10114000CE010196DFDC8111E5CF65EB72E0CE01C7
:101150000196D8DC882349F18DE090E0E0DB8AEB52
:1011600092E09BDC89EC92E098DC81EE92E095DCE9
:1011700087E093E092DC8BE393E08FDC8DE593E0F6
:101180008CDC8EE793E089DC83E893E086DC91DCFD
:10119000CE010196AFDCCE010796ACDCCE010D96F8
:1011A000A9DCCE014396A6DCF5CE6DEA73E0CE0154
:1011B0000196A8DC882309F4FAC08DE090E0AFDB4B
:1011C00083EB93E06ADC88EC93E067DC83EE93E0EA
:1011D00064DC81E194E061DC8FE394E052DCB12CCB
:1011E000A12C10E021E1422E83E494E04ADC11239B
:1011F00081F010E000E0A016B10631F087E494E041
:101200004CDC0F5F1F4FF7CF83E494E03ADCB12C46
:10121000A12C1092B60410918E1B80918E1B849D80
:10122000C00111240E94F6127C01892B09F457C0D9
:10123000EED180918E1B512C181708F445C010E098
:1012400000E0512CB8016E57744E41E050E0C701E8
:10125000549C800D911D1124ADD6580E09501109D2
:101260000C3DFFEF1F0771F76091381B7091391B20
:1012700042E050E0C701549C800D911D11249AD684
:10128000580E6091361B7091371B42E050E0C70149
:10129000549C800D911D11248DD6580E44E050E0D1
:1012A00063E47BE1C701549C800D911D112482D61B
:1012B000580E43E050E06AE37BE1C701549C800D87
:1012C000911D112477D6580EFDD36701312C96EB72
:1012D000892E94E0992E35100EC0C70128D7E6EB71
:1012E000F4E08191882309F451C08D30D1F78FEF5C
:1012F000A81AB80AF6CFF60185819681212C85308F
:10130000910520F48A5F9D4FFC012080F6016281E7
:101310007381C4010E949018F40101900020E9F744
:101320008F0101501109C80188199909F80109971D
:1013300048F11082F60184811F928F9380898F93E8
:1013400087858F9387811F928F93822D022C000CAB
:10135000990B9F932F927F926F921F930F930E94EE
:101360009718F80101900020E9F7CF0101974C018F
:10137000339491E1C90ED11C0FB6F894DEBF0FBEB5
:10138000CDBFA9CF80E281938F01CDCF86EB94E0D2
:1013900078DB8FE090E0FCD68FE89BE11BDA11E070
:1013A0004B9709F021CF80E893E06BDBF0CE6AE544
:1013B00074E0CE010196A6DB882321F0F0E0E0E0A6
:1013C0001995E6CE80E694E0A7CE8DE090E0A7DA0E
:1013D00070DBF12CE12C0091B6061091B706E016F7
:1013E000F1063CF480E290E09ADA8FEFE81AF80A0E
:1013F000F2CF8DE090E093DA780191E0E91AF108FC
:10140000C70165DB02301105ACF002501109C801BB
:101410005EDB1093B7060093B6064BDB4091361C9B
:101420005091371C6091321C7091331C8FE89BE106
:1014300095D952CDF092B706E092B606EECF7CD2A7
:101440004BCD1F920F920FB60F9211242F933F9303
:101450008F939F93AF93BF9380912B1B90912C1BE5
:10146000A0912D1BB0912E1B30912A1B23E0230F3E
:101470002D3758F50196A11DB11D20932A1B80938D
:101480002B1B90932C1BA0932D1BB0932E1B809194
:10149000261B9091271BA091281BB091291B019618
:1014A000A11DB11D8093261B9093271BA093281B81
:1014B000B093291BBF91AF919F918F913F912F9135
:1014C0000F900FBE0F901F90189526E8230F0296DD
:1014D000A11DB11DD2CF1F920F920FB60F921124F2
:1014E0000BB60F922F933F934F935F936F937F931E
:1014F0008F939F93AF93BF93EF93FF938FE89BE1FD
:10150000A0D9FF91EF91BF91AF919F918F917F9162
:101510006F915F914F913F912F910F900BBE0F9064
:101520000FBE0F901F9018951F920F920FB60F923B
:1015300011240BB60F922F938F939F93EF93FF93EA
:10154000E0919F1BF091A01B8081E091A51BF09181
:10155000A61B82FD1DC090818091A81B8F5F8F7399
:101560002091A91B821741F0E091A81BF0E0E15700
:10157000F44E958F8093A81BFF91EF919F918F91CF
:101580002F910F900BBE0F900FBE0F901F901895CC
:101590008081F2CFFC01DB010FB6F8940F924091ED
:1015A000321B5091331B2D913C9111972F3F3207E5
:1015B000E1F0818192816091341B7081761719F07E
:1015C00048175907C0F4481B590B4217530788F4B2
:1015D000241B350B2D933C938091341B8083809189
:1015E000321B9091331B9283818380E00F900FBE5A
:1015F00008951D921C9281E0F9CF0FB6F8940F92D6
:101600008091321B9091331B0F900FBE08958091F3
:101610002F1B8F5F80932F1B08950FB6F8940F92A6
:10162000FC01928D0F900FBE81E0911180E0089532
:10163000CF93DF939C01FB01DC011196CD91DC91EE
:10164000D383C2838C819D81958384838C819D818A
:10165000DC0113967C936E9312977D836C833187A4
:101660002087F90180818F5F8083DF91CF9108957A
:10167000CF93DF93FC01A085B18582819381248182
:101680003581EC013D832C83C481D5819B838A8382
:1016900011968D919C9112978E179F0721F41296A7
:1016A000DC93CE931197118610868C9181508C9388
:1016B0008C91DF91CF9108950F931F93CF93DF9378
:1016C000DC011596ED91FC91C681D7818E01045FF6
:1016D0001F4FC801CDDF80912F1B811123C00A50FD
:1016E0001109C801C5DF8E8990918B1B981710F4E2
:1016F00080938B1BB9E08B9FC0011124B8018959DD
:10170000944E96DFE091B004F091B1049E898689F1
:10171000891760F481E08093C71ADF91CF911F9100
:101720000F910895B8018CE49BE1EBCF80E0F5CFF9
:10173000EF92FF920F931F93CF93DF93EC010FB6BD
:10174000F8940F921E8D7C0181E1E80EF11C01E0FE
:101750001116D4F08FEF8E8F0F900FBE0FB6F89446
:101760000F921D8D7E0188E0E80EF11C01E011163C
:10177000ACF08FEF8D8F0F900FBEDF91CF911F9147
:101780000F91FF90EF9008958989882319F3C7017D
:1017900093DF81110093C71A1150DACF888588230F
:1017A00041F3C70189DF81110093C71A1150DFCFC0
:1017B0000F931F93CF93DF938C01FB018081918165
:1017C000D80113968F3F9807F1F4E801AF81B885EF
:1017D00012968D919C91139793838283EC01FD83E4
:1017E000EC83B583A4831396FC93EE931297118731
:1017F0000087F80180818F5F8083DF91CF911F91F7
:101800000F910895D90112962D913C911397E901FA
:101810004881598184179507A8F7DACFFC017383B3
:101820006283918780874617570788F0421B530BC6
:101830008485958548175907C0F4BF016E5F7F4FB7
:1018400080910A1B90910B1BB3DF80E00895421733
:10185000530718F46217730740F4BF016E5F7F4FA0
:1018600080910C1B90910D1BEFCF81E00895FF92AA
:101870000F931F93CF93DF93EC01F62E0091321B51
:101880001091331B8091B0049091B1040296F0DE68
:10189000CF3FDC0781F4FF2071F06091B0047091BC
:1018A000B1046E5F7F4F8AE39BE1DF91CF911F917F
:1018B0000F91FF90BDCEC00FD11FE091B004F09109
:1018C000B104D383C2836091B0047091B104C01796
:1018D000D10760F48091361B9091371B6E5F7F4F6C
:1018E000DF91CF911F910F91FF9062CF8091381BB4
:1018F0009091391B6E5F7F4F5BDF8091221B90912F
:10190000231BC817D90720F4D093231BC093221B95
:10191000DF91CF911F910F91FF900895FC010396E5
:10192000928381832FEF3FEF3483238396838583D4
:1019300090878783108208950F920FB6F8940F92C4
:101940000BB60F920CB60F921F9211242F923F925A
:101950004F925F926F927F928F929F92AF92BF92BF
:10196000CF92DF92EF92FF920F931F932F933F93AB
:101970004F935F936F937F938F939F93AF93BF9397
:10198000CF93DF93EF93FF93A091B004B091B10494
:101990000DB60D920EB60D9280912F1B882321F06B
:1019A00081E08093C71A5FC01092C71AA091B0045B
:1019B000B091B104E091B004F091B1042D913C914B
:1019C0008789908D82179307A8F08091B004909139
:1019D000B1048091B0049091B104279A2F9A2FEF0F
:1019E00087EA91E6215080409040E1F700C0000076
:1019F0001F9AF5CF20918B1B89E001C02150422F07
:101A000050E0849FF001859FF00D1124E959F44EB8
:101A10009081992399F3A181B28112960D90BC9186
:101A2000A02DB283A183289FC00111248659944E12
:101A3000A817B90729F412968D919C9192838183FE
:101A400089E0849FF001859FF00D1124E959F44E3F
:101A50000180F281E02D868197819093B10480937B
:101A6000B00420938B1BA091B004B091B104CD9130
:101A7000CDBFDD91DEBFFF91EF91DF91CF91BF919F
:101A8000AF919F918F917F916F915F914F913F9116
:101A90002F911F910F91FF90EF90DF90CF90BF900B
:101AA000AF909F908F907F906F905F904F903F90FE
:101AB0002F901F900F900CBE0F900BBE0F900FBE7B
:101AC0000F9008957F928F929F92AF92BF92CF9284
:101AD000DF92EF92FF920F931F93CF93DF930FB696
:101AE000F8940F9280912F1B815080932F1B80912F
:101AF0002F1B882389F080E00F900FBEDF91CF91DC
:101B00001F910F91FF90EF90DF90CF90BF90AF901B
:101B10009F908F907F90089580918E1B882359F31A
:101B2000D0E0C0E029E0F22EEE24E39426C0E0915C
:101B3000511BF091521BC681D781CE010C9698DDC6
:101B40008E010E5F1F4FC80193DD8E8990918B1B14
:101B5000981710F480938B1B8F9DC0011124B8013E
:101B60008959944E65DDE091B004F091B1049E89ED
:101B70008689981710F0E092C71A80914C1B81114A
:101B8000D6CFCD2B11F00E94E204E090C51AF09060
:101B9000C61AE114F10409F4ACC089E0A82E772438
:101BA0007394CC24CA94DC2C80912F1B81118FC09C
:101BB000C091321BD091331B2196D093331BC0931D
:101BC000321B2097B9F48091381B9091391B2091DA
:101BD000361B3091371B3093391B2093381B909361
:101BE000371B8093361B8091341B8F5F8093341B8F
:101BF0000E94E2048091221B9091231BB12CC817F4
:101C0000D90708F058C0E091B004F091B104E6891A
:101C1000AE9EF0011124E959F44E8081823010F01B
:101C2000BB24B3948091C71A811103C0BB2009F46F
:101C300057C07092C71A54C0E091381BF091391BFD
:101C40000580F681E02D06811781D80112968D91CD
:101C50009C91C817D90728F49093231B8093221BCB
:101C6000D2CF4801B2E08B0E911CC40101DDF80116
:101C700084899589892B19F0C8010C96F9DCD80163
:101C800056968C9190918B1B981710F480938B1B18
:101C90008A9DC0011124B4018959944EC9DCE09198
:101CA000B004F091B104D80156969C91868998179A
:101CB00010F0BB24B394E091381BF091391B808164
:101CC0008111BACFD092231BC092221B9CCF80914E
:101CD000C51A9091C61A01969093C61A8093C51A98
:101CE000B1E0EB1AF10809F05FCF1092C61A10921A
:101CF000C51A8091C71A882309F4FDCE1DDE81E044
:101D0000FBCEAF92BF92CF92DF92EF92FF920F93F2
:101D10001F93CF93DF9300D01F921F92CDB7DEB7F2
:101D20008C017B011D821C8280E0680128E0C20ECC
:101D3000D11C0FB6F8940F92F801228D938D2917BC
:101D400008F074C0D28C448D411156C080819181BD
:101D5000892B11F080E009C0E480F580E114F104E2
:101D600011F580E0F80115821482D394F801D28E27
:101D70009189992319F0C80141969EDC8111DCDD1F
:101D80000F900FBE81E00F900F900F900F900F906B
:101D9000DF91CF911F910F91FF90EF90DF90CF9047
:101DA000BF90AF900895F70186A1815086A3268940
:101DB00095A12917B1F28111D4CF5701F2E0AF0EEE
:101DC000B11CC50155DCF70185A1868B24E030E00C
:101DD000281B31093587248790918B1B981710F4A5
:101DE00080938B1BF9E08F9FC0011124B5018959A5
:101DF000944E1EDC81E0B6CF50E0B7018281938122
:101E00000E946C18F801848D22813381820F932FF8
:101E1000911D93838283248135818217930708F46F
:101E200099CF808191819383828394CF2C813D814E
:101E3000232B21F40F900FBE80E0A5CF811109C0A4
:101E40008091341B89838091321B9091331B9B833B
:101E50008A830F900FBEDBDB0FB6F8940F92F80168
:101E6000858D8F3F09F4158EF801868D8F3F09F41B
:101E7000168E0F900FBEBE016C5F7F4FCE01019694
:101E800089DB811123C00FB6F8940F92F801928D6F
:101E9000838D0F900FBE981315C0AC80BD806091EC
:101EA000B0047091B104645F7F4FC60181DC61E0D2
:101EB000C501DDDCC8013CDC05DE811101C03CDD73
:101EC00081E037CFC80134DCFDDDFACFC80130DC5A
:101ED000F9DDB2CFCF93DF9300D01F921F92CDB721
:101EE000DEB79C018091301B9091311B0097B1F0BF
:101EF00019827B836A833D832C8320918D1BBE01D5
:101F00006F5F7F4F211120912F1BFBDE0F900F90F1
:101F10000F900F900F90DF91CF91089580E0F6CF52
:101F2000EF92FF920F931F93CF93DF93E0910C1BDF
:101F3000F0910D1B8081811113C080910A1B90913B
:101F40000B1B90930D1B80930C1BF0930B1BE093CA
:101F50000A1BDF91CF911F910F91FF90EF90089591
:101F60000580F681E02D00811181C681D7817E0137
:101F700082E0E80EF11CC7017BDBE889F989CE011C
:101F800019958B8982FFD2CF8C859D85800F911FFB
:101F90000817190758F49B838A83D987C887B70124
:101FA00080910C1B90910D1B03DCC0CFB801CE01BA
:101FB00091DFBCCF2F923F924F925F926F927F92B0
:101FC0008F929F92AF92BF92CF92DF92EF92FF9249
:101FD0000F931F93CF93DF93EB012881312C2223A2
:101FE00009F478C0E981FA81228133813A83298317
:101FF0005B0163E0A60EB11C2A153B0521F42D817F
:102000003E813A8329837A013C01E981FA81468045
:102010005780312C81E1282EE981FA8182819381D8
:102020009A838983A816B90621F48D819E819A83AB
:102030008983E981FA81C680D7808301329C000DB3
:10204000111D11244601C114D10421F48090B00463
:102050009090B104D80111969C928E92C401499639
:1020600013969C938E931297F401868917968C93FE
:1020700017978789908D1E969C938E931D9783A1A9
:1020800014968C93149785A118968C93189719968B
:102090001D921D921D921C921C978091B0049091EC
:1020A000B1048816990651F516961C921E92159742
:1020B000D4015796ED91FC9180E090E0DC012191F4
:1020C000253A89F1F801908B878733944C145D048D
:1020D00009F0A2CF832DDF91CF911F910F91FF9037
:1020E000EF90DF90CF90BF90AF909F908F907F90B8
:1020F0006F905F904F903F902F900895F801F68277
:10210000E582F3E0EF16F10499F681DAD4015496F2
:102110008D919C91892B29F082E090E0F8019683C3
:102120008583D0DCC5CF0196A11DB11DC8CFCF934B
:10213000DF93009751F1EC0124972A813B81809134
:10214000BC1A9091BD1AA90148235923452BE9F0E7
:1021500048815981452BC9F480959095822393231A
:102160009B838A8354DA8091BA1A9091BB1A2A8190
:102170003B81820F931F9093BB1A8093BA1ACE01B2
:102180000E94FD04DF91CF919DCCDF91CF91089506
:10219000CF93DF93EC01892B21F4CEDBDF91CF913C
:1021A000089535DA60E0CE0162DB8CDC8823A9F388
:1021B000F5CF0F931F93CF93DF93EC010FB6F894F5
:1021C0000F92892B21F4C091B004D091B1048E01FB
:1021D0000E5F1F4FC8014CDA8C899D89892B19F03D
:1021E000CE010C9645DA80918C1B8F5F80938C1BFF
:1021F0008091B0049091B1048C179D07E1F4B8016F
:1022000083E49BE115DA8091C41A8F5F8093C41A2E
:102210000F900FBE80918D1B882341F08091B004F8
:102220009091B1048C179D0709F486DBDF91CF9163
:102230001F910F91089580918E1B815080938E1B6A
:102240008F89988D74DFCE0172DF0E94E204E0CFA7
:102250000F920FB6F8940F920BB60F920CB60F9226
:102260001F9211242F923F924F925F926F927F9212
:102270008F929F92AF92BF92CF92DF92EF92FF9296
:102280000F931F932F933F934F935F936F937F937E
:102290008F939F93AF93BF93CF93DF93EF93FF936E
:1022A000A091B004B091B1040DB60D920EB60D928E
:1022B00013BE80912F1B8111F6C08091321B90912B
:1022C000331B01969093331B8093321B009799F533
:1022D0002091381B3091391B4091361B5091371B90
:1022E0005093391B4093381B3093371B2093361B78
:1022F0002091341B2F5F2093341BE091381BF09109
:10230000391B2081211107C02FEF3FEF3093231B92
:102310002093221B10C0E091381BF091391B0580DF
:10232000F681E02D0680F781E02D22813381309304
:10233000231B2093221B2091221B3091231B8217E9
:10234000930710F420E09BC020E019E0E091381BD7
:10235000F091391B3081311107C08FEF9FEF9093BF
:10236000231B8093221B8BC0E091381BF091391BFB
:102370000580F681E02D0680F781E02D42815381B2
:102380008417950728F45093231B4093221B77C092
:10239000AF014E5F5F4FA285B38564817581E68092
:1023A000F780EB01FD82EC82C681D7817B836A8353
:1023B00011966D917C9112974617570721F412964A
:1023C000DC93CE931197138612863C9131503C9347
:1023D0003C91A489B5891097F9F066857785E088E6
:1023E000F188EB01FD82EC82C089D1897B836A830D
:1023F0001196ED90FC901297BF01645F7F4FE61637
:10240000F70621F41296DC93CE931197158A148A5D
:102410003C9131503C933C91A68930918B1B3A17EB
:1024200010F4A0938B1B1A9FD0011124BD01695990
:10243000744E7B01DB011196CD91DC91D583C48371
:102440006C817D81778366836C817D81DB0113964E
:102450005C934E9312975D834C83F386E286E7018B
:1024600038813F5F3883A091B004B091B1044689B0
:1024700056963C91431708F469CF21E067CFE0916D
:10248000B004F091B104E689D9E0ED9FF001112488
:10249000E959F44E8081823008F021E08091C71A1A
:1024A00081110EC00AC08091C51A9091C61A01967A
:1024B0009093C61A8093C51A6AC0222309F467C094
:1024C00080912F1B882321F081E08093C71A5FC081
:1024D0001092C71AA091B004B091B104E091B00479
:1024E000F091B1042D913C918789908D82179307CB
:1024F000A8F08091B0049091B1048091B0049091C3
:10250000B104279A2F9A2FEF67EA71E621506040B5
:102510007040E1F700C000001F9AF5CF20918B1B9F
:1025200089E001C02150422F50E0849FF001859F37
:10253000F00D1124E959F44E9081992399F3A1816A
:10254000B28112960D90BC91A02DB283A183289FD9
:10255000C00111248659944EA817B90729F4129680
:102560008D919C919283818389E0849FF001859F66
:10257000F00D1124E959F44E0180F281E02D86819D
:1025800097819093B1048093B00420938B1BA0910A
:10259000B004B091B104CD91CDBFDD91DEBFFF910C
:1025A000EF91DF91CF91BF91AF919F918F917F91EB
:1025B0006F915F914F913F912F911F910F91FF90DC
:1025C000EF90DF90CF90BF90AF909F908F907F90D3
:1025D0006F905F904F903F902F901F900F900CBE88
:1025E0000F900BBE0F900FBE0F900895CF92DF9209
:1025F000EF92FF920F931F93CF93DF93EC0107D8D5
:102600008091BE1A9091BF1A892B81F588EB96E0D4
:102610009093C11A8093C01A1092C31A1092C21AD2
:1026200024EB3AE13093BF1A2093BE1A1092B71AE6
:102630001092B61A1092B51A1092B41A8CEF93E158
:102640009093BB068093BA063093B9062093B806E0
:102650009093B91A8093B81A9093BB1A8093BA1AC0
:1026600080E090E89093BD1A8093BC1AC090BC1A89
:10267000D090BD1AC6018C239D23892B71F022DADC
:10268000279A2F9AFFEF20E782E0F1502040804008
:10269000E1F700C000001F9AF5CF209781F39E015B
:1026A0002C5F3F4F61F30091BA1A1091BB1AC09191
:1026B000C01AD091C11AE0ECFAE102171307F8F240
:1026C0004A815B814217530728F4888199810097DA
:1026D00009F047C08091BE1A9091BF1A8C179D07D0
:1026E00071F2E080F18084E0E80EF11C888199812C
:1026F00091838083421B530B4930510550F0CE012A
:10270000820F931FFC01538342833B832A830E94E1
:10271000FD042A813B81021B130B1093BB1A00930B
:10272000BA1A4091B81A5091B91A0417150720F433
:102730001093B91A0093B81AC22AD32ADB82CA822C
:1027400019821882BFD9E114F10409F499CFC701A5
:10275000DF91CF911F910F91FF90EF90DF90CF907D
:102760000895FE01EC01ACCF7F928F929F92AF92C1
:10277000BF92CF92DF92EF92FF920F931F93CF936E
:10278000DF93982EA92E762E872E7A01B22ECA01BB
:102790002DDF6C01892B09F4CAC08CE290E026DFA2
:1027A000EC01892B09F4C1C0D88ECF8AA70165EA54
:1027B00070E0C6019AD421E0E21AF108EF89F88DA1
:1027C000EE0DFF1D672D782DCE0149969B01265FEA
:1027D0003F4FDB014D91BD01DC014D93CD01AB01BC
:1027E00041505109DA014C91442319F062177307E3
:1027F00081F71AA2BE8ABDA21EA21B861A861D8A56
:102800001C8AD987C88784E090E08B1991099D873D
:102810008C87DB8BCA8B1FA218A619A61AA61BA62B
:102820009082DF011197AC9211971C9211971C9224
:10283000119780E88C9311971C9211971C92119715
:102840001C9257971C9211971C92B697F983E883B4
:102850000115110519F0F801D183C0830FB6F89462
:102860000F9280918E1B8F5F80938E1B8091B0049E
:102870009091B104892B09F069C0D093B104C09341
:10288000B00480918E1B813039F587E69BE146D8F4
:1028900080E79BE143D889E79BE140D882E89BE150
:1028A0003DD88EE59BE13AD885E59BE137D88CE4AD
:1028B0009BE134D883E49BE131D88AE39BE12ED8B5
:1028C0008EE59BE19093391B8093381B85E59BE156
:1028D0009093371B8093361B80918C1B8F5F809366
:1028E0008C1B8BA38E8990918B1B981710F480936F
:1028F0008B1BF9E08F9FC0011124BE016E5F7F4FDB
:102900008959944E0E94180B0F900FBE80918D1B19
:10291000882349F0E091B004F091B10496898E8942
:10292000981708F409D881E003C0C60100DC8FEFD6
:10293000DF91CF911F910F91FF90EF90DF90CF909B
:10294000BF90AF909F908F907F90089580918D1B46
:102950008111C2CFE091B004F091B1049E898689C3
:10296000981708F4B9CFD093B104C093B004B4CF92
:102970006FDC1895EFE8FBE11382128288EE93E09A
:10298000A0E0B0E084839583A683B7838FE092E0D4
:102990009183808385EC90E09587848784EC90E038
:1029A0009787868780EC90E0918B808B81EC90E01C
:1029B000938B828B82EC90E0958B848B86EC90E0FD
:1029C000978B868B118E128E138E148E82E39CE170
:1029D0000E9422068CE29CE10C942206789484B535
:1029E000826084BD84B5816084BD85B5826085BD0B
:1029F00085B5816085BD80916E00816080936E0099
:102A0000109281008091810082608093810080918A
:102A1000810081608093810080918000816080933B
:102A200080008091B10084608093B1008091B000FB
:102A300081608093B00080919100826080939100CA
:102A400080919100816080939100809190008160DD
:102A5000809390008091A10082608093A10080917A
:102A6000A10081608093A1008091A000816080938B
:102A7000A000809121018260809321018091210139
:102A800081608093210180912001816080932001E9
:102A900080917A00846080937A0080917A008260CD
:102AA00080937A0080917A00816080937A0080918F
:102AB0007A00806880937A001092C100209104020D
:102AC000309105028FEF91E2821B930B90930102EC
:102AD000809300020E94BC060E94F3060E944707F2
:102AE00004E21BE120E040E850E06EE974E08EEA89
:102AF00092E03ADE813009F0CEC00FB6F8940F9222
:102B00008091301B9091311B892B09F067C087E1C0
:102B10009BE10E948E0C8EE09BE10E948E0C87E16F
:102B20009BE190930D1B80930C1B8EE09BE1909397
:102B30000B1B80930A1B83E590E058DDEC010097A6
:102B400089F18196998388838AE08B8F85E08C8FC9
:102B50000FB6F8940F92888199812B8D4C8DBC0112
:102B6000249F600D711D11247D836C831A8E9B83BD
:102B70008A832150330B429FB001439F700D112473
:102B8000860F971F9F838E838FEF8D8F8E8FCE0141
:102B900008960E948E0CCE0141960E948E0C0F90DA
:102BA0000FBE18A2D093311BC093301B2097B1F0F9
:102BB000EAECFAE190E080E020813181232B09F0FA
:102BC00073C0880F991F880F991FFC01E653F54EBB
:102BD00083EA94E091838083D383C2830F900FBEF6
:102BE0008091301B9091311B892B09F454C000E275
:102BF0001BE123E045E550E068EA74E085EF90E0F2
:102C0000B3DD813009F047C0F8942FEF3FEF3093E8
:102C1000231B2093221B80938D1B1092331B109239
:102C2000321BA89588E190EC0FB6F894A895809394
:102C300060000FBE90936000A091B004B091B10409
:102C4000CD91CDBFDD91DEBFFF91EF91DF91CF91AF
:102C5000BF91AF919F918F917F916F915F914F91B4
:102C60003F912F911F910F91FF90EF90DF90CF90A8
:102C7000BF90AF909F908F907F906F905F904F909C
:102C80003F902F901F900F900CBE0F900BBE0F9097
:102C90000FBE0F9008950E94BC060E94F3060E948A
:102CA00047070E94B204FDCF01963496803191050A
:102CB00009F082CF93CF8CE29CE10E947A0582E3F7
:102CC0009CE10C947A050F931F93CF93DF9382308E
:102CD000910510F482E090E0E0913A1CF0913B1CE9
:102CE00030E020E0B0E0A0E0309799F42115310504
:102CF00009F44AC0281B390B24303105D8F58A81E4
:102D00009B816115710589F1FB0193838283FE012B
:102D100011C0408151810281138148175907E0F0A9
:102D20004817590799F4109761F012960C9312976F
:102D300013961C933296CF01DF91CF911F910F9183
:102D4000089500933A1C10933B1CF4CF21153105D4
:102D500051F04217530738F0A901DB019A01BD0178
:102D6000DF01F801C1CFEF01F9CF90933B1C8093B5
:102D70003A1CCDCFFE01E20FF31F819391932250B5
:102D8000310939832883D7CF2091381C3091391CE1
:102D9000232B41F420910202309103023093391C1D
:102DA0002093381C20910002309101022115310539
:102DB00041F42DB73EB74091040250910502241B07
:102DC000350BE091381CF091391CE217F307A0F4A1
:102DD0002E1B3F0B2817390778F0AC014E5F5F4F71
:102DE0002417350748F04E0F5F1F5093391C40934E
:102DF000381C819391939FCFF0E0E0E09CCFCF937C
:102E0000DF930097E9F0FC01329713821282A091C0
:102E10003A1CB0913B1CED0130E020E01097A1F48A
:102E200020813181820F931F2091381C3091391CF1
:102E30002817390709F061C0F093391CE093381C5A
:102E4000DF91CF910895EA01CE17DF07E8F54A81B7
:102E50005B819E0141155105B1F7E901FB83EA83CE
:102E600049915991C40FD51FEC17FD0761F480817A
:102E700091810296840F951FE9019983888382814D
:102E800093819B838A83F0E0E0E012968D919C9180
:102E900013970097B9F52D913C911197CD010296AA
:102EA000820F931F2091381C3091391C2817390745
:102EB00039F6309751F510923B1C10923A1CB093A2
:102EC000391CA093381CBCCFD383C283408151816D
:102ED000840F951FC817D90761F44E5F5F4F888133
:102EE0009981480F591F518340838A819B81938325
:102EF00082832115310509F0B0CFF0933B1CE0939C
:102F00003A1C9ECFFD01DC01C0CF13821282D7CFC5
:102F1000EE0FFF1F881F8BBF0790F691E02D1994CD
:102F20004F925F926F927F928F929F92AF92BF92D9
:102F3000CF92DF92EF92FF920F931F93CF93DF9385
:102F40008C01009791F4CB01DF91CF911F910F91EC
:102F5000FF90EF90DF90CF90BF90AF909F908F90B9
:102F60007F906F905F904F90AECEFC01E60FF71F01
:102F70009C0122503109E217F30708F4AAC0D901D5
:102F8000CD91DC911197C617D70718F1C530D1053F
:102F900070F0CE0104978617970748F0C61BD70B31
:102FA0002297C193D1936D937C93CF0128DFC80101
:102FB000DF91CF911F910F91FF90EF90DF90CF9015
:102FC000BF90AF909F908F907F906F905F904F9049
:102FD00008955B01AC1ABD0A4C018C0E9D1EA09198
:102FE0003A1CB0913B1C512C412CF12CE12C109738
:102FF00031F58091381C9091391C8815990509F09C
:103000005CC04616570608F058C0809100029091A7
:103010000102009741F48DB79EB740910402509190
:103020000502841B950BE817F90708F052C0F093CE
:10303000391CE093381CF90171836083B8CF8D91FE
:103040009C91119712966C90129713967C901397FF
:10305000A815B90559F56C0142E0C40ED11CCA147B
:10306000DB0420F1AC014A195B09DA0112961597CD
:1030700080F06282738251834083D9016D937C9387
:10308000E114F10471F0D7011396FC93EE931297BB
:103090008ECF22968C0F9D1FF90191838083F301BF
:1030A000EFCFF0933B1CE0933A1C81CF48165906B2
:1030B00008F42C017D01D3019ACFCB0104DE7C0101
:1030C000009739F0AE01B80107D0C80198DE87013A
:1030D0006ECF10E000E06BCFFB01DC0102C001907D
:1030E0000D9241505040D8F70895DC0101C06D9316
:1030F00041505040E0F70895FC018191861721F07E
:103100008823D9F7992708953197CF010895FB01B6
:10311000DC018D91019080190110D9F3990B08956C
:10312000FB01DC0101900D920020E1F708950F935F
:103130001F93CF93DF93CDB7DEB72E970FB6F894DA
:10314000DEBF0FBECDBF0E891F8986E08C831A8338
:1031500009838FEF9FE79E838D83AE01465E5F4FAD
:10316000688D798DCE01019611D02F813885020F9F
:10317000131FF80110822E960FB6F894DEBF0FBE13
:10318000CDBFDF91CF911F910F9108952F923F9264
:103190004F925F926F927F928F929F92AF92BF9267
:1031A000CF92DF92EF92FF920F931F93CF93DF9313
:1031B00000D000D000D01F921F92CDB7DEB77C01A7
:1031C0003B018A01FC0117821682838181FFD0C1F5
:1031D000CE0101965C01F7019381F30193FD859186
:1031E00093FF81913F01882309F449C1853239F465
:1031F00093FD859193FF81913F01853221F4B701C1
:1032000090E0CFD1E8CF912C212C312CFFE1F315A8
:1032100038F08B3211F190F4803209F1833229F1C8
:1032200037FC3CC020ED280F2A3050F536FE20C078
:103230008AE0989E200D1124922E06C08D3291F0C6
:10324000803371F7689430F8F30193FD859193FF13
:1032500081913F018111DACF21C0689431F86894DF
:1032600032F8F2CF689433F8EFCF689434F8ECCFAB
:10327000EAE02E9E200D1124222E689435F8E4CF2A
:103280008E3229F436FCFBC0689436F8DDCF8C36DC
:1032900019F4689437F8D8CF8836B1F2982F9F7D0B
:1032A00095549330D8F0833691F18337B1F183355B
:1032B00009F05EC02801F2E04F0E511CF801C080F9
:1032C000D180692D70E036FC02C06FEF7FEFC60140
:1032D00052D14C01689437F882010AC00C5F1F4F2D
:1032E000FFE3F98388248394912C6501E89437F8EF
:1032F00033FE2AC0522C8114910459F5552009F44B
:103300006ACFB70180E290E04CD15A94F7CFF80130
:10331000808189830E5F1F4FE5CF2801F2E04F0EB9
:10332000511CF801C080D180692D70E036FC02C0CC
:103330006FEF7FEFC6012AD14C018201D7CFB701D1
:1033400080E290E02ED12A942814190409F0B8F7ED
:10335000D1CFF60137FC859137FE81916F01B7011E
:1033600090E01FD151105A94F1E08F1A9108C3CF09
:10337000843619F0893609F073C0F80137FE67C04A
:1033800060817181828193810C5F1F4FF32DFF76E5
:103390003F2E97FF09C090958095709561957F4F5E
:1033A0008F4F9F4F689437F82AE030E0A50129D16C
:1033B000C82ECA188C2C432C36FE0CC0E89440F85A
:1033C000C91440F434FE05C032FC03C0F32DFE7E68
:1033D0004F2E892C44FEA6C0FE01EC0DF11D80810C
:1033E000803309F098C0242D297E422E842D8870C8
:1033F000582E43FCA5C040FE9FC09C2C821418F49C
:103400002C0C922C981844FEA1C0B70180E390E0E8
:10341000C8D042FE08C088E790E041FE02C088E5BF
:1034200090E0B701BED0C91408F49CC0CA94D12C56
:103430009FEFC91AD90ACA0CDB1CF60182916F01F1
:10344000B70190E0AED0AC14BD04B9F757CF60819E
:103450007181072E000C880B990B0E5F1F4F96CFC2
:10346000D32CE894D4F82AE030E08537E1F1232D1D
:10347000297FD22E8F36A9F1F0F4883551F1F7016A
:10348000868197812B960FB6F894DEBF0FBECDBF15
:10349000DF91CF911F910F91FF90EF90DF90CF9030
:1034A000BF90AF909F908F907F906F905F904F9064
:1034B0003F902F900895803749F0883701F7D4FE68
:1034C00002C06894D2F820E130E00DC06894D4F8CE
:1034D000F6CF34FE03C0822F8660D82E20E132E082
:1034E00002C028E030E0F801D7FE0EC06081718193
:1034F000828193810C5F1F4FA50183D0C82ECA180B
:103500003D2CE89437F856CF6081718190E080E0DF
:103510000E5F1F4FF1CF42FC02C0839467CF8394AC
:10352000839464CF842D867809F460CFF6CFB701F9
:1035300080E290E036D083948214C8F3512C63CF9C
:10354000522C5818821408F45ECFF8CF842D867858
:1035500009F469CF8BE241FE80E247FC8DE2B701BE
:1035600090E060CFB70180E390E01BD09A945BCFEE
:103570008FEF9FEF87CFFC010590615070400110E5
:10358000D8F7809590958E0F9F1F0895FC0161508C
:10359000704001900110D8F7809590958E0F9F1F75
:1035A00008950F931F93CF93DF93182F092FEB01EB
:1035B0008B8181FD09C01FEF0FEF812F902FDF91CD
:1035C000CF911F910F91089582FF14C02E813F81EA
:1035D0008C819D81281739073CF4E881F981CF015E
:1035E00001969983888310838E819F8101969F83A2
:1035F0008E83E3CFE885F985812F1995892BA1F377
:10360000DACFFA01AA27283051F1203181F1E8946C
:103610006F936E7F6E5F7F4F8F4F9F4FAF4FB1E0C5
:103620003ED0B4E03CD0670F781F891F9A1FA11DC0
:10363000680F791F8A1F911DA11D6A0F711D811DC1
:10364000911DA11D20D009F468943F912AE0269F86
:1036500011243019305D3193DEF6CF010895462FE5
:103660004770405D4193B3E00FD0C9F7F6CF462FC6
:103670004F70405D4A3318F0495D31FD405241932F
:1036800002D0A9F7EACFB4E0A695979587957795EC
:103690006795BA95C9F700976105710508959B0173
:1036A000AC010A2E06945795479537952795BA95FC
:1036B000C9F7620F731F841F951FA01D089512E0A4
:1036C000CCEDD2E000E005C0802FFE0121DC219688
:1036D000011DCD3DD10780E00807B1F7F894FFCF79
:1036E00000003C1C8000585242534400000000433C
:1036F00004AE03DB0393040C04EA03FE031B5B33F9
:10370000326D61746D65676140414B2D41544D30A0
:10371000301B5B306D3A1B5B33346D7E1B5B306D51
:1037200024200052585F5461736B004C65645461EF
:10373000736B005461736B31005461736B32001B07
:103740005B316D1B5B33326D53657269616C20496F
:103750006E746572666163652072656164792021AB
:103760001B5B306D000A0D007374617274001B5B8B
:10377000316D1B5B33316D4E4F5420494D504C45DC
:103780004D454E544544204A4554211B5B306D0045
:1037900073746F700068656C7000202020202020FA
:1037A000202048656C700D0A0020202020417661A1
:1037B000696C61626C6520436F6D6D616E64733A14
:1037C0000020202020202020207265736574202096
:1037D000202D3E2020726573657420746865204139
:1037E000726475696E6F00202020202020202074D4
:1037F00061736B732020202D3E20204C6973742050
:10380000746865207461736B7320616E64207468E2
:103810006F7365207374617465730020202020200D
:1038200020202073746172742020202D3E2020738C
:1038300074617274732061207461736B00202020A6
:10384000202020202073746F70202020202D3E2007
:103850002073746F70732061207461736B000D0AA4
:103860000D0A0053796E7461782053747275637415
:103870007572653A203C636F6D6D616E643E203CED
:10388000706172616D657465723E0D0A00746173DA
:103890006B73000D0A202020202020205461736BC0
:1038A000204C6973740D0A0020202020507265732B
:1038B0007320274553432720746F2045786974216E
:1038C0000D0A0020204E616D6520202020207C20E4
:1038D0005374617465207C205072696F72697479C9
:1038E000207C20537461636B207C204E756D207C9E
:1038F000002D2D2D2D2D2D2D2D2D2D2D2D2D2D2D25
:103900002D2D2D2D2D2D2D2D2D2D2D2D2D2D2D2DE7
:103910002D2D2D2D2D2D2D2D2D2D2D2D2D2D001B16
:103920005B73001B5B75001B5B4B0009256309255E
:10393000750925750925750D0A0072657365740092
:103940001B5B316D1B5B33316D496E76616C696455
:1039500020636F6D6D616E642120747970652069DC
:103960006E202768656C702720666F72206D6F72FD
:103970006520696E666F211B5B306D0D0A0049443E
:103980004C4500546D725100546D722053766300A3
:00000001FF
