:10000000E9C2000018C3000016C3000014C30000BA
:1000100012C3000010C300000EC300000CC3000098
:100020000AC3000008C3000006C3000004C30000A8
:100030000C94221900C30000FEC20000FCC20000A4
:10004000FAC20000F8C20000F6C20000F4C20000CC
:10005000F2C20000F0C20000EEC200000C94D90E03
:10006000EAC200000C944D0F0C94230FE4C2000070
:10007000E2C20000E0C20000DEC20000DCC20000FC
:10008000DAC20000D8C20000D6C20000D4C200000C
:10009000D2C20000D0C20000CEC20000CCC200001C
:1000A000CAC20000C8C20000C6C20000C4C200002C
:1000B000C2C20000C0C20000BEC20000BCC200003C
:1000C000BAC20000B8C20000B6C20000B4C200004C
:1000D000B2C20000B0C20000AEC20000ACC200005C
:1000E000AAC2000000002100240027002A002D00E1
:1000F0003000330001010000040107010A01000083
:100100002200250028002B002E00310034000201BF
:100110000000050108010B0100002000230026005B
:1001200029002C002F00320000010000030106010D
:10013000090105050505070508080808020202026D
:100140000A0A080804040404010101010101010173
:100150000303030303030303040707070C0C0C0C3E
:100160000C0C0C0C02020202060606060606060627
:100170000B0B0B0B0B0B0B0B0102102020080810B4
:100180002040102040800201020108040201010207
:1001900004081020408080402010080402018004E0
:1001A000020180402010080402010804020101023B
:1001B0000408102040800102040810204080000044
:1001C0000A0B02090C0D0E080703040100000000D1
:1001D000000000000000000000000000000000001F
:1001E00000000000000000000000121110000000DC
:1001F00000000000000000000000000000000000FF
:1002000000000000CF93DF9300D000D000D01F92F9
:10021000CDB7DEB7E091AB1FF091AC1FF08010E0DE
:1002200000E0FF2029F00580F681E02D008111819A
:100230000E94C00F0E94B60F6C018091671F9091C1
:10024000681FC816D90608F07EC00E944914D092D3
:10025000681FC092671F0E941B120091CF1F109150
:10026000D01F1A86198680E06801B1E1CB0ED11C3F
:100270000FB6F8940F92F801F28CFF2009F41AC11E
:10028000448D4423C1F050E086819781840F951FEF
:1002900097838683248135818217930720F080819C
:1002A000918197838683D80116966D917C91CE01BA
:1002B00001960E945A1DFA94F801F28E80858823D7
:1002C00039F0C80108960E94151081110E9455113D
:1002D0000F900FBED980D7FCC0CF0C811D81D801F3
:1002E0001A968D919C91892B21F0C80102960E944B
:1002F000F10F0E94B60F7C018091671F9091681FDB
:10030000E816F90610F40E944914F092681FE09272
:10031000671FB9E0BD1508F4A0CFED2DDD0CFF0B74
:10032000D80153969C918827E756FE4F8F4F0C9427
:100330006E1C1D021D021D02550240024F021D02CD
:100340001D0255024002D092681FC092671FFF2015
:1003500099F1C016D106C0F10E941B12E091AB1FAB
:10036000F091AC1F0580F681E02DE680F780C70193
:1003700002960E94F10FD70153968C91539782FFFA
:1003800017C01C966D917C91600F711F9801A6019A
:10039000C7010E94C710882321F0B801C7010E943D
:1003A0002314D7015096ED91FC91C701199555CFB3
:1003B0008E7FF701838BF5CFE091A91FF091AA1FE3
:1003C0008081BB24B3948111B12CE090CF1FF090B9
:1003D000D01F0FB6F8940F92F701858D8F3F09F467
:1003E000158ED7015E968C915E978F3F11F45E96C5
:1003F0001C920F900FBEF701828D811114C0609185
:10040000520970915309645F7F4FC70141960E9462
:10041000D10FC8018C199D09BB2011F08FEF9FEF00
:100420006B2D0E94F010C7010E9451100E941B12F8
:10043000811113CF0E94551110CF9160F801938B59
:10044000CA80DB80648575856C0D7D1D9601A701D2
:10045000C8010E94C710882309F4FFCED801509626
:10046000ED91FC91C8011995F801838982FFF5CEC1
:10047000648575856C0D7D1DC8010E942314EDCE29
:100480009160F801938B6A817B81758764876E0D1B
:100490007F1D9701A701C8010E94C710DECE91FD04
:1004A00004C0C8010E945015D8CE9E7FD801539633
:1004B0009C93D3CE29853A85232B19F40F900FBE38
:1004C000A9CE811109C08091D31F8E838091D11F45
:1004D0009091D21F98878F830F900FBE0E94C00FFC
:1004E0000FB6F8940F92D8015D968C915D978F3F6F
:1004F00011F45D961C92F801868D8F3F09F4168EDB
:100500000F900FBEBE01675F7F4FCE0106960E941F
:10051000830F811125C0C8010E94C60F8823D1F026
:10052000E984FA846091520970915309645F7F4FA6
:10053000C6010E94911061E0C7010E94F010C8013D
:100540000E9451100E941B12811102C00E9455117D
:1005500081E08ECEC8010E9451100E941B12F8CF7C
:10056000C8010E9451100E941B12C8010E94C60FB0
:10057000882371F34FCE8091631F811108C0809151
:100580000520823010F00E94551163D1F4CF0FB6D0
:10059000F8940F92E091E61FF091E71FC681D78192
:1005A000CE0102960E94F10F80912C208150809301
:1005B0002C208091631F81508093631F0F900FBE8A
:1005C0008F89988D0E945015CE010E945015D3CF6F
:1005D0003819241911241FBECFEFD1E2DEBFCDBFE1
:1005E00000E00CBF19E0A0E0B2E0EEE0F1E400E0D2
:1005F0000BBF02C007900D92A235B107D9F720E2D8
:10060000A2E5B9E001C01D92A33FB207E1F712E0F5
:10061000C9EED2E000E006C021970109802FFE015B
:100620000E946E1CC83ED10780E00807A9F70E940F
:10063000A1190C947620E4CC0895AF92BF92CF928A
:10064000DF92EF92FF920F931F93CF93DF936C0192
:100650007B018B01040F151FEB015E01AE18BF0873
:10066000C017D10759F06991D601ED91FC91019025
:10067000F081E02DC6011995892B79F7C501DF912D
:10068000CF911F910F91FF90EF90DF90CF90BF908F
:10069000AF900895FC0144815581608171818DE2A4
:1006A00090E2CBCFFC01538D448D252F30E0842F79
:1006B00090E0821B930B541710F0CF96089501978A
:1006C0000895FC01918D828D981761F0A28DAE0F77
:1006D000BF2FB11D5D968C91928D9F5F9F73928FFE
:1006E00090E008958FEF9FEF0895FC01918D828D2A
:1006F000981731F0828DE80FF11D858D90E00895F7
:100700008FEF9FEF0895FC01918D228D892F90E04E
:10071000805C9F4F821B91098F73992708958DE20A
:1007200090E2F1DF21E0892B09F420E0822F089587
:10073000FC01A48DA80FB92FB11DA35ABF4F2C9156
:10074000848D90E001968F739927848FA689B7894D
:100750002C93A089B1898C91837080648C93938D44
:10076000848D981306C00288F389E02D80818F7DE7
:1007700080830895EF92FF920F931F93CF93DF939F
:10078000EC0181E0888F9B8D8C8D98131AC0E889CD
:10079000F989808185FF15C09FB7F894EE89FF899C
:1007A0006083E889F98980818370806480839FBF3A
:1007B00081E090E0DF91CF911F910F91FF90EF903A
:1007C0000895F62E0B8D10E00F5F1F4F0F7311274A
:1007D000E02E8C8D8E110BC00FB607FCFACFE88986
:1007E000F989808185FFF5CFCE01A2DFF2CFEB8DB5
:1007F000EC0FFD2FF11DE35AFF4FF0829FB7F894E5
:100800000B8FEA89FB8980818062D0CF682F8DE2CF
:1008100090E2B0CFCF93DF93EC01888D8823B1F0C5
:10082000AA89BB89E889F9898C9185FD03C08081FB
:1008300086FD0CC00FB607FCF7CF8C9185FFF2CF79
:10084000808185FFEDCFCE0173DFEACFDF91CF91BD
:10085000089580E090E0892B21F061DF81110E94F2
:10086000000080E090E0892B49F080E090E0892B47
:1008700029F00E94000081110E94000080E090E0B9
:10088000892B49F080E090E0892B29F00E9400003C
:1008900081110E94000080E090E0892B49F080E007
:1008A00090E0892B29F00E94000081110C94000037
:1008B00008958150823108F05AC0E82FF0E088276F
:1008C000EB59FB4F8F4F0C946E1C85048904770401
:1008D0007D048104B7048C04920496049C04A00453
:1008E000A404AA04AE04B704B204B804BC04809102
:1008F00080008F77809380000895809180008F7DA5
:10090000F9CF80918000877FF5CF84B58F7784BD44
:10091000089584B58F7DFBCF8091B0008F77809351
:10092000B00008958091B0008F7DF9CF8091900044
:100930008F77809390000895809190008F7DF9CFFC
:1009400080919000877FF5CF8091A0008F77809372
:10095000A00008958091A0008F7DF9CF8091A00024
:10096000877FF5CF809120018F77809320010895B4
:10097000809120018F7DF9CF80912001877FF5CF75
:10098000CF93DF93282F30E0F901E254FE4F84919A
:10099000F901E858FE4FD491F901EE5CFE4FC49185
:1009A000CC2399F0811185DFEC2FF0E0EE0FFF1FD3
:1009B000E85EFE4FA591B491EC91ED2381E090E0CB
:1009C00009F480E0DF91CF91089580E090E0FACFC4
:1009D0001F93CF93DF93282F30E0F901E254FE4FAD
:1009E0008491F901E858FE4FD491F901EE5CFE4F75
:1009F000C491CC23A1F0162F81115BDFEC2FF0E026
:100A0000EE0FFF1FE250FF4FA591B4918FB7F894FE
:100A1000EC91111108C0D095DE23DC938FBFDF91DC
:100A2000CF911F910895DE2BF8CFCF93DF9390E005
:100A3000FC01E858FE4F24918E5C9E4FFC0184918E
:100A40008823C9F090E0880F991FFC01EC51FF4FFB
:100A5000A591B491FC01E250FF4FC591D491611171
:100A60000DC09FB7F8948C91209582238C93888138
:100A7000282328839FBFDF91CF910895623051F4DE
:100A80009FB7F8943C91822F809583238C93E881C3
:100A90002E2BEFCF8FB7F894EC912E2B2C938FBF8A
:100AA000EACFE091D61FF091D71F8081811107C056
:100AB0008FEF9FEF9093C21F8093C11F0895E09125
:100AC000D61FF091D71F0580F681E02D0680F781B3
:100AD000E02D82819381EECFCF93DF93FC01AFE5D0
:100AE000BFE1CD91DC911197CE17DF07A0F11296EF
:100AF0002D913C911397CD01820F931FE817F907B1
:100B000049F482819381820F931F13969C938E9355
:100B10001297FD0122813381CF01820F931FC817E5
:100B2000D907D9F480915D1F90915E1FC817D9072E
:100B3000A1F08A819B81820F931F93838283888196
:100B4000998191838083EA17FB0711F0ED93FC9361
:100B5000DF91CF910895DE01C4CFD183C083F3CF5D
:100B60000F931F93CF93DF93C82F60E08091CA202B
:100B70002FDFC093D0201091CE200091CC20D8E060
:100B80006C2F661F6627661F802F22DFCC0F61E067
:100B9000812F1EDF60E0812F1BDFD15089F761E0DC
:100BA0008091CA20DF91CF911F910F9111CFFC014D
:100BB00001900020E9F73197AF01481B590BBC01A8
:100BC0008DE290E23ACD88E196E0F1CFCF93DF93CA
:100BD00061DDEC01F8DF8C0F9D1FDF91CF9108954F
:100BE000CF93DF93E4DFEC01EEDF8C0F9D1FDF91ED
:100BF000CF9108958DE192E0DACFCF93DF93EC01AE
:100C00008DE090E003DECE01EBDFDF91CF91F2CFFC
:100C1000CF93DF93CDB7DEB7D2500FB6F894DEBFD7
:100C20000FBECDBFAE01465F5D4FC85FDD4F68812F
:100C30007981C850D240CE0101960E94B41DAC010A
:100C4000BE016F5F7F4F8DE290E2F7DCDE5F0FB693
:100C5000F894DEBF0FBECDBFDF91CF9108952091F4
:100C6000E7203091E8208217930758F4E091E320C1
:100C7000F091E420E80FF91F9093E8208093E7209B
:100C800010820895FC0180819181009711F00C94ED
:100C9000AA1B0895CF93DF93FC012481358142176D
:100CA000530788F4C081D181062E000C770BCE014A
:100CB000840F951F0E946A1D009729F08C1B9D0BC5
:100CC000DF91CF9108958FEF9FEFFACFEF92FF92D0
:100CD0000F931F93CF93DF938617970769F1FC015A
:100CE00024813581FB014481558124173507E1F4C6
:100CF000232B11F1FC0100811181FB01C081D18105
:100D0000F80181918F018823B9F0082E000C990B0E
:100D10000E94521D7C018991082E000C990B0E94A3
:100D2000521DE816F90661F380E0DF91CF911F9123
:100D30000F91FF90EF90089581E0F7CFFC0124819F
:100D40003581232B39F421E0FB018081882349F090
:100D500020E007C0808191810E94751D21E0892BD0
:100D6000B9F7822F08950F931F93CF93DF938C01D0
:100D7000EB01FC01808191810097E1F0688179812C
:100D800061157105A9F0428153812C813D81421783
:100D9000530770F00E947E1D8C819D81F801958320
:100DA00084831D821C82DF91CF911F910F91089542
:100DB0000E94AA1B88819981F801918380838A818E
:100DC0009B81938382838C819D8195838483198207
:100DD00018821B821A82E5CF0F931F93CF93DF9364
:100DE000EC0188819981009759F02A813B8126176F
:100DF000370730F081E0DF91CF911F910F91089577
:100E00008B016F5F7F4F0E94761C009759F099838A
:100E100088831B830A832C813D81232B59F7FC0196
:100E20001082E8CF80E0E7CFEF92FF920F931F93FD
:100E3000CF93DF93EC017B018A01BA01CDDF2881DA
:100E40003981811114C02115310519F0C9010E94A1
:100E5000AA1B198218821D821C821B821A82CE0153
:100E6000DF91CF911F910F91FF90EF9008951D8317
:100E70000C83B701C9010E947E1DF1CFFB010190D7
:100E80000020E9F73197AF01461B570BCDCFFB018F
:100E9000DC0111961C921E9213961C921E921297C0
:100EA00015961C921E9214978617970741F0608141
:100EB00071816115710519F044815581B5CF08958F
:100EC000FC01118210821382128215821482FB01AE
:100ED00001900020E9F73197AF01461B570BA4CFD3
:100EE000AF92BF92CF92DF92EF92FF920F931F9338
:100EF000CF93DF93EC015B016A0179012417350779
:100F000020F48D2D6901E42EF82E6AE176E0CE0101
:100F1000D7DFD50114960D911C91C016D106E0F4CF
:100F2000E016F10608F48701D501ED91FC911197C7
:100F3000E00FF11FF08010826D917C916C0D7D1D92
:100F400061157105A9F0CE0199DFF50180819181CC
:100F5000080F191FD801FC92CE01DF91CF911F918C
:100F60000F91FF90EF90DF90CF90BF90AF900895DA
:100F700088819981009711F00E94AA1B198218821A
:100F80001D821C821B821A82E0CF61E08DE04DDD64
:100F90008EE390E00E94811561E08DE019DD8FE025
:100FA00090E00E94811560E08DE012DD8FE090E01E
:100FB0000E94811561E08DE00BDD8FE090E00E94E2
:100FC000811560E08DE004DDE3CFD0E0C0E08C2F40
:100FD000C7DD83E090E00E9481152196C11581E074
:100FE000D807A9F78C2FBCDD83E090E00E94811523
:100FF0002197C0F7EACF0F931F93EDE2F0E2A089AB
:10100000B18982E08C93A485B5851C92A685B785AD
:1010100080E18C93108EA489B58986E08C93A28997
:10102000B3898C9180618C93A289B3898C918860FB
:101030008C93A289B3898C9180688C930288F38900
:10104000E02D80818F7D808310E000E021E040E092
:1010500052E063E472E082EB9BE00E941E181F9155
:101060000F9108950F931F9310E000E021E040E8F6
:1010700050E06BE472E085EC97E00E941E181F912F
:101080000F9108950F931F9310E000E021E040EAD4
:1010900050E063E572E085EE97E00E941E181F9114
:1010A0000F910895AF92BF92CF92DF92EF92FF928D
:1010B0000F931F93CF93DF93CDB7DEB72C970FB667
:1010C000F894DEBF0FBECDBF8C0150E040E06DE074
:1010D000E1DD9C0150E040E0B801CE01019600DF67
:1010E000BE016F5F7F4FC8013EDECE010196CADDB3
:1010F00050E040E060E2C801CDDD5C016C018FEFA3
:10110000C81AD80AA60160E2C801C4DD7C019501B5
:1011100050E040E0B801CE010196E2DEBE016F5F13
:101120007F4F81ED90E21FDECE010196ABDD97018E
:10113000A601B801CE010196D3DEBE016F5F7F4FDD
:1011400087ED90E210DECE0101969CDDF80124814E
:101150003581A7014F5F5F4FB801CE010196C0DE18
:10116000BE016F5F7F4F8DED90E2FDDDCE010196F8
:1011700089DD81ED90E22ADD87ED90E227DD8DEDBE
:1011800090E224DD60E373E0CE01019699DEBE01BA
:101190006F5F7F4F81ED90E299DD182FCE010196B0
:1011A00071DD112309F49FC06DED70E2CE01079649
:1011B0006EDE8091D7209091D82000E0D12C00974E
:1011C00021F00E94331C062FD72E102F89E592E0C4
:1011D00007DD68E772E0CE01019672DEBE016F5F47
:1011E0007F4FCE01079672DDF82ECE0101964ADDC3
:1011F000F11075C067E572E0CE01019661DEBE01B7
:101200006F5F7F4FCE01079661DDF82ECE0101960C
:1012100039DDF11064C06DE772E0CE01019650DE59
:10122000BE016F5F7F4FCE01079650DDF82ECE01D5
:10123000019628DDFF2011F1F12CE12CDF921F93A4
:101240008AEC92E09F938F938DE290E29F938F932D
:10125000DFDC0F900F900F900F900F900F9083EEA8
:1012600092E0F1E0EF16F10411F08DEF92E0B8DCBE
:101270006E2D802FADDB86E193E01CC061E872E04B
:10128000CE0101961DDEBE016F5F7F4FCE01079636
:101290001DDDF82ECE010196F5DCF110CDCF83E8EF
:1012A00092E085DCCE010796F5D988E399E098DCD9
:1012B0008CE992E095DCCE010796E4DC2C960FB623
:1012C000F894DEBF0FBECDBFDF91CF911F910F917C
:1012D000FF90EF90DF90CF90BF90AF900895EE24F5
:1012E000E394F12CABCF6EE273E0CE010196E8DD22
:1012F000BE016F5F7F4F81ED90E2E8DC182FCE01D9
:101300000196C0DC84E393E01111A4C166E573E0AB
:10131000CE010196D5DDBE016F5F7F4F81ED90E27A
:10132000D5DC182FCE010196ADDC112309F46AC17A
:101330006DED70E2CE010796AADD8091D7209091E5
:10134000D820D12C00E0009721F00E94331CD62E2B
:10135000072F1D2D8BE593E043DC6DE773E0CE0195
:101360000196AEDDBE016F5F7F4FCE010796AEDC0A
:10137000F82ECE01019686DCF1103BC169EA75E0DA
:10138000CE0101969DDDBE016F5F7F4FCE010796B6
:101390009DDCF82ECE01019675DCF1102AC16FE7B5
:1013A00073E0CE0101968CDDBE016F5F7F4FCE01F1
:1013B00007968CDCF82ECE01019664DCF11019C181
:1013C00062E576E0CE0101967BDDBE016F5F7F4F67
:1013D000CE0107967BDCF82ECE01019653DCFF2070
:1013E00009F444C0EE24E394F12C0F931F938AEC8C
:1013F00092E09F938F930DE210E21F930F9308DC0E
:101400000F900F900F900F900F900F9081E0E816C3
:10141000F10409F4F1C085EA94E0E2E0EE16F1048B
:1014200011F482EC94E09F938F931F930F93F0DB62
:101430000F900F900F900F906E2D8D2DF6DA8D2D51
:101440009FDA009709F4DBC0019769F484E095E026
:101450009F938F938DE290E29F938F93D9DB0F90B0
:101460000F900F900F908DE395E024CF65E873E027
:10147000CE01019625DDBE016F5F7F4FCE0107963D
:1014800025DCF82ECE010196FDDBF110ABCF69E82B
:1014900073E0CE01019614DDBE016F5F7F4FCE0178
:1014A000079614DCF82ECE010196ECDBF1109ACFF2
:1014B00060E973E0CE01019603DDBE016F5F7F4FEF
:1014C000CE01079603DCF82ECE010196DBDBFF2070
:1014D00021F032E0E32EF12C88CF63E973E0CE01F6
:1014E0000196EEDCBE016F5F7F4FCE010796EEDB0B
:1014F000F82ECE010196C6DBF110EBCF67E973E061
:10150000CE010196DDDCBE016F5F7F4FCE010796F5
:10151000DDDBF82ECE010196B5DBF110DACF6CE9F8
:1015200073E0CE010196CCDCBE016F5F7F4FCE0130
:101530000796CCDBF82ECE010196A4DBF110C9CFC3
:1015400064EA73E0CE010196BBDCBE016F5F7F4FA2
:10155000CE010796BBDBF82ECE01019693DBF1108E
:10156000B8CF6EEA73E0CE010196AADCBE016F5FD0
:101570007F4FCE010796AADBF82ECE01019682DBC3
:10158000F110A7CF66EB73E0CE01019699DCBE01A6
:101590006F5F7F4FCE01079699DBF82ECE01019643
:1015A00071DBF11096CF61EC73E0CE01019688DC1F
:1015B000BE016F5F7F4FCE01079688DBF82ECE010C
:1015C000019660DBF11085CF8EEC93E0F0DACE016E
:1015D000079660D888E297E003DB86EE93E000DBB5
:1015E0008BEF93E0FDDA8DE194E0FADA81E494E0A8
:1015F00061CEF12CE12CF9CE86EE94E014CF81E29D
:1016000095E026CF6BEE75E0CE01019659DCBE0168
:101610006F5F7F4F81ED90E259DB182FCE0101966D
:1016200031DB1123C9F08DE595E0DADA88E795E042
:10163000D7DA8DE895E0D4DA8CEA95E0D1DA83ED5B
:1016400095E0CEDA80EF95E0CBDA86E196E0C8DA75
:101650008BE196E0C5DA32CE6FE476E0CE010196FA
:101660002FDCBE016F5F7F4F81ED90E22FDB182FE3
:10167000CE01019607DB83EC96E0112359F38091AC
:10168000D7209091D820D12CF12C009721F00E94E6
:10169000331CD62EF72E0D2D1F2D84E596E0A0DAF3
:1016A000FF92DF928AEC92E09F938F932DE2E22EDD
:1016B00020E2F22EFF92EF92ABDAF801E858FE4FEB
:1016C00084910E5C1E4FF801049110E00F900F9072
:1016D0000F900F900F900F900115110509F43CC069
:1016E000482F50E04115510509F436C09A012150A8
:1016F000310928233523232B79F5000F111FF80119
:10170000EC51FF4F25913491F801E250FF4FA59124
:10171000B491F90190819823E1F4EC918E23B1F416
:1017200085EA94E09F938F93FF92EF9271DA0F9086
:101730000F900F900F908D2D23D9009781F0019776
:1017400019F48EE896E04CDA3EDAB8CD82EC94E0FB
:10175000E9CF86EE94E0E6CF84E796E07BCF89EA96
:1017600096E0F1CFCF93DF93CDB7DEB7A1970FB659
:10177000F894DEBF0FBECDBF87E097E031DA3ADAEA
:101780008DE290E247D821E1322E37EF432E38E048
:10179000532E8DE290E20E948303892B09F407C344
:1017A0000091550B1091560B011524E012070CF017
:1017B00072C08DE290E20E94610389831A82E090F8
:1017C000E720F090E8208FEFE81AF80AB70183EEDF
:1017D00090E202DB882399F02091E3203091E4200D
:1017E0008091E7209091E820BE016F5F7F4F820FCC
:1017F000931F0E947E1DF092E820E092E720C8012E
:1018000001969093560B8093550B8091E720909111
:10181000E8200817190708F03CC08091E320909158
:10182000E4200097B1F1800F911FFC0160818DE2EF
:1018300090E20E94BA034091550B5091560BCA0199
:1018400001972091E7203091E8208217930730F428
:10185000E091E320F091E420309741F51092540B91
:10186000E4E5FBE060816A3021F5ADD96DE277E017
:1018700083EE90E263DA882309F450C06AE176E0EF
:1018800083EE90E2FBDAB6D91092560B1092550B0C
:1018900080CF60E0CCCF1092560B1092550B8DE2AA
:1018A00090E20E940A048FD9A5D9C5CFE80FF91F8D
:1018B000D9CF8217930730F4E091E320F091E42030
:1018C000309749F51092540BE4E5FBE060816D30F0
:1018D00061F28217930740F42091E3203091E420D5
:1018E000820F931F232B21F41092540B84E59BE06D
:1018F000FC0180818F3709F04CCF423051050CF04C
:101900001AC28DE290E20E940A048DE090E00E94EB
:10191000060470D93ECFE80FF91FD8CF69E176E011
:1019200083EE90E20BDA8111A9CF6EE277E083EECD
:1019300090E204DA8111A2CF50E040E060E283EE51
:1019400090E2A8D98C0150E040E06DE083EE90E297
:10195000A1D97C0197FF07C050E040E06AE083EE28
:1019600090E298D97C016AE176E0CE014996A8DA46
:101970006AE176E0CE014396A3DA17FD43C09801F1
:1019800050E040E063EE70E2CE010196A9DABE01BC
:101990006F5F7F4FCE014996E6D9CE01019672D98D
:1019A000A8014F5F5F4F970163EE70E2CE01019691
:1019B00097DABE016F5F7F4FCE014396D4D9CE0137
:1019C000019660D96AE176E083EE90E257DA1092F0
:1019D000560B1092550BBE016D5E7F4FCE010D96DA
:1019E00056DABE01675E7F4FCE01079650DA60E39C
:1019F00077E0CE010796A2D9882391F084E393E0A3
:101A0000FCD870C1970150E040E063EE70E2CE0177
:101A1000019666DABE016F5F7F4FCE014996CECF49
:101A200066E377E0CE01079689D98111E7CF6BEEA7
:101A300075E0CE01079682D9882309F18DE090E008
:101A40000E9406048BE397E0CBD88AE497E0C8D8DD
:101A500082E697E0C5D888E897E0C2D88CEB97E09B
:101A6000BFD88EED97E0BCD88FEF97E0B9D886E16C
:101A700096E0B6D888E298E0B3D8BCD833C162E526
:101A800078E0CE0107965AD9882309F421C18DE068
:101A900090E00E94060488E598E0A2D88DE698E0E0
:101AA0009FD888E898E09CD886EB98E099D884EE97
:101AB00098E07DD8B12CA12C18A29DE2692E90E26D
:101AC000792E1092540910912C2080912C20839D06
:101AD000C00111240E9460177C01892B09F459C0B0
:101AE0004FD280912C20181708F462C010E000E05B
:101AF000D12CB801605E7F4D41E050E0C701D39C1E
:101B0000800D911D11240FD7D80E095011090C3DDD
:101B1000FFEF1F0771F76091D61F7091D71F42E04A
:101B200050E0C701D39C800D911D1124FCD6D80E26
:101B30006091D41F7091D51F42E050E0C701D39C43
:101B4000800D911D1124EFD6D80E44E050E061EED7
:101B50007FE1C701D39C800D911D1124E4D6D80EDE
:101B600043E050E068ED7FE1C701D39C800D911DFB
:101B70001124D9D6D80ED9A25ED467011F8E84E570
:101B8000882E89E0982E9F8DE9A19E1313C0C7016E
:101B900087D7E4E5F9E010E000E08191882309F4BB
:101BA00058C08D30D1F70F5F1F4FF7CF580189CF45
:101BB00019A2E2CFF60185819681212C853091050D
:101BC00020F48A5F9D4FFC012080F60162817381C1
:101BD000C4010E947E1DF40101900020E9F78F01ED
:101BE00001501109C80188199909F801099768F18C
:101BF0001082F60184811F928F9380898F9387854D
:101C00008F9387811F928F93822D022C000C990B4A
:101C10009F932F9288EE98E09F938F931F930F933B
:101C20000E94851DF80101900020E9F7CF0101977E
:101C30004C019F8D9F5F9F8FE1E1CE0ED11C0FB6AF
:101C4000F894DEBF0FBECDBF9ECF20E221938F015F
:101C5000C9CFF8A1FF2349F1BF92AF925F924F9293
:101C60007F926F920E9408060F900F900F900F9036
:101C70000F900F90F12CE12CAE14BF0441F08DEFCA
:101C800098E00E94F0052FEFE21AF20AF5CFBF921A
:101C9000AF925F924F927F926F920E9408060F90D0
:101CA0000F900F900F900F900F9084E599E00E9495
:101CB000D7058FE090E025D78DE290E20E94610386
:101CC000E1E0E8A34B9709F071CF0E94E305D5CE80
:101CD0006EE273E0CE01079631D88823A1F0F0E0E0
:101CE000E0E01995CE0107960E944206CE010D96BE
:101CF0000E944206CE0143960E944206CE014996BA
:101D00000E944206C1CD68EA75E0CE01079616D85A
:101D1000882371F0BE01635F7F4FCE010196B7D873
:101D2000CE010196BFD9CE0101960E944206A5CEF2
:101D300081E099E065CE8DE090E00E9406040E946B
:101D4000FA05F12CE12C0091550B1091560BE01681
:101D5000F10644F480E290E00E940604FFEFEF1ADF
:101D6000FF0AF1CF8DE090E00E9406048091E72009
:101D70009091E82001970E942F0602301105A4F0EF
:101D80008091E7209091E82001970E942F06025051
:101D900011091093560B0093550B0E94FA0583EE20
:101DA00090E20E944A03F5CC01501109F2CF7DD296
:101DB000F0CC1F920F920FB60F9211242F933F93E6
:101DC0008F939F93AF93BF938091CA1F9091CB1F26
:101DD000A091CC1FB091CD1F3091C91F23E0230FDC
:101DE0002D3758F50196A11DB11D2093C91F809371
:101DF000CA1F9093CB1FA093CC1FB093CD1F80918F
:101E0000C51F9091C61FA091C71FB091C81F019612
:101E1000A11DB11D8093C51F9093C61FA093C71F1E
:101E2000B093C81FBF91AF919F918F913F912F9118
:101E30000F900FBE0F901F90189526E8230F029663
:101E4000A11DB11DD2CF1F920F920FB60F92112478
:101E50000BB60F922F933F934F935F936F937F93A4
:101E60008F939F93AF93BF93EF93FF938DE290E295
:101E70000E949803FF91EF91BF91AF919F918F9135
:101E80007F916F915F914F913F912F910F900BBE7A
:101E90000F900FBE0F901F9018951F920F920FB6C4
:101EA0000F9211240BB60F922F938F939F93EF9362
:101EB000FF93E0913D20F0913E208081E09143200E
:101EC000F091442082FD1DC09081809146208F5F5B
:101ED0008F7320914720821741F0E0914620F0E077
:101EE000E35DFF4D958F80934620FF91EF919F9189
:101EF0008F912F910F900BBE0F900FBE0F901F90E0
:101F000018958081F2CFFC01DB010FB6F8940F9297
:101F10004091D11F5091D21F2D913C9111972F3F8D
:101F20003207E1F0818192816091D31F7081761731
:101F300019F048175907C0F4481B590B42175307AB
:101F400088F4241B350B2D933C938091D31F808301
:101F50008091D11F9091D21F9283818380E00F9056
:101F60000FBE08951D921C9281E0F9CF0FB6F89430
:101F70000F928091D11F9091D21F0F900FBE0895A4
:101F80008091CE1F8F5F8093CE1F08950FB6F89477
:101F90000F92FC01928D0F900FBE81E0911180E0B5
:101FA0000895CF93DF939C01FB01DC011196CD9145
:101FB000DC91D383C2838C819D81958384838C81C2
:101FC0009D81DC0113967C936E9312977D836C83C5
:101FD00031872087F90180818F5F8083DF91CF91E6
:101FE0000895CF93DF93FC01A085B1858281938111
:101FF00024813581EC013D832C83C481D5819B8371
:102000008A8311968D919C9112978E179F0721F4C8
:102010001296DC93CE931197118610868C91815085
:102020008C938C91DF91CF9108950F931F93CF9351
:10203000DF93DC011596ED91FC91C681D7818E016D
:10204000045F1F4FC801CDDF8091CE1F811123C0D7
:102050000A501109C801C5DF8E899091292098176F
:1020600010F480932920B9E08B9FC0011124B8019E
:102070008B5F9F4D96DFE0915209F09153099E8945
:102080008689891760F481E08093661FDF91CF9184
:102090001F910F910895B8018AEE9FE1EBCF80E088
:1020A000F5CFEF92FF920F931F93CF93DF93EC0145
:1020B0000FB6F8940F921E8D7C0181E1E80EF11CA1
:1020C00001E01116D4F08FEF8E8F0F900FBE0FB678
:1020D000F8940F921D8D7E0188E0E80EF11C01E05E
:1020E0001116ACF08FEF8D8F0F900FBEDF91CF9157
:1020F0001F910F91FF90EF9008958989882319F31C
:10210000C70193DF81110093661F1150DACF8885D4
:10211000882341F3C70189DF81110093661F1150A5
:10212000DFCF0F931F93CF93DF938C01FB0180814F
:102130009181D80113968F3F9807F1F4E801AF81A0
:10214000B88512968D919C91139793838283EC01AD
:10215000FD83EC83B583A4831396FC93EE931297CF
:1021600011870087F80180818F5F8083DF91CF9195
:102170001F910F910895D90112962D913C911397BB
:10218000E9014881598184179507A8F7DACFFC0146
:1021900073836283918780874617570788F0421BB5
:1021A000530B8485958548175907C0F4BF016E5FAE
:1021B0007F4F8091A91F9091AA1FB3DF80E00895FF
:1021C0004217530718F46217730740F4BF016E5F9C
:1021D0007F4F8091AB1F9091AC1FEFCF81E00895AE
:1021E000FF920F931F93CF93DF93EC01F62E009194
:1021F000D11F1091D21F80915209909153090296DC
:10220000F0DECF3FDC0781F4FF2071F060915209CE
:10221000709153096E5F7F4F88ED9FE1DF91CF9101
:102220001F910F91FF90BDCEC00FD11FE0915209B9
:10223000F0915309D383C28360915209709153097D
:10224000C017D10760F48091D41F9091D51F6E5FA5
:102250007F4FDF91CF911F910F91FF9062CF8091BF
:10226000D61F9091D71F6E5F7F4F5BDF8091C11F9C
:102270009091C21FC817D90720F4D093C21FC093F2
:10228000C11FDF91CF911F910F91FF900895FC0125
:102290000396928381832FEF3FEF348323839683CA
:1022A000858390878783108208950F920FB6F894E4
:1022B0000F920BB60F920CB60F921F9211242F9211
:1022C0003F924F925F926F927F928F929F92AF92C6
:1022D000BF92CF92DF92EF92FF920F931F932F93B3
:1022E0003F934F935F936F937F938F939F93AF939E
:1022F000BF93CF93DF93EF93FF93A0915209B091D7
:1023000053090DB60D920EB60D928091CE1F882303
:1023100021F081E08093661F5FC01092661FA0913C
:102320005209B0915309E0915209F09153092D914E
:102330003C918789908D82179307A8F0809152096C
:10234000909153098091520990915309279A2F9A9D
:102350002FEF87EA91E6215080409040E1F700C0DE
:1023600000001F9AF5CF2091292089E001C021505B
:10237000422F50E0849FF001859FF00D1124EB5F08
:10238000FF4D9081992399F3A181B28112960D900E
:10239000BC91A02DB283A183289FC0011124885F26
:1023A0009F4DA817B90729F412968D919C9192839D
:1023B000818389E0849FF001859FF00D1124EB5FFC
:1023C000FF4D0180F281E02D868197819093530922
:1023D0008093520920932920A0915209B09153096A
:1023E000CD91CDBFDD91DEBFFF91EF91DF91CF9118
:1023F000BF91AF919F918F917F916F915F914F911D
:102400003F912F911F910F91FF90EF90DF90CF9010
:10241000BF90AF909F908F907F906F905F904F9004
:102420003F902F901F900F900CBE0F900BBE0F90FF
:102430000FBE0F9008957F928F929F92AF92BF929E
:10244000CF92DF92EF92FF920F931F93CF93DF9380
:102450000FB6F8940F928091CE1F81508093CE1FBB
:102460008091CE1F882389F080E00F900FBEDF910E
:10247000CF911F910F91FF90EF90DF90CF90BF9081
:10248000AF909F908F907F90089580912C2088230B
:1024900059F3D0E0C0E029E0F22EEE24E39426C008
:1024A000E091EF1FF091F01FC681D781CE010C960D
:1024B00098DD8E010E5F1F4FC80193DD8E899091CC
:1024C0002920981710F4809329208F9DC001112492
:1024D000B8018B5F9F4D65DDE0915209F091530982
:1024E0009E898689981710F0E092661F8091EA1FF6
:1024F0008111D6CFCD2B11F00E945105E090641FC1
:10250000F090651FE114F10409F4ACC089E0A82E35
:1025100077247394CC24CA94DC2C8091CE1F811133
:102520008FC0C091D11FD091D21F2196D093D21FBE
:10253000C093D11F2097B9F48091D61F9091D71FD7
:102540002091D41F3091D51F3093D71F2093D61FD1
:102550009093D51F8093D41F8091D31F8F5F80935A
:10256000D31F0E9451058091C11F9091C21FB12CB1
:10257000C817D90708F058C0E0915209F0915309E3
:10258000E689AE9EF0011124EB5FFF4D8081823021
:1025900010F0BB24B3948091661F811103C0BB204F
:1025A00009F457C07092661F54C0E091D61FF09195
:1025B000D71F0580F681E02D06811781D80112967C
:1025C0008D919C91C817D90728F49093C21F8093CE
:1025D000C11FD2CF4801B2E08B0E911CC40101DDB6
:1025E000F80184899589892B19F0C8010C96F9DCCA
:1025F000D80156968C9190912920981710F48093C9
:1026000029208A9DC0011124B4018B5F9F4DC9DC34
:10261000E0915209F0915309D80156969C91868910
:10262000981710F0BB24B394E091D61FF091D71FF8
:1026300080818111BACFD092C21FC092C11F9CCF9E
:102640008091641F9091651F01969093651F809300
:10265000641FB1E0EB1AF10809F05FCF1092651F1B
:102660001092641F8091661F882309F4FDCE1DDE41
:1026700081E0FBCEAF92BF92CF92DF92EF92FF92BA
:102680000F931F93CF93DF9300D01F921F92CDB76C
:10269000DEB78C017B011D821C8280E0680128E08E
:1026A000C20ED11C0FB6F8940F92F801228D938DB3
:1026B000291708F074C0D28C448D411156C0808116
:1026C0009181892B11F080E009C0E480F580E1144C
:1026D000F10411F580E0F80115821482D394F80119
:1026E000D28E9189992319F0C80141969EDC8111FF
:1026F000DCDD0F900FBE81E00F900F900F900F90D8
:102700000F90DF91CF911F910F91FF90EF90DF908D
:10271000CF90BF90AF900895F70186A1815086A316
:10272000268995A12917B1F28111D4CF5701F2E082
:10273000AF0EB11CC50155DCF70185A1868B24E0E5
:1027400030E0281B3109358724879091292098177C
:1027500010F480932920F9E08F9FC0011124B50166
:102760008B5F9F4D1EDC81E0B6CF50E0B7018281C8
:1027700093810E945A1DF801848D22813381820F3A
:10278000932F911D93838283248135818217930730
:1027900008F499CF808191819383828394CF2C8197
:1027A0003D81232B21F40F900FBE80E0A5CF811136
:1027B00009C08091D31F89838091D11F9091D21F2E
:1027C0009B838A830F900FBEDBDB0FB6F8940F92CA
:1027D000F801858D8F3F09F4158EF801868D8F3FA6
:1027E00009F4168E0F900FBEBE016C5F7F4FCE01B5
:1027F000019689DB811123C00FB6F8940F92F8017E
:10280000928D838D0F900FBE981315C0AC80BD8044
:102810006091520970915309645F7F4FC60181DC5A
:1028200061E0C501DDDCC8013CDC05DE811101C0D1
:102830003CDD81E037CFC80134DCFDDDFACFC801D3
:1028400030DCF9DDB2CFCF93DF9300D01F921F921F
:10285000CDB7DEB79C018091CF1F9091D01F00971C
:10286000B1F019827B836A833D832C8320912B20D6
:10287000BE016F5F7F4F21112091CE1FFBDE0F90B5
:102880000F900F900F900F90DF91CF91089580E0FF
:10289000F6CFEF92FF920F931F93CF93DF93E091C8
:1028A000AB1FF091AC1F8081811113C08091A91FD3
:1028B0009091AA1F9093AC1F8093AB1FF093AA1F17
:1028C000E093A91FDF91CF911F910F91FF90EF909F
:1028D00008950580F681E02D00811181C681D781A0
:1028E0007E0182E0E80EF11CC7017BDBE889F989F3
:1028F000CE0119958B8982FFD2CF8C859D85800F63
:10290000911F0817190758F49B838A83D987C887B2
:10291000B7018091AB1F9091AC1F03DCC0CFB80111
:10292000CE0191DFBCCF2F923F924F925F926F9278
:102930007F928F929F92AF92BF92CF92DF92EF924F
:10294000FF920F931F93CF93DF93EB012881312CDC
:10295000222309F478C0E981FA81228133813A8304
:1029600029835B0163E0A60EB11C2A153B0521F407
:102970002D813E813A8329837A013C01E981FA81E4
:1029800046805780312C81E1282EE981FA818281AD
:1029900093819A838983A816B90621F48D819E813B
:1029A0009A838983E981FA81C680D7808301329C2A
:1029B000000D111D11244601C114D10421F4809091
:1029C000520990905309D80111969C928E92C4019D
:1029D000499613969C938E931297F40186891796C5
:1029E0008C9317978789908D1E969C938E931D9735
:1029F00083A114968C93149785A118968C9318979D
:102A000019961D921D921D921C921C97809152093D
:102A1000909153098816990651F516961C921E92AC
:102A20001597D4015796ED91FC9180E090E0DC0180
:102A30002191253A89F1F801908B878733944C14C2
:102A40005D0409F0A2CF832DDF91CF911F910F91EB
:102A5000FF90EF90DF90CF90BF90AF909F908F90BE
:102A60007F906F905F904F903F902F900895F80166
:102A7000F682E582F3E0EF16F10499F681DAD401EB
:102A800054968D919C91892B29F082E090E0F80179
:102A900096838583D0DCC5CF0196A11DB11DC8CF1B
:102AA000CF93DF93009751F1EC0124972A813B816A
:102AB00080915B1F90915C1FA90148235923452BEE
:102AC000E9F048815981452BC9F48095909582237E
:102AD00093239B838A8354DA8091591F90915A1FC4
:102AE0002A813B81820F931F90935A1F8093591F15
:102AF000CE010E946C05DF91CF919DCCDF91CF91EB
:102B00000895CF93DF93EC01892B21F4CEDBDF9185
:102B1000CF91089535DA60E0CE0162DB8CDC88234A
:102B2000A9F3F5CF0F920FB6F8940F920BB60F9250
:102B30000CB60F921F9211242F923F924F925F92E8
:102B40006F927F928F929F92AF92BF92CF92DF92BD
:102B5000EF92FF920F931F932F933F934F935F93A7
:102B60006F937F938F939F93AF93BF93CF93DF9395
:102B7000EF93FF93A0915209B09153090DB60D92B6
:102B80000EB60D9213BE8091CE1F8111F6C08091BA
:102B9000D11F9091D21F01969093D21F8093D11F85
:102BA000009799F52091D61F3091D71F4091D41FDF
:102BB0005091D51F5093D71F4093D61F3093D51FE8
:102BC0002093D41F2091D31F2F5F2093D31FE09118
:102BD000D61FF091D71F2081211107C02FEF3FEFA3
:102BE0003093C21F2093C11F10C0E091D61FF091F7
:102BF000D71F0580F681E02D0680F781E02D228128
:102C000033813093C21F2093C11F2091C11F309187
:102C1000C21F8217930710F420E09BC020E019E048
:102C2000E091D61FF091D71F3081311107C08FEF8F
:102C30009FEF9093C21F8093C11F8BC0E091D61F5E
:102C4000F091D71F0580F681E02D0680F781E02DF9
:102C5000428153818417950728F45093C21F4093F3
:102C6000C11F77C0AF014E5F5F4FA285B3856481FE
:102C70007581E680F780EB01FD82EC82C681D78109
:102C80007B836A8311966D917C9112974617570743
:102C900021F41296DC93CE931197138612863C9101
:102CA00031503C933C91A489B5891097F9F0668521
:102CB0007785E088F188EB01FD82EC82C089D189BB
:102CC0007B836A831196ED90FC901297BF01645F3D
:102CD0007F4FE616F70621F41296DC93CE931197F8
:102CE000158A148A3C9131503C933C91A6893091CD
:102CF00029203A1710F4A09329201A9FD0011124FB
:102D0000BD016B5F7F4D7B01DB011196CD91DC91A5
:102D1000D583C4836C817D81778366836C817D815B
:102D2000DB0113965C934E9312975D834C83F3867D
:102D3000E286E70138813F5F3883A0915209B09164
:102D40005309468956963C91431708F469CF21E010
:102D500067CFE0915209F0915309E689D9E0ED9FE0
:102D6000F0011124EB5FFF4D8081823008F021E0FB
:102D70008091661F81110EC00AC08091641F9091DE
:102D8000651F01969093651F8093641F6AC022237C
:102D900009F467C08091CE1F882321F081E08093E1
:102DA000661F5FC01092661FA0915209B09153092F
:102DB000E0915209F09153092D913C918789908DB2
:102DC00082179307A8F0809152099091530980913E
:102DD000520990915309279A2F9A2FEF67EA71E6CB
:102DE000215060407040E1F700C000001F9AF5CF0D
:102DF0002091292089E001C02150422F50E0849F7A
:102E0000F001859FF00D1124EB5FFF4D9081992318
:102E100099F3A181B28112960D90BC91A02DB2833D
:102E2000A183289FC0011124885F9F4DA817B9076F
:102E300029F412968D919C919283818389E0849FDD
:102E4000F001859FF00D1124EB5FFF4D0180F281B1
:102E5000E02D8681978190935309809352092093A6
:102E60002920A0915209B0915309CD91CDBFDD9198
:102E7000DEBFFF91EF91DF91CF91BF91AF919F9115
:102E80008F917F916F915F914F913F912F911F9102
:102E90000F91FF90EF90DF90CF90BF90AF909F90F9
:102EA0008F907F906F905F904F903F902F901F90EA
:102EB0000F900CBE0F900BBE0F900FBE0F90089599
:102EC000CF92DF92EF92FF920F931F93CF93DF93F6
:102ED000EC0156D880915D1F90915E1F892B81F582
:102EE00087E59BE09093601F80935F1F1092621FA5
:102EF0001092611F23E53FE130935E1F20935D1F19
:102F00001092561F1092551F1092541F1092531F6B
:102F10008CEF93E190935A0B8093590B3093580B9D
:102F20002093570B9093581F8093571F90935A1FCD
:102F30008093591F80E090E890935C1F80935B1F03
:102F4000C0905B1FD0905C1FC6018C239D23892BF2
:102F500071F071DA279A2F9AFFEF20E782E0F150A3
:102F600020408040E1F700C000001F9AF5CF209775
:102F700081F39E012C5F3F4F61F30091591F109127
:102F80005A1FC0915F1FD091601FEFE5FFE102174C
:102F90001307F8F24A815B814217530728F48881AE
:102FA0009981009709F047C080915D1F90915E1F45
:102FB0008C179D0771F2E080F18084E0E80EF11C2F
:102FC0008881998191838083421B530B493051053D
:102FD00050F0CE01820F931FFC01538342833B8349
:102FE0002A830E946C052A813B81021B130B1093DC
:102FF0005A1F0093591F4091571F5091581F041793
:10300000150720F41093581F0093571FC22AD32A84
:10301000DB82CA82198218820EDAE114F10409F403
:1030200099CFC701DF91CF911F910F91FF90EF9042
:10303000DF90CF900895FE01EC01ACCF7F928F928C
:103040009F92AF92BF92CF92DF92EF92FF920F9337
:103050001F93CF93DF93982EA92E762E872E7A0179
:10306000B22ECA012DDF6C01892B09F4CAC08CE293
:1030700090E026DFEC01892B09F4C1C0D88ECF8AFD
:10308000A70165EA70E0C6011ED521E0E21AF10849
:10309000EF89F88DEE0DFF1D672D782DCE01499635
:1030A0009B01265F3F4FDB014D91BD01DC014D933C
:1030B000CD01AB0141505109DA014C91442319F083
:1030C0006217730781F71AA2BE8ABDA21EA21B86D1
:1030D0001A861D8A1C8AD987C88784E090E08B19DC
:1030E00091099D878C87DB8BCA8B1FA218A619A616
:1030F0001AA61BA69082DF011197AC9211971C9221
:1031000011971C92119780E88C9311971C9211973C
:103110001C9211971C9257971C9211971C92B6976C
:10312000F983E8830115110519F0F801D183C083F3
:103130000FB6F8940F9280912C208F5F80932C20F3
:103140008091520990915309892B09F069C0D0935D
:103150005309C093520980912C20813039F585E0C4
:1031600090E295D88EE090E292D887E190E28FD8F5
:1031700080E290E28CD88CEF9FE189D883EF9FE1C9
:1031800086D88AEE9FE183D881EE9FE180D888EDD2
:103190009FE17DD88CEF9FE19093D71F8093D61F3E
:1031A00083EF9FE19093D51F8093D41F80912A20B5
:1031B0008F5F80932A208BA38E8990912920981766
:1031C00010F480932920F9E08F9FC0011124BE01E3
:1031D0006E5F7F4F8B5F9F4D0E94D10F0F900FBE90
:1031E00080912B20882349F0E0915209F0915309F6
:1031F00096898E89981708F458D881E003C0C601D3
:103200004FDC8FEFDF91CF911F910F91FF90EF90E7
:10321000DF90CF90BF90AF909F908F907F90089558
:1032200080912B208111C2CFE0915209F091530976
:103230009E898689981708F4B9CFD0935309C09313
:103240005209B4CF6FDC18958DED90E20E944206D2
:1032500087ED90E20E94420681ED90E20E944206D4
:1032600089EE90E20E94420683EE90E20C944206C0
:10327000CF93DF93EDE2F0E21382128288EE93E0C7
:10328000A0E0B0E084839583A683B7838FE092E0CB
:103290009183808385EC90E09587848784EC90E02F
:1032A0009787868780EC90E0918B808B81EC90E013
:1032B000938B828B82EC90E0958B848B86EC90E0F4
:1032C000978B868B118E128E138E148E6AE176E0A8
:1032D00083EE90E20E9460076AE176E089EE90E278
:1032E0000E9460076AE176E081ED90E20E9460074B
:1032F0006AE176E087ED90E20E9460076AE176E09D
:103300008DED90E20E946007CAECD0E286E190E089
:103310009B838A8388E190E09D838C8387E190E0A2
:10332000998388831E8261E086E10E94150561E031
:103330008C810E94150561E08881DF91CF910C940A
:103340001505789484B5826084BD84B5816084BDA0
:1033500085B5826085BD85B5816085BD80916E0033
:10336000816080936E001092810080918100826064
:1033700080938100809181008160809381008091A1
:1033800080008160809380008091B1008460809390
:10339000B1008091B00081608093B0008091910075
:1033A0008260809391008091910081608093910070
:1033B000809190008160809390008091A100826054
:1033C0008093A1008091A10081608093A1008091F1
:1033D000A00081608093A000809121018260809391
:1033E0002101809121018160809321018091200140
:1033F00081608093200180917A00846080937A00BC
:1034000080917A00826080937A0080917A00816056
:1034100080937A0080917A00806880937A0010927D
:10342000C10020910402309105028FEF91E2821BCE
:10343000930B90930102809300020E94FB070E946D
:1034400032080E94420803EC1FE120E040E850E00F
:103450006FE379E08BEB92E0F1DD813009F0CEC0D3
:103460000FB6F8940F928091CF1F9091D01F892BA7
:1034700009F067C086EB9FE10E9447118DEA9FE14A
:103480000E94471186EB9FE19093AC1F8093AB1F86
:103490008DEA9FE19093AA1F8093A91F83E590E096
:1034A0000FDDEC01009789F18196998388838AE08A
:1034B0008B8F85E08C8F0FB6F8940F92888199815D
:1034C0002B8D4C8DBC01249F600D711D11247D83BB
:1034D0006C831A8E9B838A832150330B429FB001E9
:1034E000439F700D1124860F971F9F838E838FEF4C
:1034F0008D8F8E8FCE0108960E944711CE01419686
:103500000E9447110F900FBE18A2D093D01FC093F6
:10351000CF1F2097B1F0E9E6FFE190E080E0208145
:103520003181232B09F073C0880F991F880F991FD1
:10353000FC01E759F04E84E499E091838083D383C2
:10354000C2830F900FBE8091CF1F9091D01F892B07
:1035500009F454C00FEB1FE123E045E550E069E4B6
:1035600079E082E091E06ADD813009F047C0F894AB
:103570002FEF3FEF3093C21F2093C11F80932B206A
:103580001092D21F1092D11FA89588E190EC0FB62F
:10359000F894A895809360000FBE90936000A0916E
:1035A0005209B0915309CD91CDBFDD91DEBFFF919E
:1035B000EF91DF91CF91BF91AF919F918F917F91CB
:1035C0006F915F914F913F912F911F910F91FF90BC
:1035D000EF90DF90CF90BF90AF909F908F907F90B3
:1035E0006F905F904F903F902F901F900F900CBE68
:1035F0000F900BBE0F900FBE0F9008950E94FB0717
:103600000E9432080E9442080E942904FDCF0196C0
:1036100034968031910509F082CF93CF0F931F9399
:10362000CF93DF938230910510F482E090E0E09137
:10363000F120F091F22030E020E0B0E0A0E03097FF
:1036400099F42115310509F44AC0281B390B24309F
:103650003105D8F58A819B816115710589F1FB01DE
:1036600093838283FE0111C04081518102811381C5
:1036700048175907E0F04817590799F4109761F077
:1036800012960C93129713961C933296CF01DF91EA
:10369000CF911F910F9108950093F1201093F22084
:1036A000F4CF2115310551F04217530738F0A90125
:1036B000DB019A01BD01DF01F801C1CFEF01F9CFB4
:1036C0009093F2208093F120CDCFFE01E20FF31F03
:1036D000819391932250310939832883D7CF209148
:1036E000EF203091F020232B41F420910202309101
:1036F00003023093F0202093EF20209100023091BC
:1037000001022115310541F42DB73EB74091040265
:1037100050910502241B350BE091EF20F091F02031
:10372000E217F307A0F42E1B3F0B2817390778F098
:10373000AC014E5F5F4F2417350748F04E0F5F1FF7
:103740005093F0204093EF20819391939FCFF0E02E
:10375000E0E09CCFCF93DF930097E9F0FC01329734
:1037600013821282A091F120B091F220ED0130E09D
:1037700020E01097A1F420813181820F931F2091C6
:10378000EF203091F0202817390709F061C0F0933D
:10379000F020E093EF20DF91CF910895EA01CE175A
:1037A000DF07E8F54A815B819E0141155105B1F7BC
:1037B000E901FB83EA8349915991C40FD51FEC17A6
:1037C000FD0761F4808191810296840F951FE901C4
:1037D00099838883828193819B838A83F0E0E0E0F0
:1037E00012968D919C9113970097B9F52D913C916C
:1037F0001197CD010296820F931F2091EF203091F7
:10380000F0202817390739F6309751F51092F22039
:103810001092F120B093F020A093EF20BCCFD3837F
:10382000C28340815181840F951FC817D90761F465
:103830004E5F5F4F88819981480F591F51834083A4
:103840008A819B81938382832115310509F0B0CF52
:10385000F093F220E093F1209ECFFD01DC01C0CF78
:1038600013821282D7CF1F93FC0199278827BC01AE
:10387000E89411911032E9F3193010F01E30C8F3BA
:103880001B3249F01D3241F4689405C012D0610F1B
:10389000711D811D911D119110531A30B8F33EF422
:1038A00090958095709561957F4F8F4F9F4F1F9199
:1038B0000895592F482F372F262F660F771F881FFF
:1038C000991F660F771F881F991F620F731F841F30
:1038D000951F660F771F881F991F0895EE0FFF1F12
:1038E000881F8BBF0790F691E02D19944F925F923D
:1038F0006F927F928F929F92AF92BF92CF92DF9200
:10390000EF92FF920F931F93CF93DF938C01009759
:1039100091F4CB01DF91CF911F910F91FF90EF9028
:10392000DF90CF90BF90AF909F908F907F906F90DF
:103930005F904F9073CEFC01E60FF71F9C01225061
:103940003109E217F30708F4AAC0D901CD91DC913F
:103950001197C617D70718F1C530D10570F0CE0101
:1039600004978617970748F0C61BD70B2297C19379
:10397000D1936D937C93CF01EDDEC801DF91CF91A0
:103980001F910F91FF90EF90DF90CF90BF90AF907D
:103990009F908F907F906F905F904F9008955B0104
:1039A000AC1ABD0A4C018C0E9D1EA091F120B09165
:1039B000F220512C412CF12CE12C109731F5809103
:1039C000EF209091F0208815990509F05CC046160B
:1039D000570608F058C080910002909101020097AC
:1039E00041F48DB79EB74091040250910502841BAB
:1039F000950BE817F90708F052C0F093F020E09318
:103A0000EF20F90171836083B8CF8D919C9111975C
:103A100012966C90129713967C901397A815B9057F
:103A200059F56C0142E0C40ED11CCA14DB0420F12C
:103A3000AC014A195B09DA011296159780F062828F
:103A4000738251834083D9016D937C93E114F10417
:103A500071F0D7011396FC93EE9312978ECF2296B6
:103A60008C0F9D1FF90191838083F301EFCFF093B9
:103A7000F220E093F12081CF4816590608F42C017A
:103A80007D01D3019ACFCB01C9DD7C01009739F0CC
:103A9000AE01B8010FD0C8015DDE87016ECF10E026
:103AA00000E06BCF9111089581548A5108F4805E33
:103AB000855A0895FB01DC0102C001900D9241502E
:103AC0005040D8F70895DC0101C06D93415050403B
:103AD000E0F70895FC018191861721F08823D9F73A
:103AE000992708953197CF010895FB01DC018D914D
:103AF000019080190110D9F3990B0895FB01DC01A5
:103B000001900D920020E1F708950F931F93CF933A
:103B1000DF93CDB7DEB72E970FB6F894DEBF0FBE9A
:103B2000CDBF0E891F8986E08C831A8309838FEFAE
:103B30009FE79E838D83AE01465E5F4F688D798DD2
:103B4000CE0101963AD02F813885020F131FF8015C
:103B500010822E960FB6F894DEBF0FBECDBFDF9158
:103B6000CF911F910F9108950F931F93CF93DF93E0
:103B7000CDB7DEB72E970FB6F894DEBF0FBECDBF20
:103B80008C0186E08C831A8309838FEF9FE79E83E5
:103B90008D83CE01019611D02F813885020F131F1E
:103BA000F80110822E960FB6F894DEBF0FBECDBF7F
:103BB000DF91CF911F910F9108952F923F924F92D5
:103BC0005F926F927F928F929F92AF92BF92CF92AD
:103BD000DF92EF92FF920F931F93CF93DF9300D06A
:103BE00000D000D01F921F92CDB7DEB77C013B0101
:103BF0008A01FC0117821682838181FFD0C1CE0128
:103C000001965C01F7019381F30193FD859193FF88
:103C100081913F01882309F449C1853239F493FD2C
:103C2000859193FF81913F01853221F4B70190E0A6
:103C3000CFD1E8CF912C212C312CFFE1F31538F0B6
:103C40008B3211F190F4803209F1833229F137FC83
:103C50003CC020ED280F2A3050F536FE20C08AE007
:103C6000989E200D1124922E06C08D3291F0803343
:103C700071F7689430F8F30193FD859193FF81917A
:103C80003F018111DACF21C0689431F8689432F88D
:103C9000F2CF689433F8EFCF689434F8ECCFEAE0D1
:103CA0002E9E200D1124222E689435F8E4CF8E32FA
:103CB00029F436FCFBC0689436F8DDCF8C3619F455
:103CC000689437F8D8CF8836B1F2982F9F7D9554F5
:103CD0009330D8F0833691F18337B1F1833509F011
:103CE0005EC02801F2E04F0E511CF801C080D18067
:103CF000692D70E036FC02C06FEF7FEFC60152D134
:103D00004C01689437F882010AC00C5F1F4FFFE333
:103D1000F98388248394912C6501E89437F833FE65
:103D20002AC0522C8114910459F5552009F46ACF08
:103D3000B70180E290E04CD15A94F7CFF80180812E
:103D400089830E5F1F4FE5CF2801F2E04F0E511C13
:103D5000F801C080D180692D70E036FC02C06FEFA1
:103D60007FEFC6012AD14C018201D7CFB70180E293
:103D700090E02ED12A942814190409F0B8F7D1CF75
:103D8000F60137FC859137FE81916F01B70190E014
:103D90001FD151105A94F1E08F1A9108C3CF843685
:103DA00019F0893609F073C0F80137FE67C06081E9
:103DB0007181828193810C5F1F4FF32DFF763F2E1F
:103DC00097FF09C090958095709561957F4F8F4FB3
:103DD0009F4F689437F82AE030E0A50129D1C82E1A
:103DE000CA188C2C432C36FE0CC0E89440F8C91439
:103DF00040F434FE05C032FC03C0F32DFE7E4F2E8E
:103E0000892C44FEA6C0FE01EC0DF11D808180339B
:103E100009F098C0242D297E422E842D8870582EBA
:103E200043FCA5C040FE9FC09C2C821418F42C0CAF
:103E3000922C981844FEA1C0B70180E390E0C8D04E
:103E400042FE08C088E790E041FE02C088E590E0AD
:103E5000B701BED0C91408F49CC0CA94D12C9FEFFE
:103E6000C91AD90ACA0CDB1CF60182916F01B7018D
:103E700090E0AED0AC14BD04B9F757CF608171812A
:103E8000072E000C880B990B0E5F1F4F96CFD32C7B
:103E9000E894D4F82AE030E08537E1F1232D297F3A
:103EA000D22E8F36A9F1F0F4883551F1F7018681D1
:103EB00097812B960FB6F894DEBF0FBECDBFDF9172
:103EC000CF911F910F91FF90EF90DF90CF90BF9017
:103ED000AF909F908F907F906F905F904F903F90AA
:103EE0002F900895803749F0883701F7D4FE02C03B
:103EF0006894D2F820E130E00DC06894D4F8F6CF91
:103F000034FE03C0822F8660D82E20E132E002C04A
:103F100028E030E0F801D7FE0EC060817181828117
:103F200093810C5F1F4FA50183D0C82ECA183D2C6A
:103F3000E89437F856CF6081718190E080E00E5FA1
:103F40001F4FF1CF42FC02C0839467CF83948394C8
:103F500064CF842D867809F460CFF6CFB70180E274
:103F600090E036D083948214C8F3512C63CF522C46
:103F70005818821408F45ECFF8CF842D867809F49F
:103F800069CF8BE241FE80E247FC8DE2B70190E011
:103F900060CFB70180E390E01BD09A945BCF8FEFA6
:103FA0009FEF87CFFC010590615070400110D8F75A
:103FB000809590958E0F9F1F0895FC016150704071
:103FC00001900110D8F7809590958E0F9F1F08954E
:103FD0000F931F93CF93DF93182F092FEB018B8142
:103FE00081FD09C01FEF0FEF812F902FDF91CF913F
:103FF0001F910F91089582FF14C02E813F818C8103
:104000009D81281739073CF4E881F981CF01019699
:104010009983888310838E819F8101969F838E83ED
:10402000E3CFE885F985812F1995892BA1F3DACFA4
:10403000FA01AA27283051F1203181F1E8946F93D9
:104040006E7F6E5F7F4F8F4F9F4FAF4FB1E03ED07F
:10405000B4E03CD0670F781F891F9A1FA11D680F1D
:10406000791F8A1F911DA11D6A0F711D811D911D50
:10407000A11D20D009F468943F912AE0269F1124C5
:104080003019305D3193DEF6CF010895462F477029
:10409000405D4193B3E00FD0C9F7F6CF462F4F7084
:1040A000405D4A3318F0495D31FD4052419302D0E2
:1040B000A9F7EACFB4E0A695979587957795679588
:1040C000BA95C9F700976105710508959B01AC0188
:1040D0000A2E06945795479537952795BA95C9F7AF
:1040E000620F731F841F951FA01D089512E0C9EE73
:1040F000D2E000E005C0802FFE01F0DB2196011D1B
:0E410000CA3ED10780E00807B1F7F894FFCF60
:10410E000000F3208000585242534400000000BAD1
:10411E00031D0352030A048303610375031B5B3300
:10412E00326D61746D65676140414B2D41544D3068
:10413E00301B5B306D3A1B5B33346D7E1B5B306D19
:10414E0024200052585F5461736B004C65645461B7
:10415E00736B005461736B31000D0A1B5B316D1B69
:10416E005B33326D094750494F2050696E205365BD
:10417E00741B5B306D0D0A0068696768006C6F77A1
:10418E000030001B5B316D1B5B33316D556E6B6EFA
:10419E006F776E2053746174653A200041766169C1
:1041AE006C61626C65204D6F646573206172653A57
:1041BE0009202731272C202768696768272C20279C
:1041CE0030272C20276C6F7727000950696E3A2014
:1041DE00091B5B316D1B5B33326D25641B5B306DD0
:1041EE000D0A00094D6F64653A20091B5B316D1B8A
:1041FE005B33316D484947481B5B306D00094D6F8D
:10420E0064653A20091B5B316D1B5B33326D4C4F7D
:10421E00571B5B306D000D0A50696E20737563631A
:10422E0065737366756C6C792073657421007265A5
:10423E00736574001B5B316D1B5B33316D4E4F54D8
:10424E0020494D504C454D454E544544204A455409
:10425E00211B5B306D00696E6974000D0A1B5B31AA
:10426E006D1B5B33326D0950696E20496E6974693E
:10427E00616C697A65721B5B306D0D0A00690069AD
:10428E006E707574006F7574006F75747075740050
:10429E0069700069207000696E207000696E207070
:1042AE00756C6C00696E2070756C6C757000696E43
:1042BE00707574207000696E7075742070756C6CFA
:1042CE0000696E7075742070756C6C7570001B5B78
:1042DE00316D1B5B33316D556E6B6E6F776E204D8E
:1042EE006F64653A2000417661696C61626C65208D
:1042FE004D6F646573206172653A0009494E5055E1
:10430E00543A20202020202020092769272C2027FE
:10431E00696E272C2027696E7075742700094F551A
:10432E00545055543A20202020202009276F272C46
:10433E0020276F7574272C20276F7574707574275E
:10434E000009494E5055545F50554C4C55503A0942
:10435E00276970272C2027692070272C2027696E4B
:10436E002070272C2027696E2070756C6C272C20EE
:10437E0027696E2070756C6C7570272C2027696EFE
:10438E007075742070272C2027696E7075742070DC
:10439E00756C6C272C2027696E7075742070756C87
:1043AE006C75702700094D6F64653A20091B5B31EF
:1043BE006D1B5B33336D494E5055541B5B306D0D89
:1043CE000A00094D6F64653A20091B5B316D1B5B5A
:1043DE0033366D494E5055545F50554C4C55501B0D
:1043EE005B306D0D0A00094D6F64653A20091B5B49
:1043FE00316D1B5B33356D4F55545055541B5B302F
:10440E006D0D0A000953746174653A20091B5B3106
:10441E006D1B5B33316D484947481B5B306D0D0A90
:10442E00000953746174653A20091B5B316D1B5B87
:10443E0033326D4C4F571B5B306D0D0A000D0A5019
:10444E00696E207375636365737366756C6C792022
:10445E00496E697469616C697A656421000D0A1B85
:10446E005B316D1B5B33326D0950696E2048656C94
:10447E00701B5B306D0D0A0009417661696C6162DB
:10448E006C6520436F6D6D616E64733A000909208F
:10449E00696E697420092D3E0920696E697469611F
:1044AE006C697A657320612070696E00090920734A
:1044BE00657420092D3E0920736574206120706992
:1044CE006E20746F20646566696E65642073746116
:1044DE0074650009092068656C7020092D3E09205D
:1044EE0073686F777320746869732068656C7000E9
:1044FE00090920696E666F20092D3E092073686FC9
:10450E00777320696E666F2061626F7574207468B0
:10451E00652070696E000D0A0D0A0053796E746184
:10452E0078205374727563747572653A2070696E73
:10453E00203C636F6D6D616E643E203C70696E4E03
:10454E00756D6265723E203C6172673E0D0A0069B0
:10455E006E666F000D0A1B5B316D1B5B33326D098E
:10456E004750494F2050696E20496E666F1B5B3075
:10457E006D0D0A001B5B316D1B5B33316D556E6B20
:10458E006E6F776E2050696E211B5B306D00095384
:10459E00746174653A20091B5B316D1B5B33316DA1
:1045AE00484947481B5B306D000953746174653A86
:1045BE0020091B5B316D1B5B33326D4C4F571B5B00
:1045CE00306D001B5B316D1B5B33316D496E766157
:1045DE006C69642050494E20636F6D6D616E64216D
:1045EE00207479706520696E202770696E20686569
:1045FE006C702720666F72206D6F726520696E6613
:10460E006F211B5B306D001B5B316D1B5B33326D9D
:10461E0053657269616C20496E746572666163657B
:10462E0020726561647920211B5B306D000A0D00DC
:10463E0073746172740073746F70002020202020D8
:10464E0020202048656C700D0A0020202020417625
:10465E0061696C61626C6520436F6D6D616E647330
:10466E003A002020202020202020726573657420BF
:10467E0020202D3E2020726573657420746865209D
:10468E0041726475696E6F0020202020202020204A
:10469E007461736B732020202D3E20204C6973743F
:1046AE0020746865207461736B7320616E6420746E
:1046BE00686F736520737461746573002020202009
:1046CE002020202073746172742020202D3E202023
:1046DE007374617274732061207461736B00202097
:1046EE0020202020202073746F70202020202D3E4B
:1046FE00202073746F70732061207461736B0020BF
:10470E002020202020202070696E20202020202DA7
:10471E003E202053657269616C2050696E2066756B
:10472E006E6374696F6E730053796E746178205383
:10473E0074727563747572653A203C636F6D6D614A
:10474E006E643E203C706172616D657465723E0DE3
:10475E000A007461736B73000D0A20202020202044
:10476E00205461736B204C6973740D0A0020202055
:10477E0020507265737320274553432720746F2092
:10478E0045786974210D0A0020204E616D65202048
:10479E002020207C205374617465207C2050726927
:1047AE006F72697479207C20537461636B207C2056
:1047BE004E756D207C002D2D2D2D2D2D2D2D2D2D5D
:1047CE002D2D2D2D2D2D2D2D2D2D2D2D2D2D2D2D0B
:1047DE002D2D2D2D2D2D2D2D2D2D2D2D2D2D2D2DFB
:1047EE002D2D2D001B5B73000925630925750925E9
:1047FE00750925750D0A001B5B256441001B5B4B7B
:10480E00001B5B316D1B5B33316D496E76616C69DC
:10481E006420636F6D6D616E642120747970652004
:10482E00696E202768656C702720666F72206D6F29
:10483E00726520696E666F211B5B306D0D0A004933
:10484E00444C4500546D725100546D722053766382
:02485E00000058
:020000023000CC
:10E000000D9489F10D94B2F10D94B2F10D94B2F129
:10E010000D94B2F10D94B2F10D94B2F10D94B2F1F0
:10E020000D94B2F10D94B2F10D94B2F10D94B2F1E0
:10E030000D94B2F10D94B2F10D94B2F10D94B2F1D0
:10E040000D94B2F10D94B2F10D94B2F10D94B2F1C0
:10E050000D94B2F10D94B2F10D94B2F10D94B2F1B0
:10E060000D94B2F10D94B2F10D94B2F10D94B2F1A0
:10E070000D94B2F10D94B2F10D94B2F10D94B2F190
:10E080000D94B2F10D94B2F10D94B2F10D94B2F180
:10E090000D94B2F10D94B2F10D94B2F10D94B2F170
:10E0A0000D94B2F10D94B2F10D94B2F10D94B2F160
:10E0B0000D94B2F10D94B2F10D94B2F10D94B2F150
:10E0C0000D94B2F10D94B2F10D94B2F10D94B2F140
:10E0D0000D94B2F10D94B2F10D94B2F10D94B2F130
:10E0E0000D94B2F141546D656761323536300041AF
:10E0F000726475696E6F206578706C6F72657220DE
:10E1000073746B3530305632206279204D4C530099
:10E11000426F6F746C6F616465723E004875683F52
:10E1200000436F6D70696C6564206F6E203D200048
:10E130004350552054797065202020203D20005FF9
:10E140005F4156525F415243485F5F3D2000415658
:10E1500052204C696243205665723D20004743437C
:10E160002056657273696F6E203D20004350552024
:10E1700049442020202020203D20004C6F7720663D
:10E18000757365202020203D20004869676820665F
:10E190007573652020203D200045787420667573D6
:10E1A00065202020203D20004C6F636B2066757336
:10E1B000652020203D20004D617220203720323024
:10E1C000313300312E362E3800342E332E350056A2
:10E1D00023202020414444522020206F7020636F70
:10E1E00064652020202020696E73747275637469E1
:10E1F0006F6E2061646472202020496E74657272B3
:10E20000757074006E6F20766563746F7200726A49
:10E210006D702020006A6D70200057686174207056
:10E220006F72743A00506F7274206E6F7420737541
:10E2300070706F72746564004D7573742062652030
:10E2400061206C6574746572002000577269747483
:10E25000696E672045450052656164696E672045B7
:10E26000450045452065727220636E743D00504F35
:10E27000525400303D5A65726F2061646472003FF1
:10E280003D43505520737461747300403D454550C3
:10E29000524F4D207465737400423D426C696E6B41
:10E2A000204C454400453D44756D70204545505215
:10E2B0004F4D00463D44756D7020464C415348001B
:10E2C000483D48656C70004C3D4C69737420492F83
:10E2D0004F20506F72747300513D51756974005234
:10E2E0003D44756D702052414D00563D73686F7707
:10E2F00020696E7465727275707420566563746FF0
:10E30000727300593D506F727420626C696E6B00BD
:10E310002A0011241FBECFEFD1E2DEBFCDBF01E046
:10E320000CBF12E0A0E0B2E0EEE1FDEF03E00BBFB6
:10E3300002C007900D92A030B107D9F712E0A0E01B
:10E34000B2E001C01D92AE30B107E1F70F9460F367
:10E350000D948DFE01E20EBF0FEF0DBF11241FBE05
:10E360000D9460F30D9400F020E030E040ED57E0B4
:10E3700005C0FA013197F1F72F5F3F4F2817390792
:10E38000C0F308959C01260F311DC901A0E0B0E043
:10E390002F5F3F4FABBFFC018791882361F08093D3
:10E3A000C6008091C00086FFFCCF8091C0008064D1
:10E3B0008093C000EACF08958DE08093C6008091DD
:10E3C000C00086FFFCCF8091C00080648093C000B5
:10E3D0008AE08093C6008091C00086FFFCCF8091C8
:10E3E000C00080648093C00008950F94C2F10F9420
:10E3F000DCF10895FC019081992359F09093C600B7
:10E400008091C00086FFFCCF8091C0008064809323
:10E41000C0003196992379F70895282F982F929567
:10E420009F70892F805D8A3308F0895F8093C600D2
:10E430008091C00086FFFCCF8091C00080648093F3
:10E44000C000822F8F70982F905D9A3308F0995FEB
:10E450009093C6008091C00086FFFCCF8091C000E1
:10E4600080648093C00008959C01FB01853691056E
:10E470001CF46330710594F0C90164E670E00F94F8
:10E480002EFE605D7F4F6093C6008091C00086FFC6
:10E49000FCCF8091C00080648093C0002B30310598
:10E4A00014F43297B4F0C90164E670E00F942EFEC4
:10E4B0006AE070E00F942EFE605D7F4F6093C600AF
:10E4C0008091C00086FFFCCF8091C0008064809363
:10E4D000C000C9016AE070E00F942EFEC0968093E0
:10E4E000C6008091C00086FFFCCF8091C000806490
:10E4F0008093C00008951F93182F8EE692EE60E07F
:10E500000F94C2F11093C6008091C00086FFFCCF2B
:10E510008091C00080648093C0000F94DCF11F9153
:10E5200008952F923F924F925F926F927F928F92B7
:10E530009F92AF92BF92CF92DF92EF92FF920F9392
:10E540001F93DF93CF93CDB7DEB762970FB6F894E2
:10E55000DEBF0FBECDBF382E622ECA01DB015C01CB
:10E560006D01772420E2222E2E010894411C511CBB
:10E570008BC081E0A81680E0B80681E0C80680E084
:10E58000D80628F0C601AA27BB270F940DF2BB2797
:10E59000AD2D9C2D8B2D0F940DF28A2D0F940DF225
:10E5A0002092C6008091C00086FFFCCF8091C00001
:10E5B00080648093C0009DE29093C6008091C0006B
:10E5C00086FFFCCF8091C00080648093C0002092C1
:10E5D000C6008091C00086FFFCCF8091C00080649F
:10E5E0008093C00019828601750188249924A1E0D6
:10E5F0003A1651F03A1620F0B2E03B1661F409C029
:10E600000BBFF701779007C0C7010F9477FE782EF4
:10E6100002C0F7017080872D0F940DF22092C60082
:10E620008091C00086FFFCCF8091C0008064809301
:10E63000C000872D8052F401EF70F0708F3520F408
:10E64000E40DF51D708204C0E40DF51D8EE280839B
:10E650000894E11CF11C011D111D0894811C911CE2
:10E6600090E18916910409F0C2CF80E190E0A0E02A
:10E67000B0E0A80EB91ECA1EDB1E198AC2010F9493
:10E68000FAF10F94DCF16A94662009F072CF629679
:10E690000FB6F894DEBF0FBECDBFCF91DF911F91B3
:10E6A0000F91FF90EF90DF90CF90BF90AF909F9031
:10E6B0008F907F906F905F904F903F902F90089534
:10E6C0002F923F924F925F926F927F928F929F9282
:10E6D000AF92BF92CF92DF92EF92FF920F931F9370
:10E6E000DF93CF93CDB7DEB7CD53D1400FB6F894BB
:10E6F000DEBF0FBECDBF01E20EBF0FEF0DBF94B75F
:10E70000F894A89514BE80916000886180936000A1
:10E7100010926000789493FF05C0E0910002F091A0
:10E7200001021995279A2F9A8091C00082608093E8
:10E73000C00080E18093C40088E18093C1000000A4
:10E74000EE24FF24870144E0A42EB12CCC24DD2448
:10E7500024C0C5010197F1F70894E11CF11C011DCB
:10E76000111D21E2E2162EE4F20620E0020720E06D
:10E77000120718F031E0C32ED12CC801B70127ECE5
:10E780003BE140E050E00F9441FE611571058105C9
:10E79000910519F485B1805885B98091C00087FD35
:10E7A00003C0C114D104A9F2A6014F5F5F4FC25E3E
:10E7B000DE4F59834883CE51D140C25EDE4F8881FF
:10E7C0009981CE51D140019711F00D9410FEC05D9A
:10E7D000DE4F19821882C053D14060E0C15DDE4F28
:10E7E0001882CF52D14088249924C35DDE4F19820C
:10E7F0001882CD52D140C05EDE4F188219821A8233
:10E800001B82C052D140CE5CDE4F188219821A8220
:10E810001B82C253D140EE24FF2487010BBFF701B6
:10E8200007911691C45CDE4F19830883CC53D14005
:10E830000D940BFEC25EDE4F28813981CE51D1404E
:10E840002130310509F52091C600C25EDE4F1982E4
:10E850001882CE51D14022C02F5F3F4F4F4F5F4FA4
:10E86000213082E138078AE7480780E0580780F0C6
:10E87000C45CDE4FE881F981CC53D140EF5FFF4F9C
:10E8800019F0EE27FF27099420E030E040E050E047
:10E890008091C00087FFE0CF2091C600C35DDE4FAE
:10E8A00048815981CD52D1404F5F5F4FC35DDE4FEC
:10E8B00059834883CD52D140213209F063C64A3092
:10E8C000510508F05FC60894811C911C53E0851621
:10E8D000910409F059C600E010E018C081E280936D
:10E8E000C6008091C00086FFFCCF8091C00080648C
:10E8F0008093C0002F5F3F4F2931310579F70F9486
:10E90000DCF10F5F1F4F0530110519F020E030E0FA
:10E91000E5CF10920A0210920B0210920C02109294
:10E920000D02109206021092070210920802109235
:10E930000902109202021092030210920402109235
:10E9400005028FEE90EE60E00F94F5F180E191EE1C
:10E9500060E00F94C2F18091C00087FFFCCF9091DE
:10E96000C600903608F09F759032B8F09093C600BC
:10E970008091C00086FFFCCF8091C00080648093AE
:10E98000C000A0E2A093C6008091C00086FFFCCF2B
:10E990008091C00080648093C000983409F4D7C18E
:10E9A0009934B8F4923409F459C1933458F490333B
:10E9B00019F1903308F4E3C59F33A1F1903409F0C5
:10E9C000DEC5BDC0953409F470C1963409F0D7C5D1
:10E9D00098C1923509F42BC2933538F49C3409F46C
:10E9E000F5C1913509F0CBC518C2963509F445C279
:10E9F000993509F0C4C567C483E792EE62E00F94CD
:10EA0000F5F110920602109207021092080210927D
:10EA1000090210920A0210920B0210920C0210923C
:10EA20000D0213C18FE792EE62E00F94F5F18FEEC5
:10EA300090EE60E00F94F5F181E291EE60E00F94CA
:10EA4000C2F187EB91EE60E00F94F5F180E391EE77
:10EA500060E00F94C2F184EE90EE60E00F94F5F167
:10EA60008FE391EE60E00F94C2F186E090E061E008
:10EA700070E00F9434F20F94DCF18DE591EE60E0DC
:10EA80000F94C2F189EC91EE60E00F94F5F18EE401
:10EA900091EE60E00F94C2F183EC91EE60E00F9490
:10EAA000F5F18CE691EE60E00F94C2F18EE10F94E7
:10EAB0000DF288E90F940DF281E00F940DF20F949E
:10EAC000DCF18BE791EE60E00F94C2F119E0E0E039
:10EAD000F0E010935700E4918E2F0F940DF20F94F5
:10EAE000DCF18AE891EE60E00F94C2F1E3E0F0E03F
:10EAF00010935700E4918E2F0F940DF20F94DCF1D8
:10EB000089E991EE60E00F94C2F1E2E0F0E0109349
:10EB10005700E4918E2F0F940DF20F94DCF188EAE8
:10EB200091EE60E00F94C2F1E1E0F0E01093570045
:10EB30001491812F0F940DF20F94DCF107CF8BE825
:10EB400092EE62E00F94F5F18BE492EE60E00F94A8
:10EB5000F5F10F94DCF100E010E019C0C8016F2D51
:10EB60000F947FFEFF2031F489E492EE60E00F9471
:10EB7000C2F10BC0F092C6008091C00086FFFCCFAE
:10EB80008091C00080648093C0000F5F1F4FC80158
:10EB900081519F41A0E0B0E0ABBFFC01F790BAE229
:10EBA000FB1621F0E2E000301E07C1F60F94DCF105
:10EBB0000F94DCF187E592EE60E00F94F5F10F948D
:10EBC000DCF1CC24DD2400E010E01EC0C8010F946D
:10EBD00077FEF82E882331F489E492EE60E00F94FA
:10EBE000C2F10BC08093C6008091C00086FFFCCFAD
:10EBF0008091C00080648093C000FE1419F00894D6
:10EC0000C11CD11C0F5F1F4FC80181519F41A0E063
:10EC1000B0E0ABBFFC01E790FAE2EF1621F022E092
:10EC20000030120799F60F94DCF10F94DCF182E6C4
:10EC300092EE60E00F94C2F1C60161E070E00F94C3
:10EC400034F20F94DCF10F94DCF110920202109276
:10EC50000302109204021092050278CE89E992EE26
:10EC600062E00F94F5F1279A2F9A16C02F9880E052
:10EC700090E0E0EDF7E03197F1F7019684369105E9
:10EC8000C1F72F9A80E090E0E0EDF7E03197F1F7DF
:10EC9000019684369105C1F78091C00087FFE6CFC9
:10ECA0008091C00087FFFCCF64C485EA92EE62E0E9
:10ECB0000F94F5F140910202509103026091040219
:10ECC0007091050281E020E10F9491F2809102029F
:10ECD00090910302A0910402B091050280509F4FD1
:10ECE000AF4FBF4F8093020290930302A0930402A0
:10ECF000B093050280509041A040B04008F426CE69
:10ED0000A4CF83EB92EE62E00F94F5F140910602FE
:10ED100050910702609108027091090280E020E1A1
:10ED20000F9491F28091060290910702A09108023F
:10ED3000B091090280509F4FAF4FBF4F80930602A2
:10ED400090930702A0930802B0930902FFCD80ECD4
:10ED500092EE62E00F94F5F183E792EE60E00F949B
:10ED6000F5F18FE792EE60E00F94F5F18BE892EE0B
:10ED700060E00F94F5F189E992EE60E00F94F5F10F
:10ED800085EA92EE60E00F94F5F183EB92EE60E09D
:10ED90000F94F5F180EC92EE60E00F94F5F187ECC2
:10EDA00092EE60E00F94F5F188ED92EE60E00F9442
:10EDB000F5F18FED92EE60E00F94F5F18AEE92EEB0
:10EDC00060E00F94F5F183E093EEBDCD87EC92EE19
:10EDD00062E00F94F5F181E40F947BF282E40F94EA
:10EDE0007BF283E40F947BF284E40F947BF285E45E
:10EDF0000F947BF286E40F947BF287E40F947BF20E
:10EE000088E40F947BF28AE40F947BF28BE40F94F6
:10EE10007BF28CE40F947BF299CD88ED92EE62E068
:10EE20000F94F5F1772473948824992409C48FED05
:10EE300092EE62E00F94F5F140910A0250910B02BC
:10EE400060910C0270910D0282E020E10F9491F22A
:10EE500080910A0290910B02A0910C02B0910D02D8
:10EE600080509F4FAF4FBF4F80930A0290930B0289
:10EE7000A0930C02B0930D0269CD8AEE92EE62E08F
:10EE80000F94F5F184EE90EE60E00F94F5F18FECC5
:10EE900091EE60E00F94F5F1662477244301CC5D98
:10EEA000DE4F19821882C452D140D401C301B695F5
:10EEB000A79597958795CA5DDE4F88839983AA8326
:10EEC000BB83C652D140CC5DDE4FA881B981C4520C
:10EED000D1401196CC5DDE4FB983A883C452D14096
:10EEE000CD0162E070E00F9434F2B0E2B093C6005E
:10EEF0008091C00086FFFCCF8091C0008064809329
:10EF0000C000EDE2E093C6008091C00086FFFCCF18
:10EF10008091C00080648093C000F0E2F093C6004E
:10EF20008091C00086FFFCCF8091C00080648093F8
:10EF3000C000CA5DDE4FE880F9800A811B81C6529D
:10EF4000D140BB27A12F902F8F2D0F940DF2CA5DBA
:10EF5000DE4F8881C652D1400F940DF2B0E2FB2EF5
:10EF6000F092C6008091C00086FFFCCF8091C00067
:10EF700080648093C0000DE30093C6008091C000C0
:10EF800086FFFCCF8091C00080648093C00010E2B7
:10EF90001093C6008091C00086FFFCCF8091C00016
:10EFA00080648093C0008BBEF3012791C65DDE4F65
:10EFB0002883CA52D140A22EBB24CC24DD2408943D
:10EFC000611C711C811C911C8BBEF3018791282E42
:10EFD0003324442455240894611C711C811C911C09
:10EFE0008BBEF3013791C55DDE4F3883CB52D140E4
:10EFF0000894611C711C811C911C8BBEF30147910C
:10F00000C45DDE4F4883CC52D140ADEFEA2EAFEF66
:10F01000FA2EAFEF0A2FAFEF1A2F6E0C7F1C801E57
:10F02000911E142D032DF22CEE24EA0CFB1C0C1D5A
:10F030001D1D0F940DF220E22093C6008091C000A8
:10F0400086FFFCCF8091C00080648093C000C65DC5
:10F05000DE4F8881CA52D1400F940DF230E23093D6
:10F06000C6008091C00086FFFCCF8091C000806404
:10F070008093C000C45DDE4F8881CC52D1400F9494
:10F080000DF240E24093C6008091C00086FFFCCFA5
:10F090008091C00080648093C000C55DDE4F888190
:10F0A000CB52D1400F940DF250E25093C6008091A4
:10F0B000C00086FFFCCF8091C00080648093C000B8
:10F0C0008FEFE8168FEFF80680E0080780E018075A
:10F0D00031F484E092EE60E00F94C2F1DFC0D80119
:10F0E000C7018070907CA070B0708050904CA040A0
:10F0F000B040D1F52FEF3FE340E050E0E222F322B1
:10F1000004231523CA5DDE4FA880B980CA80DB8046
:10F11000C652D140AE0CBF1CC01ED11EAA0CBB1CD7
:10F12000CC1CDD1C8EE092EE60E00F94C2F1BB2798
:10F13000A12F902F8F2D0F940DF28E2D0F940DF285
:10F1400030E23093C6008091C00086FFFCCF8091F2
:10F15000C00080648093C0004EE34093C60080915D
:10F16000C00086FFFCCF87C08EE09EEFA0E0B0E03D
:10F17000E822F9220A231B239CE0E91694E9F90608
:10F1800090E0090790E0190709F088C0C45DDE4FE0
:10F19000A881CC52D140EA2EFF2400E010E0102FCD
:10F1A0000F2DFE2CEE24C55DDE4FB881CB52D14031
:10F1B000EB0EF11C011D111DD601C501817090706F
:10F1C000A070B070DC0199278827E80EF91E0A1F8D
:10F1D0001B1F20EF30E040E050E0A222B322C42207
:10F1E000D52241E1AA0CBB1CCC1CDD1C4A95D1F7F1
:10F1F000EA0CFB1C0C1D1D1D81E090E0A0E0B0E0BE
:10F20000282239224A225B2235E1220C331C441C7D
:10F21000551C3A95D1F7E20CF31C041D151D57013E
:10F220006801AA0CBB1CCC1CDD1C85E192EE60E0E1
:10F230000F94C2F1C801AA27BB270F940DF2BB2778
:10F24000A12F902F8F2D0F940DF28E2D0F940DF274
:10F2500090E29093C6008091C00086FFFCCF809121
:10F26000C00080648093C000AEE3A093C60080918C
