:10000000E9C2000018C3000016C3000014C30000BA
:1000100012C3000010C300000EC300000CC3000098
:100020000AC3000008C3000006C3000004C30000A8
:100030000C94B81900C30000FEC20000FCC200000E
:10004000FAC20000F8C20000F6C20000F4C20000CC
:10005000F2C20000F0C20000EEC200000C946F0F6C
:10006000EAC200000C94E30F0C94B90FE4C2000044
:10007000E2C20000E0C20000DEC20000DCC20000FC
:10008000DAC20000D8C20000D6C20000D4C200000C
:10009000D2C20000D0C20000CEC20000CCC200001C
:1000A000CAC20000C8C20000C6C20000C4C200002C
:1000B000C2C20000C0C20000BEC20000BCC200003C
:1000C000BAC20000B8C20000B6C20000B4C200004C
:1000D000B2C20000B0C20000AEC20000ACC200005C
:1000E000AAC2000000002100240027002A002D00E1
:1000F0003000330001010000040107010A01000083
:100100002200250028002B002E00310034000201BF
:100110000000050108010B0100002000230026005B
:1001200029002C002F00320000010000030106010D
:10013000090105050505070508080808020202026D
:100140000A0A080804040404010101010101010173
:100150000303030303030303040707070C0C0C0C3E
:100160000C0C0C0C02020202060606060606060627
:100170000B0B0B0B0B0B0B0B0102102020080810B4
:100180002040102040800201020108040201010207
:1001900004081020408080402010080402018004E0
:1001A000020180402010080402010804020101023B
:1001B0000408102040800102040810204080000044
:1001C0000A0B02090C0D0E080703040100000000D1
:1001D000000000000000000000000000000000001F
:1001E00000000000000000000000121110000000DC
:1001F00000000000000000000000000000000000FF
:1002000000000000CF93DF9300D000D000D01F92F9
:10021000CDB7DEB7E091AF1FF091B01FF08010E0D6
:1002200000E0FF2029F00580F681E02D008111819A
:100230000E9456100E944C106C0180916B1F90918F
:100240006C1FC816D90608F07EC00E94DF14D09239
:100250006C1FC0926B1F0E94B1120091D31F1091AE
:10026000D41F1A86198680E06801B1E1CB0ED11C3B
:100270000FB6F8940F92F801F28CFF2009F41AC11E
:10028000448D4423C1F050E086819781840F951FEF
:1002900097838683248135818217930720F080819C
:1002A000918197838683D80116966D917C91CE01BA
:1002B00001960E94F71DFA94F801F28E808588233A
:1002C00039F0C80108960E94AB1081110E94EB1111
:1002D0000F900FBED980D7FCC0CF0C811D81D801F3
:1002E0001A968D919C91892B21F0C80102960E944B
:1002F00087100E944C107C0180916B1F90916C1FA5
:10030000E816F90610F40E94DF14F0926C1FE092D8
:100310006B1FB9E0BD1508F4A0CFED2DDD0CFF0B70
:10032000D80153969C918827E756FE4F8F4F0C9427
:100330000B1D1D021D021D02550240024F021D022F
:100340001D0255024002D0926C1FC0926B1FFF200D
:1003500099F1C016D106C0F10E94B112E091AF1F11
:10036000F091B01F0580F681E02DE680F780C7018F
:1003700002960E948710D70153968C91539782FF63
:1003800017C01C966D917C91600F711F9801A6019A
:10039000C7010E945D11882321F0B801C7010E94A6
:1003A000B914D7015096ED91FC91C701199555CF1D
:1003B0008E7FF701838BF5CFE091AD1FF091AE1FDB
:1003C0008081BB24B3948111B12CE090D31FF090B5
:1003D000D41F0FB6F8940F92F701858D8F3F09F463
:1003E000158ED7015E968C915E978F3F11F45E96C5
:1003F0001C920F900FBEF701828D811114C0609185
:10040000560970915709645F7F4FC70141960E945A
:100410006710C8018C199D09BB2011F08FEF9FEF69
:100420006B2D0E948611C7010E94E7100E94B11235
:10043000811113CF0E94EB1110CF9160F801938BC3
:10044000CA80DB80648575856C0D7D1D9601A701D2
:10045000C8010E945D11882309F4FFCED80150968F
:10046000ED91FC91C8011995F801838982FFF5CEC1
:10047000648575856C0D7D1DC8010E94B914EDCE93
:100480009160F801938B6A817B81758764876E0D1B
:100490007F1D9701A701C8010E945D11DECE91FD6D
:1004A00004C0C8010E94E615D8CE9E7FD80153969D
:1004B0009C93D3CE29853A85232B19F40F900FBE38
:1004C000A9CE811109C08091D71F8E838091D51F3D
:1004D0009091D61F98878F830F900FBE0E94561061
:1004E0000FB6F8940F92D8015D968C915D978F3F6F
:1004F00011F45D961C92F801868D8F3F09F4168EDB
:100500000F900FBEBE01675F7F4FCE0106960E941F
:100510001910811125C0C8010E945C108823D1F0F8
:10052000E984FA846091560970915709645F7F4F9E
:10053000C6010E94271161E0C7010E948611C8010F
:100540000E94E7100E94B112811102C00E94EB11BB
:1005500081E08ECEC8010E94E7100E94B112F8CF50
:10056000C8010E94E7100E94B112C8010E945C10ED
:10057000882371F34FCE8091671F811108C080914D
:100580000920823010F00E94EB1163D1F4CF0FB636
:10059000F8940F92E091EA1FF091EB1FC681D7818A
:1005A000CE0102960E948710809130208150809366
:1005B00030208091671F81508093671F0F900FBE7E
:1005C0008F89988D0E94E615CE010E94E615D3CF43
:1005D000CE19BA1911241FBECFEFD1E2DEBFCDBFB5
:1005E00000E00CBF19E0A0E0B2E0E8E4F2E400E0D3
:1005F0000BBF02C007900D92A635B107D9F720E2D4
:10060000A6E5B9E001C01D92AC3FB207E1F712E0E8
:10061000C9EED2E000E006C021970109802FFE015B
:100620000E940B1DC83ED10780E00807A9F70E9471
:100630003E1A0C941321E4CC0895AF92BF92CF924E
:10064000DF92EF92FF920F931F93CF93DF936C0192
:100650007B018B01040F151FEB015E01AE18BF0873
:10066000C017D10759F06991D601ED91FC91019025
:10067000F081E02DC6011995892B79F7C501DF912D
:10068000CF911F910F91FF90EF90DF90CF90BF908F
:10069000AF900895FC01448155816081718181E3AF
:1006A00090E2CBCFFC01538D448D252F30E0842F79
:1006B00090E0821B930B541710F0CF96089501978A
:1006C0000895FC01918D828D981761F0A28DAE0F77
:1006D000BF2FB11D5D968C91928D9F5F9F73928FFE
:1006E00090E008958FEF9FEF0895FC01918D828D2A
:1006F000981731F0828DE80FF11D858D90E00895F7
:100700008FEF9FEF0895FC01918D228D892F90E04E
:10071000805C9F4F821B91098F739927089581E315
:1007200090E2F1DF21E0892B09F420E0822F089587
:10073000FC01A48DA80FB92FB11DA35ABF4F2C9156
:10074000848D90E001968F739927848FA689B7894D
:100750002C93A089B1898C91837080648C93938D44
:10076000848D981306C00288F389E02D80818F7DE7
:1007700080830895EF92FF920F931F93CF93DF939F
:10078000EC0181E0888F9B8D8C8D98131AC0E889CD
:10079000F989808185FF15C09FB7F894EE89FF899C
:1007A0006083E889F98980818370806480839FBF3A
:1007B00081E090E0DF91CF911F910F91FF90EF903A
:1007C0000895F62E0B8D10E00F5F1F4F0F7311274A
:1007D000E02E8C8D8E110BC00FB607FCFACFE88986
:1007E000F989808185FFF5CFCE01A2DFF2CFEB8DB5
:1007F000EC0FFD2FF11DE35AFF4FF0829FB7F894E5
:100800000B8FEA89FB8980818062D0CF682F81E3DA
:1008100090E2B0CFCF93DF93EC01888D8823B1F0C5
:10082000AA89BB89E889F9898C9185FD03C08081FB
:1008300086FD0CC00FB607FCF7CF8C9185FFF2CF79
:10084000808185FFEDCFCE0173DFEACFDF91CF91BD
:10085000089580E090E0892B21F061DF81110E94F2
:10086000000080E090E0892B49F080E090E0892B47
:1008700029F00E94000081110E94000080E090E0B9
:10088000892B49F080E090E0892B29F00E9400003C
:1008900081110E94000080E090E0892B49F080E007
:1008A00090E0892B29F00E94000081110C94000037
:1008B00008958150823108F05AC0E82FF0E088276F
:1008C000EB59FB4F8F4F0C940B1D85048904770463
:1008D0007D048104B7048C04920496049C04A00453
:1008E000A404AA04AE04B704B204B804BC04809102
:1008F00080008F77809380000895809180008F7DA5
:10090000F9CF80918000877FF5CF84B58F7784BD44
:10091000089584B58F7DFBCF8091B0008F77809351
:10092000B00008958091B0008F7DF9CF8091900044
:100930008F77809390000895809190008F7DF9CFFC
:1009400080919000877FF5CF8091A0008F77809372
:10095000A00008958091A0008F7DF9CF8091A00024
:10096000877FF5CF809120018F77809320010895B4
:10097000809120018F7DF9CF80912001877FF5CF75
:10098000CF93DF93282F30E0F901E254FE4F84919A
:10099000F901E858FE4FD491F901EE5CFE4FC49185
:1009A000CC2399F0811185DFEC2FF0E0EE0FFF1FD3
:1009B000E85EFE4FA591B491EC91ED2381E090E0CB
:1009C00009F480E0DF91CF91089580E090E0FACFC4
:1009D0001F93CF93DF93282F30E0F901E254FE4FAD
:1009E0008491F901E858FE4FD491F901EE5CFE4F75
:1009F000C491CC23A1F0162F81115BDFEC2FF0E026
:100A0000EE0FFF1FE250FF4FA591B4918FB7F894FE
:100A1000EC91111108C0D095DE23DC938FBFDF91DC
:100A2000CF911F910895DE2BF8CFCF92DF92EF92F6
:100A3000FF920F931F93CF93DF936B017C01C091C3
:100A4000D420D091D52060E08091CE20C1DF60E03D
:100A50008091D020BDDF60E08091D220B9DF01E03D
:100A600010E0D7FD26C0C8010C2E02C0880F991FC8
:100A70000A94E2F7092E000CAA0BBB0B8C219D21D6
:100A8000AE21BF2161E0892B8A2B8B2B09F460E01A
:100A90008091D0209DDF61E08091D22099DF60E0DD
:100AA0008091D02095DF60E08091D22091DF219766
:100AB000D8CF61E08091CE20DF91CF911F910F912F
:100AC000FF90EF90DF90CF9083CFCF93DF9390E0B4
:100AD000FC01E858FE4F24918E5C9E4FFC018491EE
:100AE0008823C9F090E0880F991FFC01EC51FF4F5B
:100AF000A591B491FC01E250FF4FC591D4916111D1
:100B00000DC09FB7F8948C91209582238C93888197
:100B1000282328839FBFDF91CF910895623051F43D
:100B20009FB7F8943C91822F809583238C93E88122
:100B30002E2BEFCF8FB7F894EC912E2B2C938FBFE9
:100B4000EACFE091DA1FF091DB1F8081811107C0AD
:100B50008FEF9FEF9093C61F8093C51F0895E0917C
:100B6000DA1FF091DB1F0580F681E02D0680F7810A
:100B7000E02D82819381EECFCF93DF93FC01A3E63A
:100B8000BFE1CD91DC911197CE17DF07A0F112964E
:100B90002D913C911397CD01820F931FE817F90710
:100BA00049F482819381820F931F13969C938E93B5
:100BB0001297FD0122813381CF01820F931FC81745
:100BC000D907D9F48091611F9091621FC817D90786
:100BD000A1F08A819B81820F931F938382838881F6
:100BE000998191838083EA17FB0711F0ED93FC93C1
:100BF000DF91CF910895DE01C4CFD183C083F3CFBD
:100C0000FC0101900020E9F73197AF01481B590B17
:100C1000BC0181E390E211CD88E196E0F1CFCF9362
:100C2000DF93EEDFEC01F8DF8C0F9D1FDF91CF919A
:100C300008958DE192E0E4CFCF93DF93EC018DE056
:100C400090E0E4DDCE01EBDFDF91CF91F2CFCF93E7
:100C5000DF93CDB7DEB7D2500FB6F894DEBF0FBE2C
:100C6000CDBFAE01465F5D4FC85FDD4F68817981C2
:100C7000C850D240CE0101960E94511EAC01BE0167
:100C80006F5F7F4F81E390E2D8DCDE5F0FB6F894B0
:100C9000DEBF0FBECDBFDF91CF9108952091F02030
:100CA0003091F1208217930758F4E091EC20F091F5
:100CB000ED20E80FF91F9093F1208093F02010822F
:100CC0000895FC0180819181009711F00C94471CDC
:100CD0000895CF93DF93FC01248135814217530798
:100CE00088F4C081D181062E000C770BCE01840FD1
:100CF000951F0E94071E009729F08C1B9D0BDF910A
:100D0000CF9108958FEF9FEFFACFEF92FF920F935D
:100D10001F93CF93DF938617970769F1FC01248116
:100D20003581FB014481558124173507E1F4232BDC
:100D300011F1FC0100811181FB01C081D181F80119
:100D400081918F018823B9F0082E000C990B0E9425
:100D5000EF1D7C018991082E000C990B0E94EF1D5C
:100D6000E816F90661F380E0DF91CF911F910F91B2
:100D7000FF90EF90089581E0F7CFFC012481358149
:100D8000232B39F421E0FB018081882349F020E006
:100D900007C0808191810E94121E21E0892BB9F742
:100DA000822F08950F931F93CF93DF938C01EB0154
:100DB000FC01808191810097E1F068817981611562
:100DC0007105A9F0428153812C813D81421753075F
:100DD00070F00E941B1E8C819D81F8019583848395
:100DE0001D821C82DF91CF911F910F9108950E9467
:100DF000471C88819981F801918380838A819B8136
:100E0000938382838C819D81958384831982188248
:100E10001B821A82E5CF0F931F93CF93DF93EC01D0
:100E200088819981009759F02A813B8126173707DD
:100E300030F081E0DF91CF911F910F9108958B01E8
:100E40006F5F7F4F0E94131D009759F0998388832D
:100E50001B830A832C813D81232B59F7FC011082CF
:100E6000E8CF80E0E7CFEF92FF920F931F93CF93ED
:100E7000DF93EC017B018A01BA01CDDF2881398142
:100E8000811114C02115310519F0C9010E94471CB8
:100E9000198218821D821C821B821A82CE01DF9168
:100EA000CF911F910F91FF90EF9008951D830C83B8
:100EB000B701C9010E941B1EF1CFFB010190002068
:100EC000E9F73197AF01461B570BCDCFFB01DC0192
:100ED00011961C921E9213961C921E9212971596B2
:100EE0001C921E9214978617970741F060817181BA
:100EF0006115710519F044815581B5CF0895FC0144
:100F0000118210821382128215821482FB010190D9
:100F10000020E9F73197AF01461B570BA4CFAF92E2
:100F2000BF92CF92DF92EF92FF920F931F93CF93D6
:100F3000DF93EC015B016A0179012417350720F486
:100F40008D2D6901E42EF82E6AE176E0CE01D7DF1F
:100F5000D50114960D911C91C016D106E0F4E0164F
:100F6000F10608F48701D501ED91FC911197E00F8E
:100F7000F11FF08010826D917C916C0D7D1D6115CB
:100F80007105A9F0CE0199DFF50180819181080FEB
:100F9000191FD801FC92CE01DF91CF911F910F91C3
:100FA000FF90EF90DF90CF90BF90AF900895888131
:100FB0009981009711F00E94471C198218821D82A6
:100FC0001C821B821A82E0CF61E08DE07EDD8EE321
:100FD00090E00E94171661E08DE0FADC8FE090E06F
:100FE0000E94171660E08DE0F3DC8FE090E00E9435
:100FF000171661E08DE0ECDC8FE090E00E941716A0
:1010000060E08DE0E5DCE3CF61E086E15EDD61E09C
:1010100088E15BDD61E087E158DDC12CD12C7601F0
:10102000C394D0E0C0E060E08091CE20D1DC00919C
:10103000D6201091D7202091D8203091D920C701F7
:10104000B6010C2E04C0660F771F881F991F0A94E3
:10105000D2F7602B712B822B932B6093D620709349
:10106000D7208093D8209093D920DFDC61E0809155
:10107000CE20AEDC209771F160E08091CE20A8DC1C
:10108000CE010197A701960104C0220F331F441F10
:10109000551F8A95D2F7CA01B90160957095809560
:1010A00090950091D6201091D7202091D820309192
:1010B000D92060237123822393236093D6207093D9
:1010C000D7208093D8209093D920AFDC61E0809125
:1010D000CE207EDC83E090E00E9417162196C83176
:1010E000D10509F0A0CF0E94EB119BCF0F931F9366
:1010F000E1E3F0E2A089B18982E08C93A485B58513
:101100001C92A685B78580E18C93108EA489B58941
:1011100086E08C93A289B3898C9180618C93A2899B
:10112000B3898C9188608C93A289B3898C918068F3
:101130008C930288F389E02D80818F7D808310E07D
:1011400000E021E040E052E063E472E085E49CE0EE
:101150000E94B4181F910F9108950F931F9310E0F0
:1011600000E021E040E850E06BE472E084EE97E0BC
:101170000E94B4181F910F9108950F931F9310E0D0
:1011800000E021E040EA50E063E572E084E098E0AE
:101190000E94B4181F910F910895AF92BF92CF9201
:1011A000DF92EF92FF920F931F93CF93DF93CDB710
:1011B000DEB72C970FB6F894DEBF0FBECDBF8C0103
:1011C00050E040E06DE085DD9C0150E040E0B8017A
:1011D000CE010196A4DEBE016F5F7F4FC801E2DD44
:1011E000CE0101966EDD50E040E060E2C80171DDA5
:1011F0005C016C018FEFC81AD80AA60160E2C80131
:1012000068DD7C01950150E040E0B801CE01019617
:1012100086DEBE016F5F7F4F8AED90E2C3DDCE01B7
:1012200001964FDD9701A601B801CE01019677DE48
:10123000BE016F5F7F4F80EE90E2B4DDCE0101967C
:1012400040DDF80124813581A7014F5F5F4FB80170
:10125000CE01019664DEBE016F5F7F4F86EE90E2A5
:10126000A1DDCE0101962DDD60E373E0CE01019694
:1012700046DEBE016F5F7F4F8AED90E246DD182F9C
:10128000CE0101961EDD112309F49FC066EE70E2C7
:10129000CE0107961BDE8091E0209091E12000E0D6
:1012A000D12C009721F00E94D01C062FD72E102F92
:1012B00089E592E0B4DC68E772E0CE0101961FDEBA
:1012C000BE016F5F7F4FCE0107961FDDF82ECE0166
:1012D0000196F7DCF11075C067E572E0CE0101966A
:1012E0000EDEBE016F5F7F4FCE0107960EDDF82E3A
:1012F000CE010196E6DCF11064C06DE772E0CE012C
:101300000196FDDDBE016F5F7F4FCE010796FDDCCC
:10131000F82ECE010196D5DCFF2011F1F12CE12C45
:10132000DF921F938AEC92E09F938F9381E390E288
:101330009F938F938CDC0F900F900F900F900F90D6
:101340000F9083EE92E0F1E0EF16F10411F08DEFD3
:1013500092E065DC6E2D802F3BDB86E193E01CC0C4
:1013600061E872E0CE010196CADDBE016F5F7F4F7A
:10137000CE010796CADCF82ECE010196A2DCF11050
:10138000CDCF83E892E03CDCCE01079683D98DE394
:1013900099E045DC8CE992E042DCCE01079691DCD5
:1013A0002C960FB6F894DEBF0FBECDBFDF91CF9164
:1013B0001F910F91FF90EF90DF90CF90BF90AF9073
:1013C0000895EE24E394F12CABCF6EE273E0CE01EE
:1013D000019695DDBE016F5F7F4F8AED90E295DC4F
:1013E000182FCE0101966DDC84E393E01111A5C1A5
:1013F00066E573E0CE01019682DDBE016F5F7F4F2F
:101400008AED90E282DC182FCE0101965ADC11237E
:1014100009F46BC166EE70E2CE01079657DD80914C
:10142000E0209091E120D12C00E0009721F00E9473
:10143000D01CD62E072F1D2D8BE593E0F0DB6DE73A
:1014400073E0CE0101965BDDBE016F5F7F4FCE0181
:1014500007965BDCF82ECE01019633DCF1103CC11F
:1014600069EA75E0CE0101964ADDBE016F5F7F4FEC
:10147000CE0107964ADCF82ECE01019622DCF1104F
:101480002BC16FE773E0CE01019639DDBE016F5FBE
:101490007F4FCE01079639DCF82ECE01019611DC84
:1014A000F1101AC162E576E0CE01019628DDBE0199
:1014B0006F5F7F4FCE01079628DCF82ECE01019694
:1014C00000DCFF2009F444C0EE24E394F12C0F93D8
:1014D0001F938AEC92E09F938F9301E310E21F9396
:1014E0000F93B5DB0F900F900F900F900F900F9010
:1014F00081E0E816F10409F4F2C085EA94E0E2E044
:10150000EE16F10411F482EC94E09F938F931F93F5
:101510000F939DDB0F900F900F900F906E2D8D2DE0
:10152000D4DA8D2D2DDA009709F4DCC0019769F427
:1015300084E095E09F938F9381E390E29F938F9354
:1015400086DB0F900F900F900F908DE395E024CFE6
:1015500065E873E0CE010196D2DCBE016F5F7F4F7C
:10156000CE010796D2DBF82ECE010196AADBF11050
:10157000ABCF69E873E0CE010196C1DCBE016F5FBD
:101580007F4FCE010796C1DBF82ECE01019699DB85
:10159000F1109ACF60E973E0CE010196B0DCBE0194
:1015A0006F5F7F4FCE010796B0DBF82ECE0101961C
:1015B00088DBFF2021F032E0E32EF12C88CF63E9B5
:1015C00073E0CE0101969BDCBE016F5F7F4FCE01C1
:1015D00007969BDBF82ECE01019673DBF110EBCF63
:1015E00067E973E0CE0101968ADCBE016F5F7F4F31
:1015F000CE0107968ADBF82ECE01019662DBF11050
:10160000DACF6CE973E0CE01019679DCBE016F5F41
:101610007F4FCE01079679DBF82ECE01019651DB84
:10162000F110C9CF64EA73E0CE01019668DCBE0117
:101630006F5F7F4FCE01079668DBF82ECE010196D3
:1016400040DBF110B8CF6EEA73E0CE01019657DCB3
:10165000BE016F5F7F4FCE01079657DBF82ECE019C
:1016600001962FDBF110A7CF66EB73E0CE01019658
:1016700046DCBE016F5F7F4FCE01079646DBF82E3A
:10168000CE0101961EDBF11096CF61EC73E0CE0126
:10169000019635DCBE016F5F7F4FCE01079635DBCB
:1016A000F82ECE0101960DDBF11085CF8EEC93E084
:1016B000A7DACE0107960E944A038DE297E0AFDADF
:1016C00086EE93E0ACDA8BEF93E0A9DA8DE194E05B
:1016D000A6DA81E494E060CEF12CE12CF8CE86EE1F
:1016E00094E013CF81E295E025CF6BEE75E0CE015B
:1016F000019605DCBE016F5F7F4F8AED90E205DB4E
:10170000182FCE010196DDDA1123C9F08DE595E0A1
:1017100086DA88E795E083DA8DE895E080DA8CEA6E
:1017200095E07DDA83ED95E07ADA80EF95E077DA7F
:1017300086E196E074DA8BE196E071DA31CE6FE4FF
:1017400076E0CE010196DBDBBE016F5F7F4F8AED55
:1017500090E2DBDA182FCE010196B3DA112309F4F7
:1017600073C08091E0209091E120D12CF12C009762
:1017700021F00E94D01CD62EF72E0D2D1F2D84E5B2
:1017800096E04DDAFF92DF928AEC92E09F938F937E
:1017900021E3E22E20E2F22EFF92EF9258DAF801D6
:1017A000E858FE4F84910E5C1E4FF801049110E042
:1017B0000F900F900F900F900F900F900115110543
:1017C00009F43CC0482F50E04115510509F436C0DA
:1017D0009A012150310928233523232B79F5000F55
:1017E000111FF801EC51FF4F25913491F801E2509F
:1017F000FF4FA591B491F90190819823E1F4EC9108
:101800008E23B1F485EA94E09F938F93FF92EF9239
:101810001EDA0F900F900F900F908D2DB1D800977A
:1018200081F0019719F48EE896E0F9D9F5D9B8CD91
:1018300082EC94E0E9CF86EE94E0E6CF84E796E090
:101840007CCF89EA96E0F1CF63EC76E0CE01019699
:1018500056DBBE016F5F7F4F8AED90E256DA182F9C
:10186000CE0101962EDA88EC96E0112309F465CFBB
:101870008AED90E20E944A0380EE90E20E944A03C1
:1018800086EE90E20E944A03D1CFCF93DF93CDB78B
:10189000DEB7A1970FB6F894DEBF0FBECDBF8CE0C8
:1018A00097E0BDD9C6D981E390E20E940A0421E104
:1018B000322E3CEF432E38E0532E81E390E20E941B
:1018C0008303892B09F409C30091590B10915A0B1A
:1018D000011524E012070CF072C081E390E20E942F
:1018E000610389831A82E090F020F090F1208FEF5D
:1018F000E81AF80AB7018CEE90E28DDA882399F0A5
:101900002091EC203091ED208091F0209091F120F9
:10191000BE016F5F7F4F820F931F0E941B1EF092CC
:10192000F120E092F020C801019690935A0B809329
:10193000590B8091F0209091F1200817190708F0B9
:101940003CC08091EC209091ED200097B1F1800F88
:10195000911FFC01608181E390E20E94BA034091F3
:10196000590B50915A0BCA0101972091F0203091E8
:10197000F1208217930730F4E091EC20F091ED20F4
:10198000309741F51092580BE8E5FBE060816A3032
:1019900021F542D962E377E08CEE90E2EED988231C
:1019A00009F450C06AE176E08CEE90E286DA41D923
:1019B00010925A0B1092590B80CF60E0CCCF10924E
:1019C0005A0B1092590B81E390E20E940A0424D929
:1019D00030D9C5CFE80FF91FD9CF8217930730F45C
:1019E000E091EC20F091ED20309749F51092580BE2
:1019F000E8E5FBE060816D3061F28217930740F407
:101A00002091EC203091ED20820F931F232B21F4A5
:101A10001092580B88E59BE0FC0180818F3709F01C
:101A20004CCF423051050CF01CC281E390E20E9481
:101A30000A048DE090E00E940604FBD83ECFE80F38
:101A4000F91FD8CF69E176E08CEE90E296D981114A
:101A5000A9CF63E377E08CEE90E28FD98111A2CF1A
:101A600050E040E060E28CEE90E233D98C0150E02F
:101A700040E06DE08CEE90E22CD97C0197FF07C02E
:101A800050E040E06AE08CEE90E223D97C016AE10C
:101A900076E0CE01499633DA6AE176E0CE014396EC
:101AA0002EDA17FD43C0980150E040E06CEE70E282
:101AB000CE01019634DABE016F5F7F4FCE014996A9
:101AC00071D9CE010196FDD8A8014F5F5F4F9701F4
:101AD0006CEE70E2CE01019622DABE016F5F7F4F9D
:101AE000CE0143965FD9CE010196EBD86AE176E04C
:101AF0008CEE90E2E2D910925A0B1092590BBE0173
:101B00006D5E7F4FCE010D96E1D9BE01675E7F4FBE
:101B1000CE010796DBD965E377E0CE0107962DD994
:101B2000882391F084E393E087D871C1970150E056
:101B300040E06CEE70E2CE010196F1D9BE016F5F1C
:101B40007F4FCE014996CECF6BE377E0CE0107966B
:101B500014D98111E7CF6BEE75E0CE0107960DD950
:101B6000882309F18DE090E00E94060480E497E06C
:101B700056D88FE497E053D887E697E050D88DE8A1
:101B800097E04DD881EC97E04AD883EE97E047D8AC
:101B900084E098E044D886E196E041D88DE298E070
:101BA0003ED847D834C167E578E0CE010796E5D83E
:101BB000882309F421C18DE090E00E9406048DE5A0
:101BC00098E02DD882E798E02AD88DE898E027D8C9
:101BD0008BEB98E024D889EE98E012D8B12CA12C98
:101BE00018A291E3692E90E2792E10925809109173
:101BF000302080913020839DC00111240E94F6176F
:101C00007C01892B09F459C051D2809130201817DA
:101C100008F462C010E000E0D12CB8016C5D7F4D8B
:101C200041E050E0C701D39C800D911D112411D7D4
:101C3000D80E095011090C3DFFEF1F0771F7609195
:101C4000DA1F7091DB1F42E050E0C701D39C800D8A
:101C5000911D1124FED6D80E6091D81F7091D91F06
:101C600042E050E0C701D39C800D911D1124F1D6B4
:101C7000D80E44E050E065EE7FE1C701D39C800DB3
:101C8000911D1124E6D6D80E43E050E06CED7FE1C3
:101C9000C701D39C800D911D1124DBD6D80ED9A28B
:101CA00060D467011F8E88E5882E89E0982E9F8D6D
:101CB000E9A19E1313C0C70189D7E8E5F9E010E058
:101CC00000E08191882309F458C08D30D1F70F5F6F
:101CD0001F4FF7CF580189CF19A2E2CFF6018581B6
:101CE0009681212C8530910520F48A5F9D4FFC015F
:101CF0002080F60162817381C4010E941B1EF401E1
:101D000001900020E9F78F0101501109C8018819DD
:101D10009909F801099768F11082F60184811F92F0
:101D20008F9380898F9387858F9387811F928F935D
:101D3000822D022C000C990B9F932F928DEE98E030
:101D40009F938F931F930F930E94221EF80101907F
:101D50000020E9F7CF0101974C019F8D9F5F9F8F76
:101D6000E1E1CE0ED11C0FB6F894DEBF0FBECDBFA1
:101D70009ECF20E221938F01C9CFF8A1FF2349F123
:101D8000BF92AF925F924F927F926F920E9427060E
:101D90000F900F900F900F900F900F90F12CE12C5F
:101DA000AE14BF0441F082E099E00E940F062FEFCD
:101DB000E21AF20AF5CFBF92AF925F924F927F92F2
:101DC0006F920E9427060F900F900F900F900F9028
:101DD0000F9088E599E00E9400068FE090E027D7F9
:101DE00081E390E20E946103E1E0E8A34B9709F0F0
:101DF00071CF0E940C06D5CE6EE273E0CE0107963D
:101E00000E94BD068823A1F0F0E0E0E01995CE0124
:101E100007960E946106CE010D960E946106CE01D2
:101E200043960E946106CE0149960E946106C0CD8C
:101E300068EA75E0CE0107960E94BD06882371F01E
:101E4000BE01635F7F4FCE01019640D8CE0101965F
:101E5000A4D9CE0101960E946106A3CE86E099E046
:101E600063CE8DE090E00E9406040E941906F12CDA
:101E7000E12C0091590B10915A0BE016F10644F435
:101E800080E290E00E940604FFEFEF1AFF0AF1CF14
:101E90008DE090E00E9406048091F0209091F12066
:101EA00001970E944E0602301105A4F08091F020A7
:101EB0009091F12001970E944E0602501109109353
:101EC0005A0B0093590B0E9419068CEE90E20E9467
:101ED0004A03F3CC01501109F2CF7DD2EECC1F9210
:101EE0000F920FB60F9211242F933F938F939F93CE
:101EF000AF93BF938091CE1F9091CF1FA091D01F21
:101F0000B091D11F3091CD1F23E0230F2D3758F50D
:101F10000196A11DB11D2093CD1F8093CE1F9093DC
:101F2000CF1FA093D01FB093D11F8091C91F909154
:101F3000CA1FA091CB1FB091CC1F0196A11DB11D4E
:101F40008093C91F9093CA1FA093CB1FB093CC1F3F
:101F5000BF91AF919F918F913F912F910F900FBEA5
:101F60000F901F90189526E8230F0296A11DB11D12
:101F7000D2CF1F920F920FB60F9211240BB60F9271
:101F80002F933F934F935F936F937F938F939F9381
:101F9000AF93BF93EF93FF9381E390E20E94980386
:101FA000FF91EF91BF91AF919F918F917F916F9131
:101FB0005F914F913F912F910F900BBE0F900FBEED
:101FC0000F901F9018951F920F920FB60F92112429
:101FD0000BB60F922F938F939F93EF93FF93E09104
:101FE0004120F09142208081E0914720F0914820EB
:101FF00082FD1DC0908180914A208F5F8F73209158
:102000004B20821741F0E0914A20F0E0EF5CFF4D59
:10201000958F80934A20FF91EF919F918F912F91FF
:102020000F900BBE0F900FBE0F901F9018958081E0
:10203000F2CFFC01DB010FB6F8940F924091D51F4F
:102040005091D61F2D913C9111972F3F3207E1F00F
:10205000818192816091D71F7081761719F048179E
:102060005907C0F4481B590B4217530788F4241B27
:10207000350B2D933C938091D71F80838091D51F82
:102080009091D61F9283818380E00F900FBE0895B8
:102090001D921C9281E0F9CF0FB6F8940F928091B7
:1020A000D51F9091D61F0F900FBE08958091D21F1B
:1020B0008F5F8093D21F08950FB6F8940F92FC01A2
:1020C000928D0F900FBE81E0911180E00895CF9323
:1020D000DF939C01FB01DC011196CD91DC91D38350
:1020E000C2838C819D81958384838C819D81DC0159
:1020F00013967C936E9312977D836C833187208730
:10210000F90180818F5F8083DF91CF910895CF9314
:10211000DF93FC01A085B185828193812481358183
:10212000EC013D832C83C481D5819B838A831196E6
:102130008D919C9112978E179F0721F41296DC9334
:10214000CE931197118610868C9181508C938C912F
:10215000DF91CF9108950F931F93CF93DF93DC010D
:102160001596ED91FC91C681D7818E01045F1F4FBA
:10217000C801CDDF8091D21F811123C00A501109FF
:10218000C801C5DF8E8990912D20981710F4809397
:102190002D20B9E08B9FC0011124B801875F9F4DAE
:1021A00096DFE0915609F09157099E898689891733
:1021B00060F481E080936A1FDF91CF911F910F91AE
:1021C0000895B8018EEE9FE1EBCF80E0F5CFEF925E
:1021D000FF920F931F93CF93DF93EC010FB6F89408
:1021E0000F921E8D7C0181E1E80EF11C01E01116B9
:1021F000D4F08FEF8E8F0F900FBE0FB6F8940F9222
:102200001D8D7E0188E0E80EF11C01E01116ACF096
:102210008FEF8D8F0F900FBEDF91CF911F910F9198
:10222000FF90EF9008958989882319F3C70193DF00
:10223000811100936A1F1150DACF8885882341F3FA
:10224000C70189DF811100936A1F1150DFCF0F93FF
:102250001F93CF93DF938C01FB0180819181D80183
:1022600013968F3F9807F1F4E801AF81B885129675
:102270008D919C91139793838283EC01FD83EC8372
:10228000B583A4831396FC93EE931297118700876E
:10229000F80180818F5F8083DF91CF911F910F9133
:1022A0000895D90112962D913C911397E901488127
:1022B000598184179507A8F7DACFFC0173836283ED
:1022C000918780874617570788F0421B530B8485F8
:1022D000958548175907C0F4BF016E5F7F4F809105
:1022E000AD1F9091AE1FB3DF80E0089542175307F2
:1022F00018F46217730740F4BF016E5F7F4F80913F
:10230000AF1F9091B01FEFCF81E00895FF920F9320
:102310001F93CF93DF93EC01F62E0091D51F109100
:10232000D61F80915609909157090296F0DECF3F53
:10233000DC0781F4FF2071F0609156097091570914
:102340006E5F7F4F8CED9FE1DF91CF911F910F91D9
:10235000FF90BDCEC00FD11FE0915609F0915709F3
:10236000D383C2836091560970915709C017D10772
:1023700060F48091D81F9091D91F6E5F7F4FDF91DD
:10238000CF911F910F91FF9062CF8091DA1F9091B2
:10239000DB1F6E5F7F4F5BDF8091C51F9091C61F73
:1023A000C817D90720F4D093C61FC093C51FDF916B
:1023B000CF911F910F91FF900895FC010396928396
:1023C00081832FEF3FEF3483238396838583908728
:1023D0008783108208950F920FB6F8940F920BB670
:1023E0000F920CB60F921F9211242F923F924F9290
:1023F0005F926F927F928F929F92AF92BF92CF9295
:10240000DF92EF92FF920F931F932F933F934F937F
:102410005F936F937F938F939F93AF93BF93CF936C
:10242000DF93EF93FF93A0915609B09157090DB632
:102430000D920EB60D928091D21F882321F081E07B
:1024400080936A1F5FC010926A1FA0915609B091D5
:102450005709E0915609F09157092D913C918789D0
:10246000908D82179307A8F0809156099091570993
:102470008091560990915709279A2F9A2FEF87EA52
:1024800091E6215080409040E1F700C000001F9A83
:10249000F5CF20912D2089E001C02150422F50E03E
:1024A000849FF001859FF00D1124E75FFF4D90811F
:1024B000992399F3A181B28112960D90BC91A02D20
:1024C000B283A183289FC0011124845F9F4DA81768
:1024D000B90729F412968D919C919283818389E0AA
:1024E000849FF001859FF00D1124E75FFF4D01806F
:1024F000F281E02D86819781909357098093560948
:1025000020932D20A0915609B0915709CD91CDBFB0
:10251000DD91DEBFFF91EF91DF91CF91BF91AF9140
:102520009F918F917F916F915F914F913F912F91EB
:102530001F910F91FF90EF90DF90CF90BF90AF90E1
:102540009F908F907F906F905F904F903F902F90D3
:102550001F900F900CBE0F900BBE0F900FBE0F90F0
:1025600008957F928F929F92AF92BF92CF92DF9207
:10257000EF92FF920F931F93CF93DF930FB6F894D0
:102580000F928091D21F81508093D21F8091D21FD1
:10259000882389F080E00F900FBEDF91CF911F91CB
:1025A0000F91FF90EF90DF90CF90BF90AF909F90F2
:1025B0008F907F90089580913020882359F3D0E048
:1025C000C0E029E0F22EEE24E39426C0E091F31F50
:1025D000F091F41FC681D781CE010C9698DD8E0153
:1025E0000E5F1F4FC80193DD8E8990912D209817A3
:1025F00010F480932D208F9DC0011124B801875FB6
:102600009F4D65DDE0915609F09157099E898689B5
:10261000981710F0E0926A1F8091EE1F8111D6CFBB
:10262000CD2B11F00E94A105E090681FF090691F6A
:10263000E114F10409F4ACC089E0A82E7724739466
:10264000CC24CA94DC2C8091D21F81118FC0C09100
:10265000D51FD091D61F2196D093D61FC093D51FDA
:102660002097B9F48091DA1F9091DB1F2091D81F39
:102670003091D91F3093DB1F2093DA1F9093D91F1D
:102680008093D81F8091D71F8F5F8093D71F0E94A0
:10269000A1058091C51F9091C61FB12CC817D907FD
:1026A00008F058C0E0915609F0915709E689AE9EAE
:1026B000F0011124E75FFF4D8081823010F0BB24D0
:1026C000B39480916A1F811103C0BB2009F457C0E5
:1026D00070926A1F54C0E091DA1FF091DB1F0580F1
:1026E000F681E02D06811781D80112968D919C917B
:1026F000C817D90728F49093C61F8093C51FD2CF5F
:102700004801B2E08B0E911CC40101DDF8018489FF
:102710009589892B19F0C8010C96F9DCD8015696D9
:102720008C9190912D20981710F480932D208A9DE4
:10273000C0011124B401875F9F4DC9DCE0915609A7
:10274000F0915709D80156969C918689981710F0F8
:10275000BB24B394E091DA1FF091DB1F80818111DB
:10276000BACFD092C61FC092C51F9CCF8091681F60
:102770009091691F01969093691F8093681FB1E043
:10278000EB1AF10809F05FCF1092691F1092681FD1
:1027900080916A1F882309F4FDCE1DDE81E0FBCE07
:1027A000AF92BF92CF92DF92EF92FF920F931F935F
:1027B000CF93DF9300D01F921F92CDB7DEB78C016D
:1027C0007B011D821C8280E0680128E0C20ED11CC2
:1027D0000FB6F8940F92F801228D938D291708F007
:1027E00074C0D28C448D411156C080819181892B57
:1027F00011F080E009C0E480F580E114F10411F5E6
:1028000080E0F80115821482D394F801D28E918968
:10281000992319F0C80141969EDC8111DCDD0F90EF
:102820000FBE81E00F900F900F900F900F90DF91EF
:10283000CF911F910F91FF90EF90DF90CF90BF90BD
:10284000AF900895F70186A1815086A3268995A1AE
:102850002917B1F28111D4CF5701F2E0AF0EB11CAC
:10286000C50155DCF70185A1868B24E030E0281BEB
:1028700031093587248790912D20981710F4809383
:102880002D20F9E08F9FC0011124B501875F9F4D76
:102890001EDC81E0B6CF50E0B701828193810E94B7
:1028A000F71DF801848D22813381820F932F911DB2
:1028B00093838283248135818217930708F499CF0B
:1028C000808191819383828394CF2C813D81232BBE
:1028D00021F40F900FBE80E0A5CF811109C0809137
:1028E000D71F89838091D51F9091D61F9B838A83A0
:1028F0000F900FBEDBDB0FB6F8940F92F801858DB9
:102900008F3F09F4158EF801868D8F3F09F4168EDE
:102910000F900FBEBE016C5F7F4FCE01019689DB29
:10292000811123C00FB6F8940F92F801928D838D18
:102930000F900FBE981315C0AC80BD8060915609F2
:1029400070915709645F7F4FC60181DC61E0C5016A
:10295000DDDCC8013CDC05DE811101C03CDD81E02D
:1029600037CFC80134DCFDDDFACFC80130DCF9DD3A
:10297000B2CFCF93DF9300D01F921F92CDB7DEB7B7
:102980009C018091D31F9091D41F0097B1F01982C0
:102990007B836A833D832C8320912F20BE016F5F50
:1029A0007F4F21112091D21FFBDE0F900F900F90CF
:1029B0000F900F90DF91CF91089580E0F6CFEF92C6
:1029C000FF920F931F93CF93DF93E091AF1FF0918E
:1029D000B01F8081811113C08091AD1F9091AE1FF7
:1029E0009093B01F8093AF1FF093AE1FE093AD1F85
:1029F000DF91CF911F910F91FF90EF900895058087
:102A0000F681E02D00811181C681D7817E0182E0AF
:102A1000E80EF11CC7017BDBE889F989CE01199525
:102A20008B8982FFD2CF8C859D85800F911F0817DF
:102A3000190758F49B838A83D987C887B701809187
:102A4000AF1F9091B01F03DCC0CFB801CE0191DF62
:102A5000BCCF2F923F924F925F926F927F928F9254
:102A60009F92AF92BF92CF92DF92EF92FF920F931D
:102A70001F93CF93DF93EB012881312C222309F49C
:102A800078C0E981FA81228133813A8329835B010D
:102A900063E0A60EB11C2A153B0521F42D813E8171
:102AA0003A8329837A013C01E981FA814680578083
:102AB000312C81E1282EE981FA81828193819A83E8
:102AC0008983A816B90621F48D819E819A83898312
:102AD000E981FA81C680D7808301329C000D111DE7
:102AE00011244601C114D10421F48090560990901C
:102AF0005709D80111969C928E92C401499613965B
:102B00009C938E931297F401868917968C9317974E
:102B10008789908D1E969C938E931D9783A1149602
:102B20008C93149785A118968C93189719961D92DB
:102B30001D921D921C921C978091560990915709E5
:102B40008816990651F516961C921E921597D40177
:102B50005796ED91FC9180E090E0DC012191253ABF
:102B600089F1F801908B878733944C145D0409F048
:102B7000A2CF832DDF91CF911F910F91FF90EF9006
:102B8000DF90CF90BF90AF909F908F907F906F908D
:102B90005F904F903F902F900895F801F682E58264
:102BA000F3E0EF16F10499F681DAD40154968D9191
:102BB0009C91892B29F082E090E0F801968385832F
:102BC000D0DCC5CF0196A11DB11DC8CFCF93DF9337
:102BD000009751F1EC0124972A813B8180915F1F7E
:102BE0009091601FA90148235923452BE9F04881A2
:102BF0005981452BC9F480959095822393239B831B
:102C00008A8354DA80915D1F90915E1F2A813B81F7
:102C1000820F931F90935E1F80935D1FCE010E94D1
:102C2000BC05DF91CF919DCCDF91CF910895CF93DB
:102C3000DF93EC01892B21F4CEDBDF91CF91089556
:102C400035DA60E0CE0162DB8CDC8823A9F3F5CFB6
:102C50000F920FB6F8940F920BB60F920CB60F921C
:102C60001F9211242F923F924F925F926F927F9208
:102C70008F929F92AF92BF92CF92DF92EF92FF928C
:102C80000F931F932F933F934F935F936F937F9374
:102C90008F939F93AF93BF93CF93DF93EF93FF9364
:102CA000A0915609B09157090DB60D920EB60D922E
:102CB00013BE8091D21F8111F6C08091D51F9091D3
:102CC000D61F01969093D61F8093D51F009799F534
:102CD0002091DA1F3091DB1F4091D81F5091D91FEE
:102CE0005093DB1F4093DA1F3093D91F2093D81FD6
:102CF0002091D71F2F5F2093D71FE091DA1FF0910B
:102D0000DB1F2081211107C02FEF3FEF3093C61F3B
:102D10002093C51F10C0E091DA1FF091DB1F0580E2
:102D2000F681E02D0680F781E02D228133813093FA
:102D3000C61F2093C51F2091C51F3091C61F821743
:102D4000930710F420E09BC020E019E0E091DA1F27
:102D5000F091DB1F3081311107C08FEF9FEF90930F
:102D6000C61F8093C51F8BC0E091DA1FF091DB1F57
:102D70000580F681E02D0680F781E02D42815381A8
:102D80008417950728F45093C61F4093C51F77C03A
:102D9000AF014E5F5F4FA285B38564817581E68088
:102DA000F780EB01FD82EC82C681D7817B836A8349
:102DB00011966D917C9112974617570721F4129640
:102DC000DC93CE931197138612863C9131503C933D
:102DD0003C91A489B5891097F9F066857785E088DC
:102DE000F188EB01FD82EC82C089D1897B836A8303
:102DF0001196ED90FC901297BF01645F7F4FE6162D
:102E0000F70621F41296DC93CE931197158A148A53
:102E10003C9131503C933C91A68930912D203A173A
:102E200010F4A0932D201A9FD0011124BD01675FDB
:102E30007F4D7B01DB011196CD91DC91D583C4835D
:102E40006C817D81778366836C817D81DB01139644
:102E50005C934E9312975D834C83F386E286E70181
:102E600038813F5F3883A0915609B0915709468950
:102E700056963C91431708F469CF21E067CFE09163
:102E80005609F0915709E689D9E0ED9FF001112428
:102E9000E75FFF4D8081823008F021E080916A1F5A
:102EA00081110EC00AC08091681F9091691F019620
:102EB0009093691F8093681F6AC0222309F467C03A
:102EC0008091D21F882321F081E080936A1F5FC028
:102ED00010926A1FA0915609B0915709E0915609C6
:102EE000F09157092D913C918789908D8217930716
:102EF000A8F08091560990915709809156099091B8
:102F00005709279A2F9A2FEF67EA71E62150604000
:102F10007040E1F700C000001F9AF5CF20912D20EE
:102F200089E001C02150422F50E0849FF001859F2D
:102F3000F00D1124E75FFF4D9081992399F3A18152
:102F4000B28112960D90BC91A02DB283A183289FCF
:102F5000C0011124845F9F4DA817B90729F4129668
:102F60008D919C919283818389E0849FF001859F5C
:102F7000F00D1124E75FFF4D0180F281E02D868185
:102F80009781909357098093560920932D20A09103
:102F90005609B0915709CD91CDBFDD91DEBFFF91AC
:102FA000EF91DF91CF91BF91AF919F918F917F91E1
:102FB0006F915F914F913F912F911F910F91FF90D2
:102FC000EF90DF90CF90BF90AF909F908F907F90C9
:102FD0006F905F904F903F902F901F900F900CBE7E
:102FE0000F900BBE0F900FBE0F900895CF92DF92FF
:102FF000EF92FF920F931F93CF93DF93EC0156D87C
:103000008091611F9091621F892B81F58BE59BE078
:103010009093641F8093631F1092661F1092651F28
:1030200027E53FE13093621F2093611F10925A1FE2
:103030001092591F1092581F1092571F8CEF93E156
:1030400090935E0B80935D0B30935C0B20935B0B36
:1030500090935C1F80935B1F90935E1F80935D1F16
:1030600080E090E89093601F80935F1FC0905F1F87
:10307000D090601FC6018C239D23892B71F071DADB
:10308000279A2F9AFFEF20E782E0F15020408040FE
:10309000E1F700C000001F9AF5CF209781F39E0151
:1030A0002C5F3F4F61F300915D1F10915E1FC09137
:1030B000631FD091641FE3E6FFE102171307F8F2E4
:1030C0004A815B814217530728F4888199810097D0
:1030D00009F047C08091611F9091621F8C179D0776
:1030E00071F2E080F18084E0E80EF11C8881998122
:1030F00091838083421B530B4930510550F0CE0120
:10310000820F931FFC01538342833B832A830E94D7
:10311000BC052A813B81021B130B10935E1F009399
:103120005D1F40915B1F50915C1F0417150720F431
:1031300010935C1F00935B1FC22AD32ADB82CA82D2
:10314000198218820EDAE114F10409F499CFC7014B
:10315000DF91CF911F910F91FF90EF90DF90CF9073
:103160000895FE01EC01ACCF7F928F929F92AF92B7
:10317000BF92CF92DF92EF92FF920F931F93CF9364
:10318000DF93982EA92E762E872E7A01B22ECA01B1
:103190002DDF6C01892B09F4CAC08CE290E026DF98
:1031A000EC01892B09F4C1C0D88ECF8AA70165EA4A
:1031B00070E0C60125D521E0E21AF108EF89F88D0B
:1031C000EE0DFF1D672D782DCE0149969B01265FE0
:1031D0003F4FDB014D91BD01DC014D93CD01AB01B2
:1031E00041505109DA014C91442319F062177307D9
:1031F00081F71AA2BE8ABDA21EA21B861A861D8A4C
:103200001C8AD987C88784E090E08B1991099D8733
:103210008C87DB8BCA8B1FA218A619A61AA61BA621
:103220009082DF011197AC9211971C9211971C921A
:10323000119780E88C9311971C9211971C9211970B
:103240001C9257971C9211971C92B697F983E883AA
:103250000115110519F0F801D183C0830FB6F89458
:103260000F92809130208F5F80933020809156099B
:1032700090915709892B09F069C0D0935709C093E1
:10328000560980913020813039F589E090E295D857
:1032900082E190E292D88BE190E28FD884E290E2D2
:1032A0008CD880E090E289D887EF9FE186D88EEEB7
:1032B0009FE183D885EE9FE180D88CED9FE17DD89A
:1032C00080E090E29093DB1F8093DA1F87EF9FE10D
:1032D0009093D91F8093D81F80912E208F5F809369
:1032E0002E208BA38E8990912D20981710F4809317
:1032F0002D20F9E08F9FC0011124BE016E5F7F4F2A
:10330000875F9F4D0E9467100F900FBE80912F2006
:10331000882349F0E0915609F091570996898E89E2
:10332000981708F458D881E003C0C6014FDC8FEF2E
:10333000DF91CF911F910F91FF90EF90DF90CF9091
:10334000BF90AF909F908F907F90089580912F2095
:103350008111C2CFE0915609F09157099E89868963
:10336000981708F4B9CFD0935709C0935609B4CF32
:103370006FDC189586EE90E20E94610680EE90E286
:103380000E9461068AED90E20E94610682EF90E25F
:103390000E9461068CEE90E20C946106CF93DF935D
:1033A000E1E3F0E21382128288EE93E0A0E0B0E065
:1033B00084839583A683B7838FE092E09183808393
:1033C00085EC90E09587848784EC90E097878687EA
:1033D00080EC90E0918B808B81EC90E0938B828BE2
:1033E00082EC90E0958B848B86EC90E0978B868BBB
:1033F000118E128E138E148E6AE176E08CEE90E2BE
:103400000E947F076AE176E082EF90E20E947F07E8
:103410006AE176E08AED90E20E947F076AE176E059
:1034200080EE90E20E947F076AE176E086EE90E20D
:103430000E947F07CEECD0E286E190E09B838A83F6
:1034400088E190E09D838C8387E190E09983888375
:10345000188619861A861B868FE190E09F838E83DB
:1034600061E086E10E94650561E08C810E9465054E
:1034700061E08881DF91CF910C946505789484B5E3
:10348000826084BD84B5816084BD85B5826085BD60
:1034900085B5816085BD80916E00816080936E00EE
:1034A00010928100809181008260809381008091E0
:1034B0008100816080938100809180008160809391
:1034C00080008091B10084608093B1008091B00051
:1034D00081608093B0008091910082608093910020
:1034E0008091910081608093910080919000816033
:1034F000809390008091A10082608093A1008091D0
:10350000A10081608093A1008091A00081608093E0
:10351000A00080912101826080932101809121018E
:10352000816080932101809120018160809320013E
:1035300080917A00846080937A0080917A00826022
:1035400080937A0080917A00816080937A008091E4
:103550007A00806880937A001092C1002091040262
:10356000309105028FEF91E2821B930B9093010241
:10357000809300020E9476080E94AD080E94BD0858
:1035800007EC1FE120E040E850E064E479E08BEBD9
:1035900092E0EADD813009F0CEC00FB6F8940F92C8
:1035A0008091D31F9091D41F892B09F067C08AEBBB
:1035B0009FE10E94DD1181EB9FE10E94DD118AEB0A
:1035C0009FE19093B01F8093AF1F81EB9FE1909399
:1035D000AE1F8093AD1F83E590E008DDEC010097FE
:1035E00089F18196998388838AE08B8F85E08C8F1F
:1035F0000FB6F8940F92888199812B8D4C8DBC0168
:10360000249F600D711D11247D836C831A8E9B8312
:103610008A832150330B429FB001439F700D1124C8
:10362000860F971F9F838E838FEF8D8F8E8FCE0196
:1036300008960E94DD11CE0141960E94DD110F9087
:103640000FBE18A2D093D41FC093D31F2097B1F000
:10365000EDE6FFE190E080E020813181232B09F04D
:1036600073C0880F991F880F991FFC01E359F04E12
:1036700089E499E091838083D383C2830F900FBE46
:103680008091D31F9091D41F892B09F454C003EC6F
:103690001FE123E045E550E06EE479E082E091E04F
:1036A00063DD813009F047C0F8942FEF3FEF30938E
:1036B000C61F2093C51F80932F201092D61F1092F3
:1036C000D51FA89588E190EC0FB6F894A895809343
:1036D00060000FBE90936000A0915609B091570909
:1036E000CD91CDBFDD91DEBFFF91EF91DF91CF9105
:1036F000BF91AF919F918F917F916F915F914F910A
:103700003F912F911F910F91FF90EF90DF90CF90FD
:10371000BF90AF909F908F907F906F905F904F90F1
:103720003F902F901F900F900CBE0F900BBE0F90EC
:103730000FBE0F9008950E9476080E94AD080E9467
:10374000BD080E942904FDCF019634968031910571
:1037500009F082CF93CF0F931F93CF93DF938230E3
:10376000910510F482E090E0E091FA20F091FB20C6
:1037700030E020E0B0E0A0E0309799F42115310569
:1037800009F44AC0281B390B24303105D8F58A8149
:103790009B816115710589F1FB0193838283FE0191
:1037A00011C0408151810281138148175907E0F00F
:1037B0004817590799F4109761F012960C931297D5
:1037C00013961C933296CF01DF91CF911F910F91E9
:1037D00008950093FA201093FB20F4CF21153105B2
:1037E00051F04217530738F0A901DB019A01BD01DE
:1037F000DF01F801C1CFEF01F9CF9093FB20809357
:10380000FA20CDCFFE01E20FF31F81939193225056
:10381000310939832883D7CF2091F8203091F920BE
:10382000232B41F420910202309103023093F920BE
:103830002093F820209100023091010221153105DA
:1038400041F42DB73EB74091040250910502241B6C
:10385000350BE091F820F091F920E217F307A0F47E
:103860002E1B3F0B2817390778F0AC014E5F5F4FD6
:103870002417350748F04E0F5F1F5093F9204093EF
:10388000F820819391939FCFF0E0E0E09CCFCF931D
:10389000DF930097E9F0FC01329713821282A09126
:1038A000FA20B091FB20ED0130E020E01097A1F468
:1038B00020813181820F931F2091F8203091F920CF
:1038C0002817390709F061C0F093F920E093F82038
:1038D000DF91CF910895EA01CE17DF07E8F54A811D
:1038E0005B819E0141155105B1F7E901FB83EA8334
:1038F00049915991C40FD51FEC17FD0761F48081E0
:1039000091810296840F951FE901998388838281B2
:1039100093819B838A83F0E0E0E012968D919C91E5
:1039200013970097B9F52D913C911197CD0102960F
:10393000820F931F2091F8203091F9202817390722
:1039400039F6309751F51092FB201092FA20B0937F
:10395000F920A093F820BCCFD383C283408151814A
:10396000840F951FC817D90761F44E5F5F4F888198
:103970009981480F591F518340838A819B8193838A
:1039800082832115310509F0B0CFF093FB20E0933D
:10399000FA209ECFFD01DC01C0CF13821282D7CF67
:1039A0001F93FC0199278827BC01E89411911032DC
:1039B000E9F3193010F01E30C8F31B3249F01D3204
:1039C00041F4689405C012D0610F711D811D911DD5
:1039D000119110531A30B8F33EF49095809570957C
:1039E00061957F4F8F4F9F4F1F910895592F482FFB
:1039F000372F262F660F771F881F991F660F771F97
:103A0000881F991F620F731F841F951F660F771FF2
:103A1000881F991F0895EE0FFF1F881F8BBF079007
:103A2000F691E02D19944F925F926F927F928F9250
:103A30009F92AF92BF92CF92DF92EF92FF920F933D
:103A40001F93CF93DF938C01009791F4CB01DF910B
:103A5000CF911F910F91FF90EF90DF90CF90BF908B
:103A6000AF909F908F907F906F905F904F9073CEAC
:103A7000FC01E60FF71F9C0122503109E217F30702
:103A800008F4AAC0D901CD91DC911197C617D707C8
:103A900018F1C530D10570F0CE010497861797074D
:103AA00048F0C61BD70B2297C193D1936D937C939B
:103AB000CF01EDDEC801DF91CF911F910F91FF90F3
:103AC000EF90DF90CF90BF90AF909F908F907F90BE
:103AD0006F905F904F9008955B01AC1ABD0A4C0146
:103AE0008C0E9D1EA091FA20B091FB20512C412CF0
:103AF000F12CE12C109731F58091F8209091F9206C
:103B00008815990509F05CC04616570608F058C09C
:103B10008091000290910102009741F48DB79EB709
:103B20004091040250910502841B950BE817F90798
:103B300008F052C0F093F920E093F820F901718366
:103B40006083B8CF8D919C91119712966C901297CB
:103B500013967C901397A815B90559F56C0142E0AE
:103B6000C40ED11CCA14DB0420F1AC014A195B0954
:103B7000DA011296159780F0628273825183408336
:103B8000D9016D937C93E114F10471F0D701139680
:103B9000FC93EE9312978ECF22968C0F9D1FF90106
:103BA00091838083F301EFCFF093FB20E093FA2021
:103BB00081CF4816590608F42C017D01D3019ACF14
:103BC000CB01C9DD7C01009739F0AE01B8010FD0FF
:103BD000C8015DDE87016ECF10E000E06BCF911170
:103BE000089581548A5108F4805E855A0895FB0136
:103BF000DC0102C001900D9241505040D8F7089569
:103C0000DC0101C06D9341505040E0F70895FC0184
:103C10008191861721F08823D9F799270895319744
:103C2000CF010895FB01DC018D91019080190110F5
:103C3000D9F3990B0895FB01DC0101900D9200204E
:103C4000E1F708950F931F93CF93DF93CDB7DEB7BE
:103C50002E970FB6F894DEBF0FBECDBF0E891F8919
:103C600086E08C831A8309838FEF9FE79E838D8381
:103C7000AE01465E5F4F688D798DCE0101963AD0D8
:103C80002F813885020F131FF80110822E960FB670
:103C9000F894DEBF0FBECDBFDF91CF911F910F9182
:103CA00008950F931F93CF93DF93CDB7DEB72E9771
:103CB0000FB6F894DEBF0FBECDBF8C0186E08C83BB
:103CC0001A8309838FEF9FE79E838D83CE01019630
:103CD00011D02F813885020F131FF80110822E9604
:103CE0000FB6F894DEBF0FBECDBFDF91CF911F910D
:103CF0000F9108952F923F924F925F926F927F9211
:103D00008F929F92AF92BF92CF92DF92EF92FF92EB
:103D10000F931F93CF93DF9300D000D000D01F925A
:103D20001F92CDB7DEB77C013B018A01FC011782EF
:103D30001682838181FFD0C1CE0101965C01F7011B
:103D40009381F30193FD859193FF81913F01882336
:103D500009F449C1853239F493FD859193FF81912E
:103D60003F01853221F4B70190E0CFD1E8CF912C0B
:103D7000212C312CFFE1F31538F08B3211F190F446
:103D8000803209F1833229F137FC3CC020ED280F45
:103D90002A3050F536FE20C08AE0989E200D11246E
:103DA000922E06C08D3291F0803371F7689430F80E
:103DB000F30193FD859193FF81913F018111DACF4A
:103DC00021C0689431F8689432F8F2CF689433F8DF
:103DD000EFCF689434F8ECCFEAE02E9E200D11244A
:103DE000222E689435F8E4CF8E3229F436FCFBC0DD
:103DF000689436F8DDCF8C3619F4689437F8D8CF4C
:103E00008836B1F2982F9F7D95549330D8F0833641
:103E100091F18337B1F1833509F05EC02801F2E0FA
:103E20004F0E511CF801C080D180692D70E036FC26
:103E300002C06FEF7FEFC60152D14C01689437F892
:103E400082010AC00C5F1F4FFFE3F983882483942B
:103E5000912C6501E89437F833FE2AC0522C811466
:103E6000910459F5552009F46ACFB70180E290E03A
:103E70004CD15A94F7CFF801808189830E5F1F4F90
:103E8000E5CF2801F2E04F0E511CF801C080D1802F
:103E9000692D70E036FC02C06FEF7FEFC6012AD1BA
:103EA0004C018201D7CFB70180E290E02ED12A9455
:103EB0002814190409F0B8F7D1CFF60137FC859121
:103EC00037FE81916F01B70190E01FD151105A94D4
:103ED000F1E08F1A9108C3CF843619F0893609F0C2
:103EE00073C0F80137FE67C0608171818281938160
:103EF0000C5F1F4FF32DFF763F2E97FF09C0909563
:103F00008095709561957F4F8F4F9F4F689437F8DC
:103F10002AE030E0A50129D1C82ECA188C2C432CE8
:103F200036FE0CC0E89440F8C91440F434FE05C0D5
:103F300032FC03C0F32DFE7E4F2E892C44FEA6C01A
:103F4000FE01EC0DF11D8081803309F098C0242D15
:103F5000297E422E842D8870582E43FCA5C040FE39
:103F60009FC09C2C821418F42C0C922C981844FEA0
:103F7000A1C0B70180E390E0C8D042FE08C088E746
:103F800090E041FE02C088E590E0B701BED0C914C0
:103F900008F49CC0CA94D12C9FEFC91AD90ACA0C44
:103FA000DB1CF60182916F01B70190E0AED0AC143A
:103FB000BD04B9F757CF60817181072E000C880BC3
:103FC000990B0E5F1F4F96CFD32CE894D4F82AE0BC
:103FD00030E08537E1F1232D297FD22E8F36A9F1EC
:103FE000F0F4883551F1F701868197812B960FB651
:103FF000F894DEBF0FBECDBFDF91CF911F910F911F
:10400000FF90EF90DF90CF90BF90AF909F908F90F8
:104010007F906F905F904F903F902F9008958037E2
:1040200049F0883701F7D4FE02C06894D2F820E145
:1040300030E00DC06894D4F8F6CF34FE03C0822F70
:104040008660D82E20E132E002C028E030E0F8019E
:10405000D7FE0EC060817181828193810C5F1F4FFA
:10406000A50183D0C82ECA183D2CE89437F856CF46
:104070006081718190E080E00E5F1F4FF1CF42FCC4
:1040800002C0839467CF8394839464CF842D867811
:1040900009F460CFF6CFB70180E290E036D0839488
:1040A0008214C8F3512C63CF522C5818821408F490
:1040B0005ECFF8CF842D867809F469CF8BE241FE7C
:1040C00080E247FC8DE2B70190E060CFB70180E36A
:1040D00090E01BD09A945BCF8FEF9FEF87CFFC01CE
:1040E0000590615070400110D8F7809590958E0F23
:1040F0009F1F0895FC016150704001900110D8F796
:10410000809590958E0F9F1F08950F931F93CF93C7
:10411000DF93182F092FEB018B8181FD09C01FEF61
:104120000FEF812F902FDF91CF911F910F91089565
:1041300082FF14C02E813F818C819D812817390711
:104140003CF4E881F981CF0101969983888310833B
:104150008E819F8101969F838E83E3CFE885F985C9
:10416000812F1995892BA1F3DACFFA01AA272830DC
:1041700051F1203181F1E8946F936E7F6E5F7F4F34
:104180008F4F9F4FAF4FB1E03ED0B4E03CD0670FB0
:10419000781F891F9A1FA11D680F791F8A1F911D03
:1041A000A11D6A0F711D811D911DA11D20D009F453
:1041B00068943F912AE0269F11243019305D319395
:1041C000DEF6CF010895462F4770405D4193B3E07E
:1041D0000FD0C9F7F6CF462F4F70405D4A3318F025
:1041E000495D31FD4052419302D0A9F7EACFB4E0D6
:1041F000A6959795879577956795BA95C9F700978E
:104200006105710508959B01AC010A2E069457952E
:10421000479537952795BA95C9F7620F731F841F85
:10422000951FA01D089512E0C9EED2E000E005C080
:10423000802FFE01F0DB2196011DCA3ED10780E0F0
:084240000807B1F7F894FFCF65
:104248000000FC208000585242534400000000BA8D
:10425800031D0352030A048303610375031B5B33C5
:10426800326D61746D65676140414B2D41544D302D
:10427800301B5B306D3A1B5B33346D7E1B5B306DDE
:1042880024200052585F5461736B004C656454617C
:10429800736B005461736B31000D0A1B5B316D1B2E
:1042A8005B33326D094750494F2050696E20536582
:1042B800741B5B306D0D0A0068696768006C6F7766
:1042C8000030001B5B316D1B5B33316D556E6B6EBF
:1042D8006F776E2053746174653A20004176616986
:1042E8006C61626C65204D6F646573206172653A1C
:1042F80009202731272C202768696768272C202761
:1043080030272C20276C6F7727000950696E3A20D8
:10431800091B5B316D1B5B33326D25641B5B306D94
:104328000D0A00094D6F64653A20091B5B316D1B4E
:104338005B33316D484947481B5B306D00094D6F51
:1043480064653A20091B5B316D1B5B33326D4C4F42
:10435800571B5B306D000D0A50696E2073756363DF
:1043680065737366756C6C7920736574210072656A
:10437800736574001B5B316D1B5B33316D4E4F549D
:1043880020494D504C454D454E544544204A4554CE
:10439800211B5B306D00696E6974000D0A1B5B316F
:1043A8006D1B5B33326D0950696E20496E69746903
:1043B800616C697A65721B5B306D0D0A0069006972
:1043C8006E707574006F7574006F75747075740015
:1043D80069700069207000696E207000696E207035
:1043E800756C6C00696E2070756C6C757000696E08
:1043F800707574207000696E7075742070756C6CBF
:1044080000696E7075742070756C6C7570001B5B3C
:10441800316D1B5B33316D556E6B6E6F776E204D52
:104428006F64653A2000417661696C61626C652051
:104438004D6F646573206172653A0009494E5055A5
:10444800543A20202020202020092769272C2027C3
:10445800696E272C2027696E7075742700094F55DF
:10446800545055543A20202020202009276F272C0B
:1044780020276F7574272C20276F75747075742723
:104488000009494E5055545F50554C4C55503A0907
:10449800276970272C2027692070272C2027696E10
:1044A8002070272C2027696E2070756C6C272C20B3
:1044B80027696E2070756C6C7570272C2027696EC3
:1044C8007075742070272C2027696E7075742070A1
:1044D800756C6C272C2027696E7075742070756C4C
:1044E8006C75702700094D6F64653A20091B5B31B4
:1044F8006D1B5B33336D494E5055541B5B306D0D4E
:104508000A00094D6F64653A20091B5B316D1B5B1E
:1045180033366D494E5055545F50554C4C55501BD1
:104528005B306D0D0A00094D6F64653A20091B5B0D
:10453800316D1B5B33356D4F55545055541B5B30F3
:104548006D0D0A000953746174653A20091B5B31CB
:104558006D1B5B33316D484947481B5B306D0D0A55
:10456800000953746174653A20091B5B316D1B5B4C
:1045780033326D4C4F571B5B306D0D0A000D0A50DE
:10458800696E207375636365737366756C6C7920E7
:10459800496E697469616C697A656421000D0A1B4A
:1045A8005B316D1B5B33326D0950696E2048656C59
:1045B800701B5B306D0D0A0009417661696C6162A0
:1045C8006C6520436F6D6D616E64733A0009092054
:1045D800696E697420092D3E0920696E69746961E4
:1045E8006C697A657320612070696E00090920730F
:1045F800657420092D3E0920736574206120706957
:104608006E20746F20646566696E656420737461DA
:1046180074650009092068656C7020092D3E092021
:1046280073686F777320746869732068656C7000AD
:10463800090920696E666F20092D3E092073686F8D
:10464800777320696E666F2061626F757420746875
:10465800652070696E000D0A0D0A0053796E746149
:1046680078205374727563747572653A2070696E38
:10467800203C636F6D6D616E643E203C70696E4EC8
:10468800756D6265723E203C6172673E0D0A006975
:104698006E666F000D0A1B5B316D1B5B33326D0953
:1046A8004750494F2050696E20496E666F1B5B303A
:1046B8006D0D0A001B5B316D1B5B33316D556E6BE5
:1046C8006E6F776E2050696E211B5B306D00095349
:1046D800746174653A20091B5B316D1B5B33316D66
:1046E800484947481B5B306D000953746174653A4B
:1046F80020091B5B316D1B5B33326D4C4F571B5BC5
:10470800306D0074657374001B5B316D1B5B333156
:104718006D496E76616C69642050494E20636F6DF7
:104728006D616E6421207479706520696E20277030
:10473800696E2068656C702720666F72206D6F72D5
:104748006520696E666F211B5B306D001B5B316DE8
:104758001B5B33326D53657269616C20496E7465F9
:10476800726661636520726561647920211B5B3024
:104778006D000A0D0073746172740073746F7000B9
:10478800202020202020202048656C700D0A002061
:10479800202020417661696C61626C6520436F6DF1
:1047A8006D616E64733A0020202020202020207242
:1047B800657365742020202D3E2020726573657412
:1047C800207468652041726475696E6F002020202E
:1047D80020202020207461736B732020202D3E2020
:1047E800204C69737420746865207461736B73203E
:1047F800616E642074686F73652073746174657387
:104808000020202020202020207374617274202032
:10481800202D3E20207374617274732061207461AE
:10482800736B00202020202020202073746F7020BC
:104838002020202D3E202073746F70732061207417
:1048480061736B00202020202020202070696E20BA
:10485800202020202D3E202053657269616C205055
:10486800696E2066756E6374696F6E730053796E36
:10487800746178205374727563747572653A203C5C
:10488800636F6D6D616E643E203C706172616D6531
:104898007465723E0D0A007461736B73000D0A2013
:1048A8002020202020205461736B204C6973740DE4
:1048B8000A00202020205072657373202745534337
:1048C8002720746F2045786974210D0A0020204E36
:1048D800616D6520202020207C2053746174652040
:1048E8007C205072696F72697479207C20537461DE
:1048F800636B207C204E756D207C002D2D2D2D2D79
:104908002D2D2D2D2D2D2D2D2D2D2D2D2D2D2D2DCF
:104918002D2D2D2D2D2D2D2D2D2D2D2D2D2D2D2DBF
:104928002D2D2D2D2D2D2D2D001B5B73000925639D
:104938000925750925750925750D0A001B5B256470
:1049480041001B5B4B001B5B316D1B5B33316D49B9
:104958006E76616C696420636F6D6D616E64212091
:104968007479706520696E202768656C70272066E9
:104978006F72206D6F726520696E666F211B5B30E8
:104988006D0D0A0049444C4500546D725100546D38
:064998007220537663005B
:00000001FF
